:020000041008E2
:4000000000780408F90208100D00000061030810610308106103081061030810000000000000000000000000000000005D0308105D030810000000005D0308105D0308104C
:400040005D0308105D0308105D0308105D0308105D0308105D0308105D0308105D0308105D0308105D0308105D0308105D0308105D0308105D0308105D0308105D03081000
:400080005D0308105D0308105D0308105D0308105D0308105D0308105D0308105D0308105D0308105D0308105D0308105D0308105D0308105D0308105D0308105D030810C0
:4000C0005D0308105D0308105D0308105D0308105D0308105D0308105D0308105D0308105D0308105D0308105D0308105D0308105D0308105D0308105D0308105D03081080
:400100005D0308105D0308105D0308105D0308105D0308105D0308105D0308105D0308105D0308105D0308105D0308105D0308105D0308105D0308105D0308105D0308103F
:400140005D0308105D0308105D0308105D0308105D0308105D0308105D0308105D0308105D0308105D0308105D0308105D0308105D0308105D0308105D0308105D030810FF
:400180005D0308105D0308105D0308105D0308105D0308105D0308105D0308105D0308105D0308105D0308105D0308105D0308105D0308105D0308105D0308105D030810BF
:4001C0005D0308105D0308105D0308105D0308105D0308105D0308105D0308105D0308105D0308105D0308105D0308105D0308105D0308105D0308105D0308105D0308107F
:400200005D0308105D0308105D0308105D0308105D0308105D0308105D0308105D0308105D0308105D0308105D0308105D0308105D0308105D0308105D0308105D0308103E
:400240005D0308105D0308105D0308105D0308105D0308105D0308105D0308105D0308105D0308105D0308105D0308105D0308105D0308105D0308105D0308105D030810FE
:400280005D0308105D0308105D03081010B5054C237833B9044B13B10448AFF300800123237010BD2C490208000000002CB50810084B10B51BB108490848AFF300800848C5
:4002C000036803B910BD074B002BFBD0BDE81040184700BF00000000304902082CB50810F4430208000000007047EFF3108072B6704780F310887047FFF7F6FF72B6114CB8
:40030000114DAC4209DA21686268A368043BA2BFC858D050FAE70C34F3E70C490C4A00209142BCBF41F8040BFAE70A480A490860BFF34F8F00F092FC00F06CFC00F082FB33
:40034000FEE7000030B5081048B508102C4902089CC902080040020808ED00E0FEE7FEE700B504207146084202D0EFF3098001E0EFF30880043002F065FAFEE7F8B50646EA
:400380000F4601F025FB0546064C3B4632460146204601F081F941F2B0622946204608F0DFFBF8BD4849020808B5002003F060F86FF07F4003F058F803F008F90121084600
:4003C000FFF7DCFF08BD00BF2DE9F043A1B000AFFFF7EAFF774AD2F8B8350133C2F8B835032B03D10122734BC3F8B825714BD3F8B835012B03D0022B03D0002602E005260C
:4004000000E00C26F2000832ADEB020D6D46012B10D10BE06849DA00881840682A44506051F8332045F83320013300E000239E42F0DC10E0022B0ED10AE0D9005E4A0A4477
:40044000D06A29444860926A45F83320013300E000239E42F1DC594C07F1500C04F13008E64620686168A268E368AEE80F001034F4464445F4D1514C07F1380EA4465CF83B
:40048000300FDCF80410DCF80820DCF80C30AEE80F00DCF81000DCF81410AEE8030007F1180E04F1480CBCE80F00AEE80F009CE80F008EE80F00BE4668340FCCAEE80F00F8
:4004C00094E803008EE803009623FE2214210A2003F04EF8AA231E221421104603F090FC9623FA2219461E2003F08AFC002417E007F1800303EB840353F8688C9B23424601
:400500009621404603F07CFC04EB440358009B22A8F10A0107F15003184403F041FA0134072CE5DD002417E04FEA840807F18003434453F8809CC9F1AA010B461E221920AD
:4005400003F05EFCC9F1A402052107F1380303EB080003F025FA0134052CE5DD01241FE0631E55F8330000EBD070401005EBC303596801EBD171491055F8342002EBD272D5
:40058000521005EBC4035B6803EBD3735B10C3F196031E32C1F196011E3003F031FC0134A642DDDC01210020FFF7E8FE8437BD46BDE8F083405A02088C4202083895081041
:4005C00008B5294BD3F88820284BC3F84C2101F03BFA0028FBD114E02348D0F88830234AC2F84C310133224A82FB0321DA17C2EB6112642101FB1232C0F88820142002F082
:40060000F7F801F021FA0028E6D01A4BD3F8BC35012B0AD1174B0022C3F8C02501201249C1F88C00C3F8BC2508BD124AD2F8C0350633D2F8C425934203DA0E4AC2F8C035B3
:4006400008BD00220B4BC3F8C025074AD2F88C300133C2F88C30032B05D10123C2F88C30044AC2F8BC3508BD8C420208000038401F85EB51405A020808B5002002F0F8FE27
:400680006FF07F4002F0F0FE002002F023FF002002F02AFF02F09AFF054802F0EDFE022002F00EFF05228421024803F079F908BD74990810EC9508102DE9F043A1B000AFB0
:4006C000FFF772FE794AD2F8B8350133C2F8B835032B03D10122754BC3F8B825734BD3F8B835012B03D0022B03D0002402E0052400E00C2404F1FF39E2000832ADEB020D1E
:40070000E846012B10D10BE06949DA00881840684244506051F8332048F83320013300E000239C42F0DC10E0022B0ED10AE0D9005F4A0A44D06A41444860926A48F83320CD
:40074000013300E000239C42F1DC5A4C07F1500604F1300E354620686168A268E3680FC510342E467445F5D1524C07F13805264656F8300F7168B268F3680FC530697169E3
:4007800003C507F1180504F148060FCE0FC596E80F0085E80F003D4668340FCC0FC594E8030085E803009623FE2214210A2002F0DFFEC8231E221421104603F021FB96231D
:4007C000FA2219461E2003F01BFB002417E007F1800303EB840353F8685C9B232A469621284603F00DFB04EB440358009B22A5F10A0107F15003184403F0D2F80134072C17
:40080000E5DD002415E0A50007F180032B4453F8806CC6F1AA010B461E22192003F0F0FAC6F1A402052107F13803581903F0B8F80134052CE7DD0A2600252EE001F004F9C9
:4008400078B308F0BBF91C4C84FB0023C417C4EB631440F22D1303FB1404A6F10A0000EBD070401005EBD575691006EBD672521004EBD4735B10C3F196031E32C1F196011D
:400880001E3003F0BDFA01210020FFF777FD4FF47A7001F0ADFF0A36254658F839309E42CCDD8437BD46BDE8F08300BF405A02088C420208389508104B48371B2DE9F041BB
:4008C00088B000AFFFF770FD002002F0D1FD6FF07F4002F0C9FD002002F0FCFD002002F003FE02F073FE504BD3F88C30012B03D0022B03D0002602E0052600E00C264B4A7C
:40090000C2F8C465F2000832ADEB020D6D46484A92E8030007F1200202E90300012B11D1424BD3F8C0350AE03F49DA00881840682A44506051F8332045F8332001339E42EA
:40094000F2DC11E0022B0FD1384BD3F8C03509E0D900354A0A44D06A29444860926A45F8332001339E42F3DC324802F085FD022002F0A6FD2C4BD3F88C30013B07F1200222
:4009800002EB83030522842153F8080C03F008F8264BD3F8C045A31D9E423ADB1E4638E0224BD3F8C0359C4209D11E221421224802F0F6FF1E226421204802F0F1FFDFF8A3
:4009C000808055F834204146384608F031F905EBC4035A68414607F10C0008F029F9DFF84C80D8F8C035E31A03EB83039A0032321421384602F0D4FFD8F8C035E31A03EB12
:400A000083039A003232642107F10C0002F0C8FF0134A642C4DC01210020FFF7AFFC2037BD46BDE8F08100BF8C420208405A0208B895081074990810FC95081008960810BC
:400A40001C96081008B562B601F0D2FF02F0EEFD142000F00DFE012000F012FEFFF70CFE064BD3F8BC3523B9FFF728FFFFF7A8FDF6E7FFF721FEFFF7A3FDF1E7405A020843
:400A8000704700BF5C4AD2F8803303F00F0303F1D00152F8212002F00702032A04D0042A05D092B9554914E0554A116811E003F1C002514951F8222002F01F02112A06D064
:400AC000132A04D04FF4FA4103E04E4901E04FF400418BBB484BD3F8902502F00100D3F88825C2F30172D3F8883513F0405F07D0414BD3F88835C3F30173012B02D102E07C
:400B0000012300E0002303B108B9032A46D13A48D0F88025C2F31103D0F88425C2F30C02D0F88005C0F300600130B1FBF2F202FB03F2B2FBF0F131E0012B2FD12E4BD3F8C7
:400B4000402602F00100D3F80026C2F30172D3F8003613F0405F07D0274BD3F80036C3F30173012B02D102E0012300E0002303B108B9032A12D12048D0F8002602F07F0296
:400B8000D0F80036C3F30423D0F80006C0F3044002FB01F2B2FBF3F2B2FBF0F1164BD3F88033C3F3011321FA03F215494A601648D0F89030C3F3072301330069000E013022
:400BC000B2FBF0F08860B2FBF3F3CB600B6103F5742202F23F220D48A0FB0202C2F387420A7503F2E7330A4AA2FB03239B098B61DB03CB61704700BF0000264000127A005A
:400C00002043020800366E010000214083DE1B43D34D621008B5104BD3F8802122F0404242F08042C3F88021D3F8802142F00042C3F88021D3F8802122F00102C3F880216F
:400C4000FFF71EFFFFF71EFF00F0CCFE00F0D2FE01F0A8FD08BD00BF0000264008B5FFF744FB074AD2F8883043F47003C2F88830BFF34F8FBFF36F8FFFF73BFB08BD00BF83
:400C800000ED00E02DE9F04180460E4617460A4C08256560702000F06FFD404600F06CFDA5606560722000F067FD3946304600F0C7FDA560BDE8F0810006324000B583B0C2
:400CC00002AB03F8011D01221946FFF7DBFF03B05DF804FBF8B507460E46094C08256560702000F049FD384600F046FDA5606560732000F041FD304600F06EFDA560F8BDB3
:400D00000006324038B50425084B5D60084C402363601023636000F0FFFC0822054B5A6065602023636000F0E1FC38BD00003240800232400006324010B5434C6F22002115
:400D4000204607F033FF631C236704F14E03636704F12203A36700F0C9FC03E000F0D0FC032868D800F0AEFD0028F7D100F0CEFC00217220FFF7AEFF00F00F0002285CD1F7
:400D80004021FFF79BFF00210F20FFF7A3FF10F0800F54D002210B20FFF790FF08222B490120FFF76FFFD1210720FFF787FF02210820FFF783FFC2210920FFF77FFF0321B5
:400DC0000420FFF77BFF01210320FFF777FF00210320FFF773FF0A2001F00AFD002400E01C4601210520FFF769FF642001F000FD03210520FFF762FF322001F0F9FC0F215B
:400E00000520FFF75BFF322001F0F2FC00210F20FFF760FF10F0400F05D040210220FFF74DFF234603E0631C9BB2042CD8D1032B07D9052010BD012010BD022010BD03208D
:400E400010BD002010BD00BF086002084096081010F1090F0EDB10F1040F0EDB05280FDD0A2810DD0F2811DD142811DD282811DC5A2210E04FF496620DE04FF461720AE042
:400E80004FF4167207E04FF4A57204E0DC2202E0B42200E03C22034BA3F87C20A3F87E20704700BF086002082DE9F84F06460D46047828B1CA4B984205D10127002403E063
:400EC0000127FF2400E0002700F010FC4FF00008D0E1C8EBC80AC8EB0A1ADFF80C930AEB090B6F220021584607F060FE0BF1010EBC4BC3F870E00AF148004844063058674B
:400F00000AF1200AD14409F10209C3F878902022002397E10FB934780136032D00F29081DFE815F004006500C600270100EB030C14F0400F01D0C02100E080218CF80010BD
:400F400049B214F0100F02D04FF0300A01E04FF0200A4AEA01018CF8001014F0040F02D04FF00C0A01E04FF0080A4AEA01018CF8001014F0010F02D04FF0030A01E04FF068
:400F8000020A4AEA01018CF800100EEB020C14F0800F01D0032100E002218CF8001049B214F0200F02D04FF00C0A01E04FF0080A4AEA01018CF8001014F0080F02D04FF0B8
:400FC000300A01E04FF0200A4AEA01018CF80010013A92B214F0020F02D06FF03F0A01E06FF07F0A4AEA01018CF8001028E100EB030C14F0400F01D0802100E040218CF875
:40100000001049B214F0100F02D04FF0200A01E04FF0100A4AEA01018CF8001014F0040F02D04FF0080A01E04FF0040A4AEA01018CF8001014F0010F02D04FF0020A01E0FF
:401040004FF0010A4AEA01018CF800100EEB020C14F0800F01D0022100E001218CF8001049B214F0200F02D04FF0080A01E04FF0040A4AEA01018CF8001014F0080F02D002
:401080004FF0200A01E04FF0100A4AEA01018CF80010013A92B214F0020F02D06FF07F0A01E04FF0400A4AEA01018CF80010C7E000EB030C14F0400F01D0C02100E040215A
:4010C0008CF8001049B214F0100F02D04FF0300A01E04FF0100A4AEA01018CF8001014F0040F02D04FF00C0A01E04FF0040A4AEA01018CF8001014F0010F02D04FF0030A87
:4011000001E04FF0010A4AEA01018CF800100EEB020C14F0800F01D0032100E001218CF8001049B214F0200F02D04FF00C0A01E04FF0040A4AEA01018CF8001014F0080F2D
:4011400002D04FF0300A01E04FF0100A4AEA01018CF80010013A92B214F0020F02D06FF03F0A01E04FF0400A4AEA01018CF8001066E000EB030C14F0400F01D0802100E0F9
:40118000C0218CF8001049B214F0100F02D04FF0200A01E04FF0300A4AEA01018CF8001014F0040F02D04FF0080A01E04FF00C0A4AEA01018CF8001014F0010F02D04FF0DE
:4011C000020A01E04FF0030A4AEA01018CF800100EEB020C14F0800F08D0022107E000BFFFFF0F1008600208B07B020803218CF8001049B214F0200F02D04FF0080A01E003
:401200004FF00C0A4AEA01018CF8001014F0080F02D04FF0200A01E04FF0300A4AEA01018CF80010013A92B214F0020F02D06FF07F0A01E06FF03F0A4AEA01018CF8001074
:4012400001339BB2202B7FF665AEC8F1AF031BB299101A4A134003D5013B63F003030133174A02FA83F31B7A09F8013008F101081FFA88F8B8F1AF0F7FF62BAE00240FE0E4
:40128000C4EBC403C4EB03136F220E4919440A20FFF7F8FC07210220FFF710FD0134A4B2AF2CEDD9084BB3F87C4000F029FA8442E4D800F02BFABDE8F88F00BF030000804F
:4012C00040960810B07B0208086002082DE9F04706460D4600F00AFAD2210920FFF7EEFC0024C6E0C4EBC407C4EB0717DFF8008207EB08096F220021484607F057FC09F18C
:40130000010C784BC3F870C007F1480EC6440EF1060EC3F874E02037B84408F10208C3F87880202000218EE0771C32786E1C95F800900EEB010582EA090212F0400F04D021
:4013400019F0400F03D0802302E0402300E0C0232B705BB212F0100F05D019F0100F05D04FF0200A04E04FF0100A01E04FF0300A4AEA03032B7012F0040F05D019F0040F21
:4013800005D04FF0080A04E04FF0040A01E04FF00C0A4AEA03032B7012F0010F05D019F0010F05D04FF0020A04E04FF0010A01E04FF0030A4AEA03032B700CEB000512F07D
:4013C000800F04D019F0800F03D0022302E0012300E003232B705BB212F0200F05D019F0200F05D04FF0080A04E04FF0040A01E04FF00C0A4AEA03032B7012F0080F05D0B8
:4014000019F0080F05D04FF0200A04E04FF0100A01E04FF0300A4AEA03032B70013880B212F0020F05D019F0020F04D06FF07F0203E0402201E06FF03F0213432B700131D8
:4014400089B235463E4620297FF66EAFC4F1AF031BB29910244A134003D5013B63F003030133224A02FA83F31B7A08F801300134A4B2AF2C7FF636AF002421E0C4EBC40517
:40148000C4EB05151A4B1D446F2229460A20FFF7F9FB07210220FFF711FCC4F1AF0343F38D032B44002283F822206F2229460A20FFF7E8FB07210220FFF700FC0134A4B2F7
:4014C000AF2CDBD9074BB3F87E4000F019F98442D2D800F01BF9C2210920FFF7EFFBBDE8F08700BF086002080300008040960810B07B0208002307E01349086F5522C254E3
:40150000496FCA5401339BB2202BF5D970B5002416E0A6080C4DAA6F04F003030B490B441B7A93556F2229460A20FFF7ABFB07210220FFF7C3FBAB6F00229A550134A4B248
:40154000AF2CE6D970BD00BF086002084096081008B5002304E00021094AD1540133DBB2152BF8D900210420FFF7A8FB6F2204490A20FFF787FB07210220FFF79FFB08BD59
:401580000860020838B50E4C1023A360142001F02FF900F0D9F808220A4B9A604023A3600425A5600A2001F023F965600A2001F01FF9A5600A2001F01BF9FFF7BDFB38BD1B
:4015C000800232400006324038B5FFF793FFFFF7BFFF1E2001F00CF9234C40256560322001F006F9A56000210F20FFF773FB10F0400F36D000210B20FFF760FB0121032057
:40160000FFF75CFB03210520FFF758FB01210520FFF754FB322001F0EBF880210420FFF74DFB00210520FFF749FB01210720FFF745FB1E2001F0DCF800F094F810236360A2
:401640006560142001F0D4F80822084B5A60042363602025A5601E2001F0CAF86560002038BD042038BD00BF800232400006324010B50446FFF746FB2046FFF7E9FB10BDE7
:4016800008B510B1FFF77EFF01E0FFF79DFF08B9012008BD002008BDF8B507460E4614461D4613B10120FFF7EBFF24B931463846FFF70CFE15E0631EDBB2012B11D800215F
:4016C0003846FFF7F1FB012C07D101213846FFF7EBFB02213046FFF7E7FB03213046FFF7E3FB15B10020FFF7CBFFF8BD08B50022024BC3F8082100F08FF908BD000038400A
:40170000014BD3F808017047000038400122014B5A6070470000384010B5074C074A0849204600F06FFE236843F0004323600822044B9A6010BD00BF0000674004C8020885
:40174000C8960810000632400822044B9A60044A136843F000431360704700BF000632400000674008B50249024800F091FF08BD04C802080000674008B50146154800F05C
:40178000E3FD144BD3F8C03F13F0040FF9D0114BD3F8042242F48032C3F80422D3F8042222F48032C3F80422D3F80422D3F8042342F48032C3F80423D3F8042322F480322A
:4017C000C3F80423D3F804230422C3F8C02FD3F8C03F08BD0000674008B50146174800F0B3FD164BD3F8C03F13F0040FF9D0134BD3F84003D3F8042242F48032C3F80422DC
:40180000D3F8042222F48032C3F80422D3F80422D3F8042342F48032C3F80423D3F8042322F48032C3F80423D3F804230422C3F8C02FD3F8C03FC0B208BD00BF000067409C
:4018400038B50C46054600B121B940F2AB511B4800F0E8FF22462946194800F0BBFD184AD2F80832C3F30803D2F80822C2F3C032D342F4D1124BD3F8042242F48032C3F87E
:401880000422D3F8042222F48032C3F80422D3F80422D3F8042342F48032C3F80423D3F8042322F48032C3F80423D3F804230422C3F8C02FD3F8C03F204638BD4C9608103E
:4018C00000006740044B1B6913F0080F01D0012070470020704700BF8002324008B54FF48071034801F0AAF9024801F03BFE08BD88600208F8AA0810024A136801331360FE
:40190000704700BF00C8020810B52021002001F035F8002409E0204601F060F820B90849204601F04DF802E00134042CF3D9042C03D9A421034800F075FF00F0FBFF10BD4F
:40194000F91808108C96081008B5FFF7DDFF08BD10B582B002AC012344F8043D00231A461449154801F07EFF214603F036FB03F095FF60B14FF48472B021002004F073F813
:401980004FF48472B021002004F099F80BE0B0224FF48471002004F066F8B0224FF48471002004F08CF80549002004F073F802B010BD00BF80B20810B4B20810404302080F
:4019C000012901D1002070474FF0FF30704700BF004870478861020808B5012000F058FB08BD00BF08B500221146042000F0DEF808BD00BF10B5064800F094F900F07DFFF9
:401A00000446044800F0FAF9204600F07AFF10BD387802089496081008B5084B1B783BB9074A0021074800F051FB0122034B1A70044B01229A609A6108BD00BFB8790208E0
:401A4000FC96081000003840014B1878704700BF0416344038B50C4B9A680C4B9A420ED10D46044619B9FC21094800F0DBFE04F11003064A52F8230042F8235038BD1030BF
:401A8000044B53F8200038BD00ED00E000400208489708100000081070B338B504460D464368072B03D93621154800F0BBFEB4F900306268002B08DB5201D2B203F160436B
:401AC00003F5614383F8002305E003F00F035201D2B20C49CA540C4B9A680C4B9A420DD11DB94521064800F09DFE2946B4F90000FFF7B0FF002038BD05487047002038BD0A
:401B00004897081014ED00E000ED00E0004002080100560038B50369002B0DDA0D4604460B0C1B0423B140F2B321044800F07AFEA9B26160002038BD014838BD8C970810E9
:401B400001008A0038B50368002B01DA002300E0094B73B90D460446C2600B0C1B0423B140F29A21054800F05DFEA9B2A160002038BD014838BD00BF01008A008C97081077
:401B800038B504460D4619B99921064800F04AFE2369002B03DAE3682B60002038BD024838BD00BFCC97081001008A000F2840D8F8B515460E46044682B979B90F2804D990
:401BC00040F2A911214800F02DFE600100F1804000F50C101E4B18600020F8BD5DB366B316F01F0F2BD10F2C04D940F2A911174800F018FE640104F1804404F50C14144F40
:401C00003C607E60BD60F2080021284606F0CEFF00212046FFF77EFF3A4652F8040B0021FFF790FF68B900213868FFF773FF50B9F8BD084870470748F8BD0648F8BD0548E5
:401C4000F8BD0548F8BD0448F8BD00BF0C980810BC79020803018A0001018A002DE9F0411B4B1B68DC68236883422CD90D464609A0EB4610012303FA00F819B900F03DFE76
:401C8000074600E00027124B18680368002B01DA002300E00F4B83B9626852F8263018EA030F05D023EA080342F82630002400E0094C0021FFF72EFF00E0084C25B93846C1
:401CC00000F01FFE00E0064C2046BDE8F08100BFBC79020801008A00020188000301880004018A000B4B1B68DB681A6882420CD94109A0EB4110012202FA00F05B6853F870
:401D00002130184203D004487047044870470448704700BFBC7902080101880004018A0000018800024B1B680BB9014B18607047C87902082DE9F8430446884691461E467E
:401D4000089F2A4B1B681BB9B421294800F06AFD072C03D9B521264800F064FD234B1B682C2000FB04F01C18F5B21D50C6F307236360360CA6600F2D04D940F2A9111D48E3
:401D800000F050FD6D0105F1804505F50C15256165680F2D04D94FF4E271164800F042FD154B03EB45156561A668330C1B0423B14FF4F1710F4800F035FD330C1B0423B115
:401DC00040F2E3110B4800F02DFDB3B243EA0646AE60C4F81C90C4F820800023A36117B1B7F90030A381BDE8F88300BFC87902084C9808100C98081000102340F0B58FB074
:401E0000044618B950212C4800F00CFDA369072B03D95421284800F005FDE36A1BB95621254800F0FFFCE368072B03D95721224800F0F8FC236A072B03D958211E4800F03F
:401E4000F1FC236B1BB959211B4800F0EBFC07AE04F114050FCD0FC62F6802AD26460FCE0FC533682B60079B1933ADF83030089B0D93A26AE16A0CAD00953B460A98FFF76E
:401E800059FF00210091069B0A460598FFF752FF216B2846FFF700FEBDF93030002B08DB590903F01F03012202FA03F3034A42F821300FB0F0BD00BF4C98081000E100E0E5
:401EC000F8B506460F461D4614461AB9FD21264800F0A8FC254B1B681BB9FE21224800F0A1FC072E03D9FF211F4800F09BFC072F04D94FF480711C4800F094FC1B4B1B68D4
:401F00002C2101FB063001FB07314B68012202FA03F31B04466802FA06F60269EAB18F69EFB91268002A01DA002200E0104AC2B92288134323600369DC6001238B614D627B
:401F40000469330C1B0423B140F29A21094800F069FCB2B2A2600020F8BD0748F8BD0748F8BD0648F8BD00BF4C980810C879020801008A000C98081004028A0007028A0079
:401F8000F8B505460F461646124B1B6823B940F26111114800F046FC072D04D94FF4B1710D4800F03FFC0B4B1B682C2404FB0534236A23B94FF4B371074800F033FCE369AC
:401FC000B34204D9236A43F826700020F8BD0348F8BD00BFC87902084C9808100A028A0070B582B000230193044620B94FF4EA71264800F017FC236923B940F2D511234815
:4020000000F010FC636923B94FF4EB711F4800F009FC236A23B940F2D7111C4800F002FC6369DD682A0C1CD012041A601B6820690369002B15DA01A9FFF7A2FD60B90198E6
:4020400003681E0CDBB2E269934206D2226A52F8233013B1984700E0002631462069FFF759FDADB275B16369ADB21D601B68636A1BB198470023636202E0A36A03B1984796
:402080000023A36163691B6802B070BD4C98081010B504460B4B1B6823B94FF4DA710A4800F0C0FB072C04D940F2B511064800F0B9FB044B1B682C2000FB0430FFF790FFB4
:4020C00010BD00BFC87902084C98081000287DD00346002A7CD070B45068000280B29568AD0405F480252843D468240404F4403404431069000600F0E0602043147F0CB199
:40210000012400E0002420430C1DA4011851D06828B903EB81100024C0F808410CE0012805D1146803EB8110C0F8084104E003EB81100124C0F80841106938B9546903EB9A
:402140008110C0F80C419469C0F81041146803EB8110C0F81441906CB0F1FF3F17D0946A04F00F04166B360206F470663443956B2D0405F470252543146C2403A4B22C4361
:402180000001C0B2204303EB8114C4F82001506A00F00300D66A360106F030063043556B2D0205F440752843D46BA401E4B20443506C800000F00C00204303EB8113C3F885
:4021C0002401126AC3F83821002003E0024870470148704770BC70470100B600002800F0AC8070B40446002A00F0A98092F828300BB1012500E00025137F0BB1022300E07B
:4022000000231D431669B60406F4802645EA060395682D0405F440351D431668300600F0E0602843136B556B43EA45031B0503F440130343906B43EA8000052E03D1D36872
:402240001B029BB202E053681B029BB20343081D800123501368062B08D104EB81130120C3F808013F20C3F828011DE0936843B904EB81130020C3F808013120C3F82801CE
:4022800012E0012B08D1506904EB8113C3F808011C20C3F8280107E004EB81130120C3F808011220C3F82801106A04EB8113C3F80C01506AC3F810015069C3F814019069D5
:4022C000C3F81801136EB3F1FF3F17D0106C00F00F00966C360206F470663043156D2D0405F470250543906D000380B228431B01DBB2034304EB8110C0F82031D36B03F0F9
:402300000303566C360106F030063343D56C2D0205F440752B43506D8001C0B21843D36D9B0003F00C03034304EB8114C4F82431D36AC4F83831002002E0024870470148FF
:4023400070BC70470100B600036813F4006F01D0802200E04022D0F80832C3F30803934203D0C0F84012012070470020704700BF10B4D0F8003203F00F03072B06D9002353
:402380000DE0CC5CC0F84042013300E000239342F7D306E031F81340C0F8404201339342F8D35DF8044B704710B51446036813F4006F01D0802200E04022D0F80832C3F3C0
:4023C0000803D31AA34200D81C462246FFF7D0FF204610BDF8B507460D461446D0F8006206F00F060BE0224629463846FFF7DCFF072E01D9430000E003461D44241A002C33
:40240000F1D1F8BD002800F03081F8B50546002900F02D810B78012B03D19948854200F02881087F18B19648854240F0248116460C46012B03D94C21924800F0F3F963785B
:40244000012B07D9052B05D0022B03D04D218D4800F0E8F9A378032B03D94E21894800F0E1F92378012B07D16368023B0E2B03D95021844800F0D6F9A36933F00F0303D03C
:402480005121804800F0CEF9A368043B0C2B03D952217C4800F0C6F9E368043B0C2B03D95321784800F0BEF96378022B07D0A268E3689A4203D05421724800F0B3F9636AF5
:4024C00033F06D0303D056216E4800F0ABF9E36A33F0730303D057216A4800F0A3F9236B33F4206303D05821664800F09BF96378A778052B07D8DFE803F0060305060603B0
:40250000022700E00027A368082B04D8E368082B03D9002302E0002300E0012313B14FF4006200E00022217F11B14FF4807300E000231A436368013B03F00F03134343F0D3
:4025400080732B60236A2A6812F4006F01D0802200E04022934203D365214A4800F062F9A36A2A6812F4006F01D0802200E04022934203D36621434800F054F9237D0BB95F
:40258000012100E000216278052A01D1022300E000230B43E17C09B1102100E000210B43617C09B1202100E000210B432178012902D14FF0004100E000210B43BF0007F0CE
:4025C0000C073B43A169090201F470610B43120602F0407213432B62237C13B14FF4807200E00022A17C11B14FF4007300E000231A43A368013B03F00F031343C5F8003361
:4026000094F82030C5F80433237C13B14FF4807200E00022E368013B03F00F031343C5F8003294F82830C5F80432636A03F06D03C5F8C83FE36A03F07303C5F8883F236BCC
:4026400003F40073C5F8003F236B03F40063C5F8403F0023C5F8C83E7EB118463360B361F360F361084B3362F8BD084870470748F8BD0648F8BD0548F8BD0020F8BD00BFCE
:4026800000006940D0980810EFCDAB000140AA00036823F00043036019B100220A60CA608A61036A002B04DB0023C0F8C83FC0F8883F70471F4B98422DD00CD840282ED0F6
:4026C00003D8E8B1102828D02FE0802829D0B0F5807F28D029E0184B984228D006D8B0F1204F0DD0154B984212D01EE0144B98420AD00133984209D0023B984215D101E0EF
:40270000002070470F4870470F4870470F4870474FF4A0007047074870470D4870470D4870470D487047034870470C4870474FF4A400704706005200010000F0090000A037
:40274000040000F0010052000200520003005200010050000200500005005200FF00520008B50C4B1B69002B12DB0B4B1868FFF7A1FF0122094BC3F88C24084BD3F80C34C2
:40278000002BFAD1054BD3F88C34002BF5D108BD034808BD20002340CC790208000025400200500000B583B05523ADF80030002301930C496846FFF76FF9BDF90030002B9B
:4027C00008DB590903F01F03012202FA03F3064A42F82130022205490120FFF7D1FB03B05DF804FB7544020800E100E04944020810B5044605E0084B186800F075F8A4F55B
:402800000044B4F5004FF6D8044B186800FB04F000F06AF810BD00BF3C4302083843020801BEFEE738B50D46044C18220146204606F022FAA5610020FFF7F2FF98480208C0
:40284000FEE700BF08B50268254BDA6142681A6282685A62C2689A620269DA6242691A6382695A63C2699A631E4A916AD963D16A1964516A5964516B9964926BDA64F1EEAF
:40288000103A13F0900F27D0026A154B1A65426A5A65826A9A65C26ADA65026B1A66426B5A66826B9A66C26BDA66026C1A67426C5A67826C9A67C26CDA67026DC3F88020EF
:4028C000426DC3F88420826DC3F88820C26DC3F88C20026EC3F89020FFF7B2FF08BD00BF9848020800ED00E00230800803D001300238FCD100BF00BF7047EFF3108072B691
:40290000704780F310887047084B1B6813F4803F07D17047064B53F8243003B19847013401E010B50024042CF4D910BD10E000E00C7A0208044B1A6842F002021A601A6844
:4029400042F001021A60704710E000E0042805D1084A136843F0040313607047000600F04070054BC3F84002024A136823F004031360704710E000E00000214010B50C46A8
:40298000002304E000210A4A42F823100133042BF8D9084A084BDA63FFF7D8FF24F07F44064B5C6000229A60FFF7C4FF10BD00BF0C7A0208092908100040020810E000E012
:4029C0000346042805D8044A52F8200042F8231070470020704700BF0C7A0208042803D8024B53F820007047002070470C7A020808B5084B1B783BB9074A01210748FFF757
:402A0000EDFB0122034B1A70044B02229A609A6108BD00BF207A02081099081000003840064B5A68596B01325A60C2008A18596A51600021117058627047C04628C802083B
:402A40000F2330B542680E4CD90009190D6C2100AA4202D2013BF7D211E00F2B0FD82468A21A0A608268C068002A00D05060002801D0026003E00833DB00CB185A6030BD83
:402A800028C80208F8B5284C0600E368A26B013B0818D3180D00984206D80368002B03D14368F618FFF7CCFFA36B9D420BD92B1F1F68EF1B3B68002B05D17B683800F61834
:402AC0003D00FFF7BDFF0F23DA00A218126C964202D2013BF8D225E00F2B23D80833DA00A21850680022A91904392A606E60A8602D610E6029000831904200D04160EA60C4
:402B00002200DB00E318A860596023682932F31823601278002A05D1E268D31AA268934200D9A3603000F8BD28C80208F0B5234B87B09C6BDB680490013BE318039323688D
:402B40006568002B30D1039B6719BB422CD93B680293002B28D0194EDB00726B9B5C012B22D17B6820000193F36A0593FFF768FF3B68726BDB00D3185C60019A39002000CD
:402B800005F0F9FF029B059A934202D1736B5B1B7363019B2800E118FFF774FF049B002B01D0984206D2019D039B6419A342C6D8012000E0002007B0F0BDC04628C80208E6
:402BC000002806D0034BDA6B0260002A00D05060D863704728C80208034BC0005B6B1818406808307047C04628C80208064A10B5D3690133D361526BC300D3181A780132C8
:402C00001A70FFF7E9FF10BD28C80208036810B5083B094C1B68626BDB00D3181A78012A04D9E169002901D00139E161013A1A7000230360180010BD28C802080322024B91
:402C40009143186059607047247A020810B5041E0BD0064B5A6BC300D3185B6819005868FFF710FF2000FFF7DBFE10BD28C80208F7B5224DEB6A002B07D1214B9968586873
:402C8000083105F043FF841C03E02B691C1DDB08E418E00000F0CAF80126071E2CD06A6BC300D3185E68EB6A083601932B69696BDA00144B30001B68984729696E630B008A
:402CC000CA000432EF62B218601E834203D2013313600832F9E7DB00F31800265E60074B5A685962511A091959601C61019BB34202D01800FFF7AAFF3000FEBD28C8020885
:402D0000247A02087C43020870B5184C230028331A78002A29D101321A70154B0F32DA609A68002A02D15A6892089A605A2210252262002228009040D10061180132086440
:402D4000102AF7D15868196803000125143BCB180E3A22616363A163E0605D6065626560FFF790FEFFF784FF256370BD28C80208247A0208F0B5040085B0FFF7C5FF032385
:402D8000294E03349C43376C201DB84200D30700F26B1400002C06D0231F196823688F4232D01C00F6E7F268B36B944663440193043B02931B680393039A019B9D1A2B6848
:402DC000002B06D02000FFF7B1FE029B1D68019B5D1B2B68002B23D16B689F4220DC28001C1DFFF72DFEF368E41BDB1BF36073692C19DB1973616B68D81B02D02900FFF7B0
:402E000041FE231F1F600BE0002B01D0616859606168002900D00B60A24201D12368F363200005B0F0BDC04628C80208F0B585B00400FFF769FF3C4D2E6CB44203D3032392
:402E400003349C4326002B680C360196B34241D32B6B6A689A420FD96B686F6A013B6B60FB0003936B6BFA009B185A686A6201221A70002F0AD12DE0013B2B63FFF7F8FEA6
:402E80002B6B01332B630028E6D023E00F23DA00AA18126C964201D2013BF8D21A00DB004433EB180F2A0DD81968002907D08C68002C04D061688E420ED9A168F5E7013242
:402EC0000833EFE73000FFF731FE0028DED03800FFF7A6FD002723E0636802939E1B2B6C0C339E4201D2029B01932000FFF7A8FD6B6B039A9B185C60019B019A636000230E
:402F0000A360019B2760E1180B1F24611A601300029A934204DA1300019A981AFFF7B2FD380005B0F0BDC04628C80208002310B5984202D0FFF77AFF0300180010BD00005D
:402F400037B50500FFF7F2FF041E0AD0FFF74EFE054B01901B682A000021984701A8FFF755FE20003EBDC04680430208514BF0B51B688FB0DA69D469A589A84208DBE189E5
:402F8000814205D32168451B09910121494215E0A168002900D184E00D88A84200DA80E04E8886427DD3451B4968A8B266688000081809960021455E0221415E0891691C27
:402FC0006FD022215E5E2420195E0691127E0A92A27C0A9951430C91227C0B922A229B5E1800079302F01AF8324F0D903A680699D369926B300005920C9A5543099A55193F
:4030000004950125A27C02950392DA7E01929B7E0B9A00930A9B02F093F9089B01331BD00220079B184301F0F9FF3B680899DA699B6B300005930C9B4B430999CB180493B8
:40304000A37C02950393D37E06990193937E0B9A00930A9B02F074F9164D2B68DB695A7E1B7E9A4217D9079B022B14D00420584001F0D4FF2B68069AD8690B99437E057E2D
:403080009B18827E51438A19C17E069869430918300002F045F86B4634229B18187801F0BDFF044B617C1A68538CCB1853840FB0F0BDC04664430208044B1B68DB69DB6962
:4030C000002901D01A7C0A60587C70476443020802230B80704710B5C3699A89914203DBDA8901208A4210D29B68181E0DD01A880020914209D35C888C4206D3891A5B68C4
:403100008900C85AC04380B2C00B10BD002807D003888B4202D843888B4201D28068F5E770470000F0B5334F8BB03B6804002A215A5EDB690100D8690792FFF7E7FF0028D1
:4031400055D00388E41A4368E4001E190798B47801F064FF39680990CD6932782B7E08932423C85E84462223C85E896B089B059171680394049101210291E97E0191A97EB5
:403180000091614602F0DCF83B68DB695C7E1A7E089294421FD9079A022A1CD0DD7E00F0EDF8079000F0E4F800F062F93A682423D15E2223D05E2300D2696B43D47E327826
:4031C0005B186243089C12186543691801F0A8FF079800F04DF9099801F020FF054B71781B68DA69927E4A43598C52185A840BB0F0BDC046644302080C4B70B51B680400B7
:40320000DE690D000100F069FFF780FF00280CD002884368A41AE4001C196078B37E5843002D02D0227853432B6070BD6443020801230B80704710B5C069FFF767FF431E0E
:403240009841C0B210BD000070B5244E040032680D00D37E002B40D0917CC9070FD5D069411CC97F007E814200DB411E2420125E200051185B18013B2A0001F051FF33685C
:403280009A7C920711D5DA69D11CC97F0132D27F01314910511A24201A5EDB7E89185B18013B2A00200001F03BFF3268937C5B0713D5D1694B1C0331DB7FC97F591A013996
:4032C0002423D05ECB43DB171940D37E41185B18013B2A00200001F023FF70BD6443020810B5044B1B682221595E0139FFF7ACFF10BDC0466443020810B5074B00211B68C1
:4033000022229C5EDB69013C5B689847201A01302100FFF799FF10BD64430208FF2230B5040014400A40A21A92B213B2002B01DA524213B25B431D00FF23020A1A40140071
:403340000A0A1340E21A92B213B2002B01DA524213B2000C5B43090C411A89B208B25B19002801DA494208B280B24043C01830BD10B502F04DFA02F053F910BD10B502F07D
:403380004FFA02F04DF910BD70B500282CD0002926D0002A25D013880D881C1C2EB21BB2B34200DD2C1C048053884D881C1C2EB21BB2B34200DD2C1C448093888D881C1CAA
:4033C0002EB21BB2B34200DA2C1C8480D388C9881A1C0CB21BB2A34200DA0A1CC28003E01100082205F0BCFB70BD00280DD0038889B2CB180380838892B2C918438881804D
:40340000D3184380C388D218C2807047024B1B6858849984002070476443020830B503000222845E06200A5E0020944213DC02228C5E06255A5F94420DDC00229C5E042508
:403440004A5F944207DC00228A5E0421595ED00FCB179142584130BD10B502F0CBFA02F045FB03F0A3F810BD10B502F01DF910BD10B502F021F910BD034B021E1B68D86977
:4034800000D0DA617047C04664430208084B10B51880084B0A001980074B08491B685B7C9B005B58D9680C6A01001800A04710BD10C9020800C902086443020838C90208AC
:4034C000034B1B682C215A5E988510007047C04664430208034B1B682A215A5E588510007047C0466443020810B5084A08491268084C0300907C0C600749002B01D10B60C3
:4035000001E0064C0C60937410BDC0466443020814C90208F932081008C90208E132081070B50024094D0A4E10C53368210028007022984733680422210006489847064BB0
:403540001D60064B1C70064B1C6070BD347A02088043020838C902086443020820C90208FCC80208014BD8607047C04664430208F0B50700160085B00C000420019301F057
:403580004DFD114B00901A68D36CDD199E19176D019B3C19FF1802AB18001D809E805C80DF8002F083FF002804D1009801F036FD05B0F0BD3B0032002100280001F0B0FD3D
:4035C00002F0C4FEEFE7C04664430208002110B50800FFF71BFF034A034813000100FFF7C7FF10BDFF3F000001C0FFFF024BDA6FD86742607047C046347A0208084B10B556
:403600001A68002A0AD101321A60FEF767F9FEF79FF90448044B0360FFF7E8FF10BDC046347A0208B47A02082135081070B5FFF7E5FF2E22314B1A70FEF786F9304C314DA5
:403640002100314B0C3123672B681A1DDA630432A2619B631B645B7C2C4A9B009858C3681B6B98472A4B6366EB6823622B680833A36101232377E37703F08CF82300032202
:4036800068331A70234BE064606F6363A36302F00BF8A86802F010F81F4A204B1A6001F065FF050002F044F9060002F047F9002E01D0002808D102F02BF9060002F02DF956
:4036C0000100300002F02EF900210800FFF7DEFE02F0BAFFA36F002B0AD0A36F002B07D01B68002B00D09847A36F5B68A367F4E701220B4B28001A7070BDC046F1C8020877
:40370000347A02086443020818B2081038C9020810B20810785634FF70B2081030C9020818C902080300002083420ADC054A9B009858002805D0C3681B68002B01D0006879
:40374000F7E7704738C9020810B5FFF739FA10BDF8B506000D0017001C1E01DD00201BE01C20FFF707FB0028F8D0002D01D005610BE00A4BA200D358002B06D01A68002AA2
:4037800001D01300FAE71B690361002384618782C660036043608360F8BDC04638C9020883690C499A0010B554580368A04204D15350002B01D000225A604268002A00D0E9
:4037C00013600368002B00D05A6000230360436010BDC04638C9020830B5002801D101203BE08269002AFADC1C4B19788A4201DB012119701A49920053580D00002B02D133
:403800005050180029E05968002901D00B00FAE7C1680968DC6824688C4203DD1B68002BF8D1DCE78C420AD1848A012C07D11C68002C04D02300E4682468A142F7DD59681B
:40384000002902D00860416000E0A85058600022984200D01A000260002030BDE9C8020838C9020870B51C00FFF772FF051E0AD0FFF7B2FFEB681B68002B04D1034B1634DF
:403880001B68A400E550280070BDC04664430208F0B5040087B0002800D17BE003F0BEF83D4D02902B6822229B5E039303F0A0F82A6883B20093938C00995B1A938423787D
:4038C000002B5AD03549200003F014F901000600200003F039F9304B1A680323918D19400300012905D00023022902D1C30F1B185B10518C04ADCB1A9BB219B25184298053
:4039000081B2019101395B18AB802423D35E6A4617896B80013BFB182A0020003100EB8003F040F91C4D04AB5B882A6820009384310000F0B1FB241823780A2B01D00D2B30
:4039400012D103212B689A8D0A40013A012A02D86A46928900E01A8C5A8422780A2A09D19A8CBF189F8405E004AA1088019A2B68101858842378002B0AD10321064B009AF8
:403980001B68988C10189A8D98848A439A8501E0013494E707B0F0BD64430208FF7F000010B5034B1B6859849A84FFF771FF10BD6443020810B51F4A030012680020927E95
:4039C000013A032A35D8100005F08CF8020F1D25194A0633134004D51022013B524213430133D80F00210B220AE0144A134004D50422013B52421343013300210122D80FCE
:403A00009A42484115E01421180005F09FF801200B2909DC0DE01821180005F097F801200B2906DD042399430023103988425B41180010BD644302080F00008003000080A2
:403A40008023000530B5000D1B010021984202DD104A013180188022D200904200DD181A3F23402482111840201A0B4D83B25000405B5843A34207D0102A05D001325200EF
:403A8000525BE31A5343C01820308009002900D0404230BD00F8FFFF2CB20810802310B5DB00C018FFF7CCFF10BD0000F0B587B002910299141A5F1A210001900C9D394390
:403AC00003D1029903F0BCF8BFE0F917E61778184840A11971400026049688420BDD21003C000F0011001A000B00019902980291012101900491E0172118414001200390F9
:403B0000A14208D00293019B01921A0001235B4264427F4203932E68002F3FD14C4B04991B6800291BD09B7E3700002B13D10199029801F0CFFA88E03800FFF73BFF002849
:403B400008D1019B0298991B414BC9191B681B6E5B6898470137BB1BA342EDDD1BE0997E3700002914D11B6E02991B68019898476BE03800FFF71EFF002808D1019B029965
:403B8000981B334BC0191B681B6E5B6898470137BB1B9C42EDDA013F2F6056E0E30F1B195B10002F00DA5B42294A1268927E002A19D11D00019E019BF31A9C4245DB2100C9
:403BC000280004F0B5FF029B049AC018204B31001B681B6E5B68002A01D10100300098470136ED19E7E7039A013201D1A6192E60019E0593019B2868F31A9C421CDB039B8E
:403C000018182860FFF7D6FE002810D12100059804F08EFF029B049AC0180D4B31001B681B6E5B68002A01D1010030009847059B0136DB190593DDE7039B013301D104195B
:403C40002C602B68039A9B1A2B6007B0F0BDC04664430208F0B58BB00593634B03901B6804921E7E0F00012E05D1109B0093059BFFF71CFFB5E0039B049A991A059BF81A86
:403C80000B00034300D1ACE00024013EA14201DA49420134002802DA022340421C43814204DA04231C430B00010018004B108002181804F03DFF10254C4983119C4680061D
:403CC00022315B00000F5B5E2D1A6B43102D05D0624601325200525E50431B180F220833DD171540ED182D11630702D58023DB005D1BE30702D580231B015D1BA30702D5FC
:403D000080235B015D1B8023DB00ED182800FFF7C5FE704304002800FFF792FE4643002C05DA80208000041BA412644203E080239B00E418A412002E05DA80208000861B73
:403D4000B612764203E080239B00F618B612002C02DD621C521005E0E20F1219013CE00F521004196410002E02DD731C5B1005E0F30F9B19013EF00F5B1086196946898916
:403D800092B206A894468A1802809DB2BAB2531943806B467610B6B2921BC2801A8A9B8AA4B29E1BEB18C3810023091B141B624481800481828146811A00042100F062F887
:403DC000094C23685B7E002B03D13900039802F037FF23685B7E002B03D10599049802F02FFF0BB0F0BDC046644302082CB208101FB50024039403AC0094FFF72BFF1FBD6F
:403E0000F7B51F000B4B00901B68002001911600DD6C1C6D02F04AFB00280AD001990098E319AA1961182818FFF7E2FF02F08EFAF2E7F7BD64430208F7B511490A68019138
:403E40000B2A1BDC002A01DC002311E0019B00251C1D5300E41813005E1EB446AE1EA75F874205DB634667533500002BF4D1EBE701995B00CB18013298800A60F7BDC0460D
:403E8000C47A0208F0B587B00292002204936E4B039001936D4B059105998A420DDA0398910041180220095E8B4200DD0B000198884200DA01910132EEE7654A1268516995
:403EC00000290ED006200A5E0498121A0198904200DD019202228A5E0499521A934200DA1300049A9B180093009B049A9C1A019BA34200DAA6E00025564B039E1D60059B7B
:403F00009D425CDA059B00215F1EBD4200DA691C0223F25E039B8900591802200B5E94461800A24239D1A34203D000212A008C461EE00023F75E029BFF180023C85E029B73
:403F40003A00C018424B1B681B6E1B68874221DA0200009938001EE0002A0CD0013A0398910041180220095EA14206D101218C446745F1DC20E03A00F1E7091B1B1B00227C
:403F8000B05E59404BD4029BC0180200304B1B681B6E1B68009998470EE0A3420CD002DBA2423FDD02E0A24206DB01E0A34203DC9A423DDCA2421FDD013504369FE700247B
:403FC00020002500234B1A68954212DA04336A00D65E002C08D0029B00999A1918181C4B1B681B6E1B689847012330005C40ED18E8E7009B013376E7A342DDDB0023F75EFD
:404000000023C95E63466246C91BE31A4B43811A4810002B13DDC01804F08AFDC019FFF70BFFC9E79A42E9DDA342C5DCA242C3DB0027CF5F9C460020315E1000E2E70138EA
:40404000181AE9E707B0F0BD01C0FFFFFF3F000064430208C47A0208044B10B51A68002A00D1186000F036F810BDC046E07A0208F8B5084F06683B6804001B6830009847DB
:404080003B6805005B6830009847301820602800F8BDC04630C9020870B506000D000024002D08D0054B30001B68013D5B68984736182418F4E7200070BDC04630C90208D9
:4040C0000078704701207047012070470170012070470000034B10B51B68002B00D0984710BDC046407B02080200FF231100000A194010B51840120C40181340C01880308A
:40410000FF30024904F014FD10BDC046FD020000002800D000487047FFFFFF0001207047F7B58068C46A856B624307245218D2080192026A0C409200002D18D080212141A7
:40414000CCB2A446C94301248218151F019E2D68AD192F783E000E40234201D066463E436400043A2E70E4B29042EED117E001210D00A540ECB2A446ED438218141F019EB2
:404180002468A41927783E002E400B4201D066463E434900043A2670C9B29042EED1F7BD70B5072584680D40E36AA06B5A43236A5218D2089B00002810D080212941002025
:4041C000CDB20121E318043B1E68B65C2E4200D008434900C9B29C42F5D10EE001210E00AE40E318F5B2043B1E68B65C2E4200D008434900C9B29C42F5D170BDF8B50D00FA
:4042000016000400FFF7CCFF070023699B6898473B003200434029002000FFF781FFF8BDF0B580688BB00090066AC06A5B1A42435F1CA44B5218D2081B68019003920098EF
:404240001A7C806BD20779D50722082311405B1A002839D0F8321000DD1B0841AA40C4B21040C2B238009F4200DD1800381A009D0190B00028189F4200DB221CD3B29C46CD
:40428000FF25031F039A1B689B183A00002905D064461A7862401A70019A0133072A05DD1E78083AF6431E700133F7E7002A06D00824A21A2C0094401E7866401E70009B65
:4042C00004388342DDD1FAE0FF221000DD1B88402A41C4B21040C2B238009F4200DD1800381A009D0190B00028189F4200DB221CD3B29C46FF25031F039A1B689B183A006D
:40430000002905D064461A7862401A70019A0133072A05DD1E78083AF6431E700133F7E7002A06D00824A21A2C0014411E7866401E70009B04388342DDD1C0E00722DB6BF8
:4043400011401B68FF22019308230491591A130000285AD00498CC1B0341A2401A40D8B2D3B23A008F4200DD0A00BA1A09928F4200DB031CDAB2DB435BB2089301230792CF
:404380000293013E009AB300D458039B3D00E418049B002B0BD02278089B019902981340014201D0079B1343099D23700134072D14DD029A0199444B11404A1E91412B4016
:4043C0000593059A414B49421B68D2102000C9B206929847069BE418059BED1A002D0DD0082321785D1BF733AB400A000198029D9A43284201D00B43DAB22270029B5B009B
:40440000DBB20293002EBCD159E00498CC1B834022411A40D8B2D3B23A008F4200DD0A00BA1A09928F4200DB031CDAB2DB435BB20893012307920293013E009AB300D458CC
:40444000039B3D00E418049B002B0BD02278089B019902981340014201D0079B1343099D23700134072D14DD029A0199164B11404A1E91412B400593059A144B49421B682C
:40448000D2102000C9B206929847069BE418059BED1A002D0DD0082321785D1BF7332B410A000198029D9A43284201D00B43DAB22270029B5B00DBB20293002EBCD10BB092
:4044C000F0BDC04664430208F8FF000080430208F8B505000E0014001F00069B9C4207DC22003B0031002800FFF79AFE0134F4E7F8BD002382680B804B80D36A013B8B804F
:40450000136B013BCB80704700B58368481E0D2818D804F0E7FA090B0D0F17171711131A1A070707002011E0586A0FE0986A0DE0D86A0BE0186B09E0186A07E001201B6A84
:40454000984003E00120404200E0012000BD000009390020062902D8014B8900C858704798B2081010B501290FD1094B1B68587CFFF7D8F803699B68984701F01EFA054BBF
:40458000012803D0044B082800D00023180010BD644302080CB3081080B3081010B5002206218069FDF70CFA10BD10B5002205218069FDF705FA10BD73B504000E00150012
:4045C00000210822684604F0F1FA6A460321A06900960195FDF7F4F973BD0000F7B51D000F4B14001B6806001A7C0F00D20708D5A54213DB220039003000FFF7FFFD013427
:40460000F6E7DB6B1B680193AC4207DC2200019B39003000FFF784FD0134F5E7F7BDC04664430208F0B591B00193179B0390581E06910592072801D900F05EFC04F05CFA55
:40464000230021005C041F005C045C045C0408000723069A1340802211001941C9B29A40099101219940D3B2199A0A939446019BC9B263440293059B07910893FBE2059BE9
:4046800050E2059BB0E11A9A069B9446634409930723099A134080221A41D2B20A9201229A40D3B20C93059B0793059A079B9B1A169A9A4201DC00F01FFC1B9BBE4C5B68A0
:4046C0000693039B9B680293D96A1A6A079B5943099BC918CB08049303232168087C1840022800D1A1E0984200D10FE1012800D10CE11B9B06981B680893834210D1CB6B20
:40470000089A1D681A60099A019B09999B18013B079A0398FFF784FD2368DB6B1D6043E1029B92009B6B002B3ED00127029B9E1808990FAA394011700699049B394051702E
:40474000321F12680A99D218019B1A989C46199B0B936346002B20D08025054113780D930B9B1C782C40651EAC410FAD2D5D0D9C8C43002D01D00D9C0C43013014700828D6
:4047800003D10B9801300B900020490801D10132803101235B429C44DBE7029B7A00043ED7B2B342C4D1FFE00127029B9E1808990FAA394011700699049B39405170321F49
:4047C00011681A98C918019B0C9A9C46199B0B936346002B22D0802505410B780D930B9B1C782C40651EAC410FAD2D5D0D9C9443002D01D00D9C144301300C70082803D1D8
:404800000B9801300B9000205200D2B2002A01D10131013201235B429C44D9E7029B7A00043ED7B2B342C2D1BEE0029B92009B6B002B34D0029B9A1801230893089B069995
:404840000A9819400B91111F0968049B019D1A9C199EC918002D19D08023234137783B4209D00B781F009C460B9B8743002B01D0674607430F700134082C01D10024013657
:40488000400801D101318030013DE3E7089B043A5900CBB20893029B9342CFD184E0029B9A18012308930899069B019D0B40111F08680B93049B0C991A9C199EC018002DFF
:4048C0001BD08023234137783B4209D003781F009C460B9B8F43002B01D067460F4307700134082C01D1002401364900C9B2002901D101300131013DE1E7089B043A590063
:40490000CBB20893029B9342CDD14DE0029B92009B6B002B23D0029B9A18111F0968049B0A9C019D1A98199EC918002D12D08023034137783B4202D00F7867400F700130E0
:40494000082801D100200136640801D101318034013DEAE7029B043A9342DED124E0029B9A18111F0868049B0C99019D1A9C199EC018002D14D08023234137783B4202D01C
:4049800007784F4007700134082C01D1002401364900C9B2002901D101300131013DE8E7029B043A9342DCD1189A199B944663441993079B013377E6644302081A9A199B71
:4049C000944603221C78069B63440493C34B1B681B7C134010D0022B4DD0189A199B944663441993029B01330293059A029B9B1A169A9A42E2DC7FE21B9B1A9D199E04994A
:404A0000002B23D003235A1B5200DB18981ABA3303412340D3401B9A9B009B580398029A01354F1CFFF77CFB042D02D1002574780136019B049A39009B189F42E2D1CCE7DE
:404A4000019B049A39009B189F42C6D003235A1B5200DB18981ABA3303412340D3400398029A01354F1CFFF75BFB042DE8D1747800250136E4E71B9B1A9D019E199F002B50
:404A800027D0019B049A991803235A1B5200DB18981ABA3303412340891BD34006D01B9A9B009B580398029AFFF73AFB0135042D02D100257C780137013E002EE1D18CE79F
:404AC0000135042D02D100257C780137013E002E83D0019B049A991803235A1B5200DB18981ABA3303412340891BD340E8D0029A0398FFF715FBE3E71A9A199B944603227D
:404B00001F78069B63440493744B1B681B7C134010D0022B4DD0189A199B944663441993029B01330293059A029B9B1A169A9A42E2DCE1E11B9B1A9C199D0499002B23D0D6
:404B400001231A1B9200CE180333981AEC3303413B40D3401B9A9B009B580398029A0134FFF7DEFA022C02D100246F780135019B049A31009B189E42E2D1CCE7049B019A2E
:404B800031009B189E42C6D001231A1B9200CE180333981AEC3303413B40D3400398029A0134FFF7BDFA022CE8D16F7800240135E4E71B9B1A9C019D199E002B27D0019B66
:404BC000049A991801231A1B92000333981AEC3303413B40491BD34006D01B9A9B009B580398029AFFF79CFA0134022C02D1002477780136013D002DE1D18CE70134022CEF
:404C000002D1002477780136013D002D83D0049B019A991801231A1B92000333981AEC3303413B40491BD340E8D0029A0398FFF777FAE3E7039B08989B680193019A1B6A71
:404C4000D16A4143069809180320C9080491234909680B91097C014014D0022900D1ABE0189A199B944663441993089B01330893029B63440293059A089B9B1A169A9A4222
:404C8000D8DC39E1019A1B98916B9B0000284ED0002925D00124D318191F04980968199D09180998029A954211D02E780F781B9AB600B2583E008643224201D03E00064357
:404CC0000E70400801D1013180300135EAE7019A6400043BE4B29A42DED1C1E7644302080124019AD318191F0868049A199D07998018029A954213D02E7807781B9AB600B6
:404D0000B2583E008E43224201D03E000E434900C9B20670002901D1013001310135E8E7019A6400043BE4B29A42DCD198E7019A0124D318002938D0191F0968049A199D44
:404D400009988918029A95420ED00F782A783E008643224201D03E0006430E70400801D1013180300135EDE7019A6400043BE4B29A42E1D174E707782A783E008E432242DF
:404D800001D03E000E434900C9B20670002901D1013001310135029A9542ECD1019A6400043BE4B29A4200D15AE7191F0868049A199D80180799EEE7019A9B00916B1B9AE3
:404DC000002A4FD0019A0124D318002937D0191F0968049A199D09988918029A954213D02E78002E0AD00F781B9AB600B2583E008643224201D03E0006430E70400801D1F5
:404E0000013180300135E8E7019A6400043BE4B29A42DCD124E72E78002E17D14900C9B2002901D1013001310135029A9542F2D1019A6400043BE4B29A4200D110E7191F29
:404E40000868049A199D80180799EEE707781B9AB600B2583E008E43224201D03E000E430670DBE7019A0124D318002934D0191F0968049A199D0A988918029A954210D0F7
:404E80002A78002A07D00F783E008643144201D03E0006430E70400801D1013180300135EBE7019A6400043BE4B29A42DFD1D7E62A78002A17D14900C9B2002901D10130D0
:404EC00001310135029A9542F2D1019A6400043BE4B29A4200D1C3E6191F0868049A199D80180799EEE707783E008E43144201D03E000E430670DEE711B0F0BD70B5056862
:404F00000400002D0AD13C20FDF734FF2060002804D0044B3C221B682900984720684342584170BD8043020870B504000830FFF7E5FF002205000121A069FCF741FD284365
:404F400070BD73B504000D00160000210822684603F02CFE20000830FFF7D0FFA368002B0CD05A6B002A00D15D635D629E626A460721A06900950196FCF722FD73BD70B5BD
:404F8000050008300C001600FFF7B8FFAB68002B02D0DC621E635C6370BDF7B50500002708300E000197FFF7A9FFAC68BC4213D02B699B68984700F0C7FC3B002062F258B1
:404FC000E2500433202BFAD1E36A01AA63630221A8690196FCF7F4FCF7BD70B5040008300D00FFF78BFFA368002B01D02A689A6370BD000070B5084B1B681A7C110041403E
:40500000490705D59C6BD96B25680E6826600D601874100070BDC0466443020810B5024B1B689B68984710BD7443020870B5144B05001B680A000A20195E91421EDC0E20CE
:40504000195E8A421ADC0820195EA94216DC0C20195E8D4212DC5C7C187C0A49A400C00705D508592900C368DB69984706E00859DB6BC1681B688C692900A04770BDC046CE
:405080006443020838C9020870B5104B0D001C680A21635EAB4217DC0E21635E9D4213DC0823E15E814200DA01000C20235E934200DD1300994207DC627C0548920010583C
:4050C000C26894682A00A04770BDC0466443020838C9020870B5104B15001C680822A35E834218DC0C22A35E984214DC0A23E25E8A4200DA0A000E21635EAB4200DD2B0092
:405100009A4208DC617C054C89000D59E968CC6801002800A04770BD6443020838C9020873B51E00114B0D001C680823E15E814200DA01000C20235E934200DD13008B429A
:4051400013DB0A20225EAA4200DA2A000E20255EB54200DD3500AA4207DC607C044C80000059C46800952469A04773BD6443020838C90208F0B517006E4A91B01268069330
:4051800008900C001C9B002A10D01B9B05931A9B0493199B0393189B0293179B0193169B00931568069B3A00A847C1E016991798014301294FD1604A069D10680A21425E70
:4051C000111B002909DD6D1A002D00DCB0E0199E71431A9E71181A9100E02200069964180E26815F013C641A002C03DD2D1B002D00DC9DE008990C26845FC9190139091B41
:40520000002900DD7F1A08990826845FC91AA1420CDA641A1B199C46DE101A9B3F1B9E191A9607266346B44309193340002F7FDD407C424C800000591B9EC46804931A9B38
:4052400005960393199B00950293189B019364683B00A0476CE00823160018990A925B1A0E930A9B069A934262DA179BE3180C93013B0D93304B1B680A215A5E0D998A4229
:405280004CDC0E229B5E9C4248DC00251A9B09950B93089B0793099BBB423FDA002D04D10B9B08351E7801330B9333000E9A1899134132008A40D6B2DAB26D1A002A05D1CA
:4052C00002211D4A1268127C0A421ED11A4A1268D26B11680F911B99002905D0FF210B401B999B005B5801E0FF210B401360169B21005A1E079B0798D2180D9BFFF710FFAD
:405300000D4B0F9A1B68DB6B1A60169A099B944601330993079B63440793BCE7199A0A9B944601330A931A9B0C9C63441A9398E711B0F0BDF4C802086443020838C9020882
:40534000F0B593B008937E4B06001B680C0006921A9D1C9F002B0ED01D9A049705921B9A02950392199A0192189A00921D68069A089BA847E1E0189A19990A43012A6DD153
:40538000704B19680A228B5E089A9C461B1B002B07DDD21A002A00DCCFE01B984343FF1800E0A446089BE4180E200B5E013CE41A002C03DD121B002A00DCBEE0069B0C24F9
:4053C000085FF318013B1B1A002B02DD0698C31A06930823C85E0023864228DA069C831BE41A0694082D1FD009DC022D0FD0042D15D0012D1BD1D8103F1807200AE0182DBA
:4054000011D0202D0FD0102D11D15B000CE098103F1803201C0084433619034007E058103F180120F6E79B00FF18060000230698002800DC81E0497C4348890008581D9CEE
:40544000C16804931B9B009202930594039701954C68069B62463100A0476EE00822521B109207930C930C9B089A934265DA199BE3180E93013B0F93324B1B680A215A5E83
:405480000F998A4252DC0E229B5E9C424EDC00230D9709960A930B930B9B069A934245DA0A9B002B07D10D9B1B7807930D9B01330D9308230A93079B109A1341079AAA4052
:4054C000D2B207920A9A521B0A92DAB2002A05D102211C4A1268127C0A421ED1194A1268D26B116811911D99002905D0FF210B401D999B005B5801E0FF210B401360189BC0
:4055000021005A1E099B0998D2180F9BFFF708FE0C4B119A1B68DB6B1A60189A0B9B944601330B93099B63440993B5E70C9B0E9C01330C931B9BFF1895E713B0F0BDC0464E
:40554000F4C802086443020838C9020810B5054B054A19684B7C08319B009858C3681B6B984710BD6443020838C9020807B5FFF7EDFF00F0B7F800283AD1FEF7D3F801905F
:40558000002807D100F006F91A4A1B4B12689A420ED12CE0C3680C215B6A01A8984703000120002B24D0019898470028EAD01FE00020FEF7B7F80190002818D0002001F03A
:4055C00053FB0420FFF72AFD00210C4B08001A00FFF7A6FD0020FFF721FD019B0E21DB6801A85B6A9847031E01D00198984700200EBDC046A87A0208785634FFFF3F000094
:4056000010B5054B054A1B685B7C9B009B581B691B68984710BDC0466443020838C9020810B5054B054A1B685B7C9B009B581B695B68984710BDC0466443020838C90208A8
:40564000044B1B681A7C520701D59B6B00E0DB6B1860704764430208054B10B51B681A6B824204D01863FFF7CBFFFFF7E9FF10BD64430208044B1B681A7C520701D5DB6B5E
:4056800000E09B6B1860704764430208054B10B51B685A6B824204D05863FFF7B1FFFFF7E9FF10BD6443020810B5024B1B685B68984710BD7443020810B5024B1B681B6895
:4056C000984710BD7443020810B5044C2068FDF777FA0023024A2360136010BD44C90208487B020870B500240A4D2B68A3420FD1094B18688000FDF73DFB2860A04206D06D
:405700000648074B04300360FDF770FF00E00124200070BD44C9020878430208487B0208C9560810F7B5051E28D08768381E25D0134C2068002821D080232A685B000020EC
:405740009A421BDC0F4B00921B689A4200DD00930026009B9E420ADA2268B300D218F8580192FFF74DFF019B01361860F1E7064B1B68002B01D0280098472068FEBDC04687
:4057800044C9020878430208487B020810B5FFF7C9FF10BDF7B500F025F900240090009B9C422EDA2000FDF7BDFF002827D0154E200033685A7C5C74019200F056F808284D
:4057C00004DD6A46336812795A7418E00E4AA300D2580E4B12699A42F3D0200000F04AF800250700BD42ECDAFF202840FFF718FFE9B20200200000F01FF90135F2E70134B4
:40580000CDE7F7BD6443020838C90208F4B20810024B1B689B6B18687047C04664430208024B1B68DB6B18687047C0466443020810B50C00FDF776FF002803D0C26821003E
:40584000926A904710BD002310B5984202DCFFF7EFFF0300180010BD10B501000020FFF7E7FFC343DB17184010BD10B50821FFF7EAFF10BD10B50921FFF7E5FF10BD10B548
:405880000E21FFF7E0FF10BD10B5034B1B68587CFFF7F0FF10BDC0466443020810B5034B1B68587CFFF7EBFF10BDC04664430208044B800010B5C0580821C3689B6A984792
:4058C00010BDC04638C9020810B5FDF72BFF002803D0C2680221D26A904710BD10B5034B1B68587CFFF7F0FF10BDC04664430208024B8000C3581B695868704738C90208FE
:40590000024B8000C3581B691868704738C9020810B50120FFF7A0FF10BD10B50220FFF79BFF10BD014B03C37047C046547B0208014B18687047C046547B0208014B586817
:405940007047C046547B02080023984233D0020001339A432FD003220100013391432AD00100053399431300002924D002000C339A430B3B002A1ED002001B339A431A3B14
:40598000002A18D00200FA339A43F73B002A12D0420A0833002A0ED0020B0CD0C20B0AD0020C08D0820C0233002A04D0000E0633002800D008331800704710B5FFF7C4FFFE
:4059C000030001280DD0821E0820062A09D9073A0018072A05D900200F22113B9A424041400110BD10B50020FDF79CFE431E984110BD00000E4B10B51C001A680D49527CFA
:405A000092005058002809D0C368002B02D01B68042B01D00068F5E7FDF7C2FE00222368DA651A0008325A61FFF790FD10BDC0466443020838C9020837B50C001500FDF77A
:405A400071FE0190002801D101200BE0C36810215B6A01A89847031EF6D001982A002100984700203EBD37B50C001500FDF75AFE0190002801D101200BE0C3680B215B6AA6
:405A800001A89847031EF6D001982A002100984700203EBD13B50C00FDF744FE0190002801D101200AE0C36809215B6A01A89847031EF6D0019821009847002016BD37B5F8
:405AC0000C001500FDF72EFE0190002801D101200BE0C3680A215B6A01A89847031EF6D001982A002100984700203EBD10B5074C2368186BFFF784FDFFF7A2FD2368586BE6
:405B0000FFF77EFDFFF7B6FD10BDC0466443020870B50024134B144D1C60144B14481C60144B04701C60144B44601C60134B84601C60134B21001C60124B18221C600C3036
:405B40002B689847104B21001C60104B08221C600F482B6898472B68082221000D48984770BDC04674C90208804302085CC902085C7B02087CC9020884C902084CC90208C3
:405B80006CC9020878C9020858C9020850C9020890C9020888C90208F0B504000D00160085B0002C50D02000FDF720F80223876A010001901F4241D002AC002E04D03200DA
:405BC000200000F0E1FE02E0230005C905C321002800FDF723FC002830D00122019B17421FD1002E09D05A887188131C08B212B2824200DA0B1C1BB201E002229B5E02224C
:405C0000A95E06202A5E8B4205DD0221635E9A4214DB013B03E00621635E9A420EDDEB800CE0DF69002F09D0380022002900FFF7B3FF3800FCF7D0FF076AF3E7019B01A827
:405C40001C6AFCF7E3FFACE705B0F0BDF0B504000F00002687B00192002C39D02000FCF7C5FF0223856A010003901D422AD0019B04AC002B04D01A00200000F085FE02E045
:405C8000230005C905C321003800FDF7C7FB002818D001231D4204D1A388012601333B8010E0039BDD69002D0CD0220039002800FFF7CCFF002800D001262800FCF78CFF8D
:405CC000056AF0E7039B03A81C6AFCF79FFFC3E7300007B0F0BDF0B504000E00170085B0002C34D02000FCF781FF0223856A010001901D4225D002AC002F04D03A002000F5
:405D000000F042FE02E0230005C905C321003000FDF784FB002814D001231D4203D12388013BB3800DE0019BDD69002D09D0280022003100FFF7CFFF2800FCF74DFF056A6D
:405D4000F3E7019B01A81C6AFCF760FFC8E705B0F0BD0000F7B506000D0002272800FCF745FF846A010001903C4004D101A8FCF74DFF230013E0300000F0E8FD019B01A8BB
:405D80009C69002C07D1FCF741FF064B1868401B4342434103E0FCF739FF2500DEE71800FEBDC04650C90208F0B5040085B00D1E4DD0FCF71BFF0023019003628561280024
:405DC000FCF714FFC6690290002E05D1C46101A8FCF71CFF02A838E0019B30009D6A0827FCF704FF3D4003900ED1836A3B420BD0019B01A81E62029BDC61FCF707FF02A8CC
:405E0000FCF704FF03A820E002A8FCF7FFFE03A8FCF7FCFE3000FCF7DFFE08270390039B1E6A002E01D11C620EE03000FCF7D4FE002D07D1836A3B4204D0039B1C62019B4B
:405E40001E6201E00390EAE701A8FCF7DFFE05B0F0BD030010B5080002215A5E0021595EFDF7C3FA10BD0000114B30B51D6885B0696C0400002916D0082202A802F070FE6A
:405E80000C4B1868002800D1A86CFCF7AFFE02A90190FFF7DEFF01A8FCF7B8FE02A8210000F054FD02A802F0EBFC05B030BDC046644302084CC902081FB5104B1B681A002A
:405EC00054321278002A02D00D48143012E0986CFCF78CFE02AC2300019006C806C301A8FCF794FE074B1968002902D02000FFF731FF2000FFF7B8FF1FBDC04664430208EF
:405F00005C7B02084CC9020813B5041E22D0FCF76DFE836A01909B0719D5406A002808D00D4B1B689C4204D000F020FF0022019B5A62200000F034FC0400002C07D02000F2
:405F4000FFF7E2FF2000FCF747FE046AF5E701A8FCF75CFE13BDC04680C9020803000022815E04201A5E0020914207DC02215A5E0621595ED00FCB17914258417047000076
:405F8000F0B585B004000E001500FCF725FE876A0190BB0730D53000FFF7E0FF00282BD0164B3B40012B27D02000FCF71FFE02AC020001903100200000F0E6FC2000FFF7B0
:405FC000CDFF002815D0019B0D4918009A6A08300A4204D022000100FDF7D6F909E042CC42C02A439A62074A138801331380FEF771F801A8FCF70AFE05B0F0BD01080000FA
:406000002040000060C9020810B52022FFF7B8FF10BD7FB504000E001500002828D0FCF7E5FD836A020001909B0703D401A8FCF7EDFD1DE0310002A800F0A6FC0028F5D026
:4060400001A8FCF7E3FD20002A0002A9FFF798FF200000F0A5FB0400002C09D020002A0002A9FFF7D6FF2000FCF7B6FD046AF3E77FBD0000F0B587B007000D0001921C00C0
:40608000002932D00800FCF7B1FD866A02000390B30727D5390004A800F076FC002821D0134B1E40012E07D1039923000A6A04A88969FFF7DFFF04E0220004A92800FFF738
:4060C0005FFF039BDD69002D0CD0019B9D4209D02800220004A9FFF79CFF2800FCF77CFD056AF0E703A8FCF791FD07B0F0BDC0460108000010B52023FFF7BCFF10BD1FB5A6
:4061000000916946019000F011FB05B000BD00234B800B80028883889B1A8B80C38842889B1ACB8070470000F0B5050087B00F00002835D0FCF75AFD866A0190B3072CD5E3
:4061400004AC230006C806C3F30302D52800FFF7DBFE002F0CD00822390002A802F000FD02A90198FFF775FE02A9200000F0EEFB29002000FFF7EEFD00280ED0094B1E40B7
:40618000012E06D1019B20001A6A9969FFF7B2FF03E021002800FFF737FF01A8FCF736FD07B0F0BD0108000010B50021FFF7BCFF10BD000070B50B4C051E23689E6C01D1F2
:4061C000094A15689D64FFF7C1F92800FCF704FD23680021425EDA640221425E30001A6570BDC0466443020864C90208F0B585B00193494B05001F680A9B0E000092002BED
:4062000027D1464B1B88002B28D0454B1B685A1C012A23D90A930A98FCF7E8FC03900022835E0222815E009AED187618002A04D10424025FD21A531C0093019B002B04D171
:406240000622835E5B1A0133019303A8FCF7DEFC04E00A9B0133DED100230A930D982C30FCF76EFE041E53D02C4A0B9B1F43138801331380FCF7BAFC009B02900580ED184F
:40628000019B4680F6180C9B826A0361254B013D3B401343013E83628580C68002A8FCF7B5FC214B1868002809D0FCF795FC05002000FCF791FC6B6943616C6100E01C6084
:4062C0000A992000FFF770FDBB0602D52000FFF771FFFB0703D5154A1368013313607B0602D5200000F06AFA02252F420CD02000FCF77CFC836A02902B43836202A8FCF7C5
:4063000085FC2000FFF750FF01212000FFF7F7FE200005B0F0BDC0466CC9020848C9020850C902089F3F3F0064C9020884C902081FB5089C0394079C0294069C01940024F7
:406340000094FFF753FF04B010BD00000020F0B5534E85B0336854331B78834200D19DE0504A136A1500012B02DD013B136295E002AC2100D36914320133936081CA81C1FB
:40638000002B03D1AB892380EB890DE02B8B01331BB22380EA8A628010216A5E9A4204DAAB8923806B8B013363800223E25E12216B5E9A4204DD2B6A0020013B2B626DE076
:4063C0003368986CFCF712FC0023E25E0C216B5E01909A4217D16B8AE3802B8AA38033689A6C002A0AD01000FCF7F6FB070000222100006AFFF7D0FBBA69F2E7019B210058
:40640000D869FFF7C9FB2388A38033689A6C002A0CD01000FCF7E0FB002207002100006AFFF714FC0028EED1BA69F0E7019B2100D869FFF70BFC0028E5D11022AB5E00213E
:40644000625EA3809A4208DD2B002200143303CA03C301A8FCF7DAFBA2E733689A6C002A0AD01000FCF7B8FB060000222100006AFFF731FCB269F2E7019B2100D869FFF73E
:406480002AFC01A8FCF7C2FB074BEA699A4292DC14350CCC0CC5FFF70FFD012005B0F0BD644302085C7B0208204E0000F0B53B4D89B02A680700130054331B78002B03D1CC
:4064C000FFF7FAFC012066E00120354E336A34000133336283425EDC906CFCF787FB01235B42F3612F4B02901B78002B02D004AB083005E00223826A1A4001920AD004AB97
:4065000006C806C304AE002F0CD03900300000F01DFA07E0336A02A8013B3362FCF776FB019838E02B68204F596C02A8002918D0029B082206A8039302F012FB3B68002B29
:4065400006D003A8FCF762FB3868FCF74FFB039006A90398FFF77DFC300006A900F0F6F903A8FCF753FB3968002904D03000FFF7F1FB002806D02B683000996CFFF7EAFB26
:40658000002803D1236A013B236204E00C340CCE0CC4FFF7DBFE09B0F0BDC046644302085C7B020869C902084CC902080122024B1B6854331A7070476443020810B5040066
:4065C00023684068172B0FD007DC0E2B0ED0142B12D1E16800F0CEF80EE0222B0AD0282B0AD1FFF7E1FD09E0E06007E0210000F025F903E0024B00E00023E36010BDC0468D
:40660000785634FF036810B504000E2B02D00F2B08D010E0C3685A68012A0FD11868FDF71BFD0BE0064B1868064B984203D0FCF71BFFFCF7CBFF2000FFF7C0FF10BDC04668
:4066400070C90208785634FF30B51B4C85B0207800282ED1194BA0601860194B01001B685864184B1880184B188004230293174B019302230093164B1A00FFF759FE154B8E
:40668000154A164D1A602860FFF78EFD144800F069F8144800F066F82868FFF78BFDFFF785FF0123200023700F4B24306362FCF79DFF05B030BDC0465C7B020864C902081D
:4066C0006443020860C9020848C9020805660810FF3F000070C90208785634FF50C9020890C9020888C90208115B081010B500F05EF80023984202D0FCF76EFAC3691800B8
:4067000010BD70B50500FFF7F1FF0400002C0AD0AC4207D02000FCF75FFA036A9D4202D01C00F3E70024200070BD000070B50C4C060023680D00132B11DCFCF74DFA0269D1
:406740006E60002A08D0236828000133236090472368013B236002E02800FFF72FFF70BD8C7B0208024B1A68026018607047C04674C9020813B50C0000280AD0002908D0CE
:40678000FCF734FA21000190FFF7C1FC01A8FCF73DFA13BD014B18687047C04650C9020810B5002802D0FCF717FAC06910BD10B5002802D0FCF710FA806910BDF0B5040030
:4067C00089B0002838D0FCF711FA0200039006AB22CA22C3836A076A03A80193FCF716FA2000FFF78EFF051E26D02000FFF7DFFF019B06009B0704D501003A0006A8FFF7CF
:4068000079FC2000FCF7F2F903903000FCF7EEF905902800FCF7EAF9059B039AD96907620490116203A8DC61FCF7F0F905A8FCF7EDF904A8FCF7EAF909B0F0BD70B505006A
:406840000C1E07D0FFF7B3FF002803D0A5602100FFF76CFF70BD0000F7B505000E000120002D66DC334F7B683C00002B01D028009847012E04D0022E20D0002E58D133E040
:40688000AF00E719BC68002C14D12800FCF74AFF019000284CD0C3680D215B6A01A89847031E45D0310001989847BB6820000133BB603EE0601CB86030003AE02800FCF78D
:4068C00031FF0190002833D0C3680D215B6A01A89847051E2CD02368002B00D0984702210198A847002024E0AF00E3199B68012B01D0012014E02800FCF714FF019000280C
:40690000F7D0C3680D215B6A01A89847051EF0D02368002B00D0984700210198A8470020E719BB681A00511E8A419B1ABB6000E00120FEBD907B020810B5034B01001B682A
:40694000587CFFF789FF10BD6443020810B500228B5E0024025F9A4200DA038002228B5E0224025F9A4200DA438004228B5E0424025F9A4200DD838006228B5E0621425E80
:406980009A4200DDC38010BDF7B513880D881C1C2EB21BB2B34200DA2C1C0480538825B24C881E1C27B21BB2BB4200DA261C4680938834B28E881F1C1BB2019333B29C46F3
:4069C000019B634500DD371C8780D388C9883EB21A1C0FB21BB2BB4200DD0A1CC28011B20020B54203DCE00FCB17A1425841FEBD094B1A680C23918D0B40082B08D00C2B09
:406A000006D00020042B06D1D369187E013802E0D369187E4008704764430208024B1B68DB69587E7047C04664430208034B10B51B680021DB695B68984710BD6443020878
:406A4000034B10B51B68DB695B68984710BDC046644302087047000037B5224B00911B6801906946150098471F4C019023685869002808D10120FFF75FFF2268D3695B6976
:406A8000002B06D125E02900FCF7C8FC0028F1D127E0164C9B682168002908D02225555F01980099984723682800984716E000990198984712E001A8FDF7DAFA2368050077
:406AC000DB691B6898470A4B1B68002B01D028009847009B013B0093002BECDA0020FFF72BFF37BD844302086443020808C9020814C9020837B50D000190002815D00B4A56
:406B00001268D2695469002C0CD06468002C09D0A0470AE001A8FDF7ABFA002804D00A2802D00134AC42F5DB20003EBD6443020813B5002401A90194FFF782FF019B984220
:406B400000DA1C1A200016BD37B5144B009101901B6869469847019000281ED0104A1268D2695469002C02D02468002C01D1250002E00099A04710E0009B013B0093002B8D
:406B800007DB01A8FDF774FA0400FFF74FFF2D18F2E72000FFF7CCFF28183EBD8443020864430208244B73B51B680E0005001100002B0CD00020FFF779FC00283BD06A4631
:406BC00031002800FFF748FFFFF7C0FBF5E70822684601F0C5FF194C68462168CB6C9AB26B461B88D31803800B6D41889BB259184180818852188280C2889B18C380FFF799
:406C000055FC2368002808D15A8CD96C521A5A84196D9A8C521A9A840DE06A46128831005A846A46528828009A846A46FFF714FFFFF78CFBE5E773BDF4C80208644302080D
:406C400010B5084B1B681A7E012A03D11B6E5B68984705E0013AD30F9A18521001F0CEFE10BDC0466443020870B5084D04002B685E7C002807D1FCF755FD002803D02B68A2
:406C80005C74FCF7E9FB300070BDC0466443020810B5FEF7F9FD802208235200904215D0013B7F2812D8013B3F280FD8013B1F280CD8013B0F2809D8013B072806D8013BFC
:406CC000032803D8013B83429B415B4201209840013810BD70B50400FEF7D6FD0500FEF7FDFD0023A54203D9984201D0A4002358180070BDF7B50700FEF7C6FD0190FEF74A
:406D0000EDFD051E1BD000208300EB58BB4216D0019B01308342F7DC00263400084B0093A300E9583800FCF7F9FA009B834201D926000090019B0134A342F1DC3000FEBD8D
:406D4000FFFFFF0013B50024A0420CD0FBF74EFF036801901B699B689847FEF72EFE040001A8FBF753FF200016BD000013B5041E19D00D4B1B68DB6D984201D1FCF76CFBCA
:406D80002000FBF733FF01904069002801D001F094F9019B1868FCF7D7FC01A8FBF736FF2000FBF753FF13BD644302080248012900D000207047C0460CB3081002481629C6
:406DC00000D000207047C0466D81081010B50068C3681B6A984710BD10B50068C3689B6A984710BD13B580680C00FBF7FFFE01900422835E23800622815E618002899A1843
:406E0000013AA280438901A8CB18013BE380FBF7FDFE13BD0F4BF7B51B680700D86D16000C00FBF7E3FE050001900422835E0622805EEA68241A5443FB1ADF101834002E2F
:406E400002D007229A43326001A8FBF7DFFE38192818FEBD6443020807B50800110001AAFFF7D8FF019B00781841012318400EBD30B5144B85B01B680C00D86D1500FBF7DE
:406E8000B5FE03AA019029002000FFF7C3FF0123039A9340027853400370019B586900280AD0FBF7A3FE836802901B682A002100984702A8FBF7AAFE01A8FBF7A7FE05B077
:406EC00030BDC046644302087FB51E00154B0C001B681500D86DFBF789FE03AA019029002000FFF797FF01231900039A3340914002788A43027003998B4013430370019B24
:406F0000586900280AD0FBF771FE836802901B682A002100984702A8FBF778FE01A8FBF775FE7FBD64430208F0B587B000932B4B0E001B681400D86DFBF758FE0023039029
:406F40004069984202D0FBF751FE030005AA210030000493FFF75EFF01231F001F4905000968059A087C974018421BD02B787B402B700498002804D0836822001B683100DC
:406F80009847039B0134DB68ED18009B9C42EDDD03A8FBF73BFE049B002B1DD004A8FBF735FE19E0C96B09680B40934001932B78019ABB4313432B700498002804D0836836
:406FC00022001B6831009847039B0134DB68ED18009BA342EBDADBE707B0F0BD64430208F0B51C00524B8BB01B680591D86D1700FBF7FCFD059B0790E41A4069631C0393B9
:40700000002822D0FBF7F2FD109B3A00DB1B013300930599039B089001F061F808A8FBF7F5FD12E009AA39000598FFF7F3FE040001203F4B099A1B68197C014232D0039B52
:40704000062A11DD002B14DC0137109B9F42E9DD69E0002B0BD0511E0991012191400A002178013B4A402270099A002AF1DA0134E8E7DA1008D0D1005B1AA2182178C94304
:40708000217001349442F9D107220992013BDBD3099A511E0991012191400A0021784A402270F3E70121DB6B039D1B6819400491062A15DC099B002B11DB002D0FD0012200
:4070C0009A402378013D93432370099B5A1E0992049A9A401300227813432370EAE70134002DB1DDEE100AD0049B32005942114B2000C9B21B689847A419F600AD1B0723AC
:407100000993013DA0D30122099B9A40237893432370099B5A1E0992049A9A401300227813432370EDE707A8FBF770FD0BB0F0BD644302088043020807B50092FFF750FF3D
:4071400007BD0000F0B595B00593B94B04901B680C00D86D0792FBF749FD109043690020834202D01800FBF741FD1E9B1190E318039300280BD0AE4B1B681B7C9B0706D1C7
:407180001A9B079A00930399059B00F0A8FF1B9B082B72D11D9B039A079C9B1A0693079B1A9AE31A9A4200DC7EE0A14B1F9A1B68109E1B7C002A2FD00322134003D0022B2A
:4071C00054D1039D19E0039D3268069BD2685B5D97691F9A9B009B58290022000498B847059B039A01359B18AB42EDD13EE0059B039A01359B189D4238D0069B5B5D002B57
:40720000F5D032689B00D268290097691F9A04989B582200B847EAE70322134003D0022B24D1039D16E0039D3268069BD2685B5D9769290022000498B847059B039A01358E
