:020000041008E2
:4000000000780408F90208100D00000061030810610308106103081061030810000000000000000000000000000000005D0308105D030810000000005D0308105D0308104C
:400040005D0308105D0308105D0308105D0308105D0308105D0308105D0308105D0308105D0308105D0308105D0308105D0308105D0308105D0308105D0308105D03081000
:400080005D0308105D0308105D0308105D0308105D0308105D0308105D0308105D0308105D0308105D0308105D0308105D0308105D0308105D0308105D0308105D030810C0
:4000C0005D0308105D0308105D0308105D0308105D0308105D0308105D0308105D0308105D0308105D0308105D0308105D0308105D0308105D0308105D0308105D03081080
:400100005D0308105D0308105D0308105D0308105D0308105D0308105D0308105D0308105D0308105D0308105D0308105D0308105D0308105D0308105D0308105D0308103F
:400140005D0308105D0308105D0308105D0308105D0308105D0308105D0308105D0308105D0308105D0308105D0308105D0308105D0308105D0308105D0308105D030810FF
:400180005D0308105D0308105D0308105D0308105D0308105D0308105D0308105D0308105D0308105D0308105D0308105D0308105D0308105D0308105D0308105D030810BF
:4001C0005D0308105D0308105D0308105D0308105D0308105D0308105D0308105D0308105D0308105D0308105D0308105D0308105D0308105D0308105D0308105D0308107F
:400200005D0308105D0308105D0308105D0308105D0308105D0308105D0308105D0308105D0308105D0308105D0308105D0308105D0308105D0308105D0308105D0308103E
:400240005D0308105D0308105D0308105D0308105D0308105D0308105D0308105D0308105D0308105D0308105D0308105D0308105D0308105D0308105D0308105D030810FE
:400280005D0308105D0308105D03081010B5054C237833B9044B13B10448AFF300800123237010BD14540208000000004CDB0810084B10B51BB108490848AFF3008008488C
:4002C000036803B910BD074B002BFBD0BDE81040184700BF00000000185402084CDB0810E44C0208000000007047EFF3108072B6704780F310887047FFF7F6FF72B6114C86
:40030000114DAC4209DA21686268A368043BA2BFC858D050FAE70C34F3E70C490C4A00209142BCBF41F8040BFAE70A480A490860BFF34F8F01F02CF900F078FF00F03AFFD0
:40034000FEE7000050DB081068DB081014540208D4D402080040020808ED00E0FEE7FEE700B504207146084202D0EFF3098001E0EFF30880043004F0E1FAFEE780B483B03C
:4003800000AF0346FB80B7F90630002B0BDB0949B7F906305B09FA8802F01F02012000FA02F241F8232000BF0C37BD465DF8047B704700BF00E100E080B483B000AF0346A8
:4003C000FB80B7F90630002B0CDB0949B7F906305B09FA8802F01F02012000FA02F2603341F8232000BF0C37BD465DF8047B704700E100E080B483B000AF786039607B6880
:400400003A689A6000BF0C37BD465DF8047B704780B483B000AF786039607B683A681A6100BF0C37BD465DF8047B704780B485B000AFF860B9607A60FA68BB689B0113449E
:4004400003F598737A681A60FA68BB689B01134403F598731B6800BF1437BD465DF8047B704700BF80B485B000AFF860B9607A60FA68BB689B01134403F58A737A681A609C
:4004800000BF1437BD465DF8047B704780B485B000AFF860B9607A60FA68BB689B01134403F586737A681A6000BF1437BD465DF8047B704780B584B000AF03460A46FB71C7
:4004C0001346BB7102F06AFCF860BB79FA79F968074802F0CFF8064AFB681046194641F2B0631A460AF0BEFC00BF1037BD4680BD3054020880B500AF002005F03BF96FF095
:400500007F4005F033F905F0E3F901210120FFF7D1FF00BF80BD00BF80B582B000AF03237B60314B1B681A4607213048FFF7AEFF00BF04F0EBFB0346002B23D004F0CEFBD0
:400540000346002B1ED004F0D5FB0346002BF0D118E0254B1B681A4607212448FFF796FF214B1B685A1C224B83FB02135911D317CB1A642101FB03F3D31A1B4A13601420A8
:4005800004F0A0F904F0C2FB0346002BE1D004F0A5FB0346002B03D1164B01221A6020E004F0A8FB0346002B03D1124B03221A6017E0104B1B68012B03D00E4B1B68032B45
:4005C00003D10C4B00221A600BE00B4B1B680133094A1360084B1B68032B02D1054B02221A600837BD4680BD8C420208000038401F85EB51E46A0208E06A0208F0B5A3B05E
:4006000000AFFFF777FF624B1C4607F1500604F1300E35462346186859689A68DB680FC5103410367445F4D15A4B07F138041D4628686968AA68EB680FC42869696903C4CA
:40064000554B07F118041D460FCD0FC495E80F0084E80F00514B3C461D460FCD0FC495E8030084E803009623FE2214210A2005F001F9C8231E2214211E2005F043FD9623DB
:40068000FA2296211E2005F03DFD0023C7F884302EE0D7F884309B0007F18802134453F8700CD7F884309B0007F18802134453F8702C9B23962105F025FD07F15001D7F816
:4006C000842013465B0013445B00C818D7F884309B0007F18802134453F8703C0A3B9B22194605F0DFFAD7F884300133C7F88430D7F88430072BCCDD0023C7F8803030E0C9
:40070000D7F880309B0007F18802134453F8883CC3F1AA01D7F880309B0007F18802134453F8883CC3F1AA031E22192005F0EAFC07F13802D7F880309B00D018D7F88030EE
:400740009B0007F18802134453F8883CC3F1A4031A46052105F0A6FAD7F880300133C7F88030D7F88030052BCADD0D4B1B68013B0C4A52F833300C4A136001210020FFF7ED
:4007800099FE0A4B01221A7000BF8C37BD46F0BDF4B8081024B908103CB908105CB9081090420208B8860208EC6A0208E86A0208F0B5A5B000AFFFF79DFE002004F0DAFF74
:4007C0006FF07F4004F0D2FF002005F005F8002005F00CF87B4B1C4607F1540604F1300E35462346186859689A68DB680FC5103410367445F4D1744B07F13C041D4628680E
:400800006968AA68EB680FC42869696903C46F4B07F11C041D460FCD0FC495E80F0084E80F006B4B3C1D1D460FCD0FC495E8030084E803009623FE2214210A2005F01AF84B
:40084000AA231E2214211E2005F05CFC9623FA2296211E2005F056FC0023C7F88C302EE0D7F88C309B0007F19002134453F8740CD7F88C309B0007F19002134453F8742C2A
:400880009B23962105F03EFC07F15401D7F88C2013465B0013445B00C818D7F88C309B0007F19002134453F8743C0A3B9B22194605F0F8F9D7F88C300133C7F88C30D7F834
:4008C0008C30072BCCDD0023C7F8883030E0D7F888309B0007F19002134453F88C3CC3F1AA01D7F888309B0007F19002134453F88C3CC3F1AA031E22192005F003FC07F166
:400900003C02D7F888309B00D018D7F888309B0007F19002134453F88C3CC3F1A4031A46052105F0BFF9D7F888300133C7F88830D7F88830052BCADD0123C7F8843033E091
:40094000D7F88430013B234A52F83330DA0F13445B1003F11E00D7F88430013B1D4ADB0013445B68DA0F13445B10C3F19601194AD7F8843052F83330DA0F13445B1003F19E
:400980001E04144AD7F88430DB0013445B68DA0F13445B10C3F19603224605F0B3FBD7F884300133C7F884300B4B1B68D7F884209A42C5DB01210020FFF77CFD00BF94370F
:4009C000BD46F0BDF4B8081024B908103CB908105CB90810B88602089042020880B588B000AFFFF787FD002004F0C4FE6FF07F4004F0BCFE002004F0EFFE002004F0F6FEEF
:400A000004F066FF0023FB6120E0464B1B684649652202FB03F2FB691344DB000B445A684249FB69DB000B445A603E4B1B683E49652202FB03F2FB69134451F833203B4961
:400A4000FB6941F83320FB690133FB61384B1B68FA699A42D9DB374804F090FE022004F0B1FE304B1B68304A4FF44A7101FB03F3134403F549731B6805228421184605F0BE
:400A800011F90023BB613FE0BB69002B0AD11E221421294805F006F91E226421274805F001F92EE0214ABB6952F8332007F10C03234918460AF03EFA1C4ABB69DB001344AE
:400AC0005A683B461E4918460AF034FABB695A1E13469B0013449B0003F1320207F10C031421184605F0DEF8BB695A1E13469B0013449B0003F132023B466421184605F0B4
:400B0000D1F8BB690133BB61094B1B68BA699A42BADB01210020FFF7CDFC00BF2037BD4680BD00BFE06A020894420208B88602089042020894BF081074B9081080B908109E
:400B400094B9081080B598B000AFFFF7D3FC002004F010FE6FF07F4004F008FE002004F03BFE002004F042FE04F0B2FE9B4804F005FE022004F026FE05228421984805F0EB
:400B800091F81923FB650023BB6501237B65954AFB6D5360934ABB6D136007F12403FA6D914918460AF0C6F907F124031E220A21184605F077F801210020FFF77BFC8EE077
:400BC000002387F84730002387F8533000BF04F09DF80346002B34D004F080F80346002B2FD004F087F80346002BF0D129E004F08DF80346002B03D1FB6D0133FB6502E0C8
:400C0000FB6D0A33FB65FB6DB3F5967F01DB1923FB653223C8221E210A2004F02BFE07F12403FA6D704918460AF084F907F124031E220A21184605F035F801210020FFF7F7
:400C400039FC04F063F80346002BD0D004F046F80346002BCBD002E0012387F8533004F049F80346002BF7D097F85330002B36D05C4A7B6DDB001344FA6D5A6007F12400E3
:400C8000FB6D7A6D59490AF055F97A6D13469B0013449B0003F1320207F124030A21184605F000F87B6D01337B651923FB653223C8221E210A2004F0DDFD07F12403FA6DDD
:400CC000494918460AF036F907F124031E220A21184604F0E7FF01210020FFF7EBFB7B6D052B7FF76DAFFFF705FC002004F042FD6FF07F4004F03AFD002004F06DFD002020
:400D000004F074FD04F0E4FD344804F037FD022004F058FD05228421354804F0C3FF3B1DBA6D344918460AF005F93B1D1E220A21184604F0B7FF01210020FFF7BBFB01233C
:400D40007B65BB6DFB6495E0002387F84630002387F84B3000BF03F0D9FF0346002B32D003F0BCFF0346002B2DD003F0C3FF0346002BF0D127E003F0C9FF0346002B03D14F
:400D8000BB6D0133BB6502E0BB6D0A33BB65BB6DB3F5C87F01DBFB6CBB653223C8221E210A2004F067FD3B1DBA6D124918460AF0C1F83B1D1E220A21184604F073FF012142
:400DC0000020FFF777FB03F0A1FF0346002BD2D003F084FF0346002BCDD010E094BF081098B90810B8860208B0B90810CCB90810E0B90810F0B90810012387F84B3003F08E
:400E000079FF0346002BF7D097F84B30002B31D059497B6DBA6D41F83320BB6DFB64381DBB6D7A6D55490AF085F87A6D13469B0013449B0003F132023B1D0A21184604F0C2
:400E400031FF7B6D01337B653223C8221E210A2004F010FD3B1DBA6D494918460AF06AF83B1D1E220A21184604F01CFF01210020FFF720FB7B6D052B7FF766AFFFF73AFB81
:400E8000002004F077FC6FF07F4004F06FFC002004F0A2FC002004F0A9FC04F019FD394804F06CFC022004F08DFC05226E21364804F0F8FE19220A21344804F0F3FE012136
:400EC0000020FFF7F7FA00BF03F020FF0346002B09D003F003FF0346002B04D003F00AFF0346002BF0D1002387F84A30002387F84930002387F8483002E0012387F84A300F
:400F000003F004FF0346002BF7D002E0012387F8493003F0E3FE0346002BF7D002E0012387F8483003F0E6FE0346002BF7D097F84A30002B06D0164B00221A60154B0022DB
:400F40001A6014E097F84930002B06D0104B01221A60104B00221A6009E097F84830002B05D00B4B03221A600A4B00221A6000BF6037BD4680BD00BFB886020804BA0810C2
:400F8000F0B9081094BF081018BA081040BA0810E46A0208E06A020880B582B000AFFFF7A9FA002004F0E6FB6FF07F4004F0DEFB002004F011FC002004F018FC04F088FC0D
:400FC000204804F0DBFB022004F0FCFB052284211D4804F067FE01210020FFF76BFA00BF03F094FE0346002B04D003F077FE0346002BF5D10023FB710023BB7101E001237A
:40100000FB7103F083FE0346002BF8D001E00123BB7103F063FE0346002BF8D0FB79002B02D0FFF78FFD08E0BB79002B05D0074B00221A60064B00221A6000BF0837BD46E8
:4010400080BD00BF94BF08105CBA0810E46A0208E06A020890B585B000AF012201213548FFF7E4F9344B1B78002B5FD00023FB604FF49673BB600A237B6009F021FF0246B7
:40108000B968FB68CB1A013392FBF3F103FB01F3D21AFB681344294A1360294B1A687B68D31ADA0F13445B1003F11E00254B1B68DA0F13445B10C3F19601214B1B68DA0F60
:4010C00013445B1003F11E041C4B1B68DA0F13445B10C3F19603224605F014F801210020FFF7E8F9154B1B68164A1360144B1A687B681344124A136003F008FE0346002BA7
:4011000005D00F4B1A68104B1B689A420EDB0A4B00221A700A4A7B6813600A4B00221A60064B00221A60094B00221A6000BF1437BD4690BD00003840E86A0208F06A020850
:401140000C4C0208F46A0208EC6A0208E06A020880B500AF1249134801F0B8FE114BB3F900301846FFF728F90E4BB3F900301846FFF704F962B60C4A01210C4802F01AFD90
:4011800002210A48FFF736F9094A01210748FFF769F902210548FFF73BF900BF80BD00BF55100810D4BB081048BF0810000038403F420F0080B500AFFFF7CAFF03F070FDD6
:4011C00004F0B6FB142001F01FFA012001F02CFA144B1B7883F00103DBB2002BF8D0124B1B68002B04D1FFF7F9FBFFF795F9EFE70D4B1B68012B04D1FFF700FAFFF78CF980
:40120000E6E7094B1B68022B02D1FFF7C5FEDFE7054B1B68032BDBD1FFF7CAFAFFF77CF9D6E700BFE86A0208E46A020880B500AF124A124BD3F8803123F0404343F08043E4
:40124000C2F880310D4A0D4BD3F8803143F00043C2F88031094A094BD3F8803123F00103C2F8803100F00CF800F012F801F0A0FD01F0A8FD03F05AFA00BF80BD0000264097
:4012800080B400AF00BFBD465DF8047B704700BF80B491B000AFB04BD3F8803303F00F037B63AD4A7B6BD03352F8233003F007033B633B6B042B3AD801A252F823F000BF01
:4012C000D5120810DB120810E1120810E7120810EF120810A14BFB632CE0A14BFB6329E09F4BFB6326E09F4B1B68FB6322E09A4A7B6BC03352F8233003F01F03FB62FB6AC0
:40130000112B07D0132B09D0102B0BD14FF4FA43FB630BE04FF40043FB6307E04FF40043FB6303E04FF4FA43FB6300BF02E08C4BFB6300BF7B6B002B60D1874BD3F89035FA
:4013400003F00103002B14BF0123002387F82B30814BD3F8883503F040531B0F032B0CBF0123002387F82A307B4BD3F8883503F040531B0F002B07D0774BD3F8883503F0FD
:4013800040531B0F012B01D1012300E0002387F8293097F8293003F0010387F8293097F82930002B03D097F82B30002B03D197F82A30002B1FD0684BD3F88035C3F31103ED
:4013C0007B62654BD3F88435C3F30C033B62624BD3F8803503F080731B0E0133FB61FA6B3B6AB2FBF3F37A6A02FB03F2FB69B2FBF3F3BB6360E0FB6BBB635DE07B6B012B13
:4014000058D1554BD3F8403603F00103002B14BF01230023FB76504BD3F8003603F040531B0F032B0CBF01230023BB764A4BD3F8003603F040531B0F002B07D0464BD3F894
:40144000003603F040531B0F012B01D1012300E000237B767B7E03F001037B767B7E002B02D0FB7E002B02D1BB7E002B1FD03A4BD3F8003603F07F037B61374BD3F8003675
:4014800003F4F8531B0A3B61334BD3F8003603F4F8131B0CFB60FB6B7A6902FB03F23B69B2FBF3F2FB68B2FBF3F3BB6304E0FB6BBB6301E0FB6BBB63274BD3F8803303F0F1
:4014C00030031B09BA6B22FA03F3BB63264ABB6B1360264BD3F8903003F47F431B0A0133BB60224B1B6903F07F431B0E01337B60BA6B7B68B2FBF3F31D4A1360BA6BBB6873
:40150000B2FBF3F3BB631B4ABB6B1360194B1B68194A1360184B1B6803F5742303F23F23164AA2FB03239B0CDAB2154B1A70124B1B6803F2E733134AA2FB03239B09124A24
:401540001360114B1B68DB03104A136000BF4437BD465DF8047B70470000264000127A0000366E011C4C0208144C020800002140184C0208104C0208204C020883DE1B43C9
:40158000284C0208D34D6210244C02082C4C020880B582B000AFFEF7A8FE7860094A094BD3F8883043F47003C2F88830BFF34F8FBFF36F8F7868FEF79CFE00BF0837BD46A0
:4015C00080BD00BF00ED00E080B584B000AFF860B9607A60BB68072B04D940F2E7210E4803F098F97B68012B04D94FF43A710A4803F090F97B68002B05D10122BB689A40CD
:40160000FB685A6004E00122BB689A40FB689A6000BF1037BD4680BD80BA081080B582B000AF03463960FB711346BB80002203211248FFF7C9FF702001F088FAFB79184669
:4016400001F084FA012203210C48FFF7BDFF002203210A48FFF7B8FF722001F077FABB881946386801F0C0FA012203210348FFF7ABFF00BF0837BD4680BD00BF00063240E1
:4016800080B582B000AF03460A46FB711346BB71B91DFB7901221846FFF7C0FF00BF0837BD4680BD80B584B000AF03460A46FB711346BB71002203211348FFF785FF70207F
:4016C00001F044FAFB79184601F040FA012203210D48FFF779FF002203210B48FFF774FF732001F033FABB79184601F053FA0346FB73012203210448FFF766FFFB7B1846B8
:401700001037BD4680BD00BF0006324080B500AF002202211048FFF757FF002206210F48FFF752FF002204210C48FFF74DFF01F0D7F9002203210A48FFF746FF0022022181
:401740000648FFF741FF002205210448FFF73CFF01F0AAF900BF80BD00003240800232400006324080B582B000AF0023FB806F220021464809F09CFB454B464A1A60464B03
:40178000464A1A60464B474A1A6001F08DF906E001F094F90346032B01D9012371E001F04BFA0346002BF3D101F094F900217220FFF778FF034603F00F03022B01D0022365
:4017C0005FE040210220FFF75BFF00210F20FFF769FF03465BB2002B01DB032351E002210B20FFF74DFF08222F490120FFF716FFD1210720FFF744FF02210820FFF740FF45
:40180000C2210920FFF73CFF03210420FFF738FF01210320FFF734FF00210320FFF730FF0A2003F04FF801210520FFF729FF642003F048F803210520FFF722FF322003F0FA
:4018400041F80F210520FFF71BFF322003F03AF800210F20FFF726FF034603F04003002B04D040210220FFF70BFF04E0FB885A1CFA80042BD7D1FB88032B01D9052300E026
:40188000002318460837BD4680BD00BF006B0208746B0208016B0208786B02084E6B02087C6B0208226B0208C4BA081080B485B000AF0346FB7197F9073013F1090F03DA3A
:4018C0004FF49663FB812FE097F9073013F1040F03DA4FF46173FB8126E097F90730052B03DC4FF41673FB811EE097F907300A2B03DC4FF4A573FB8116E097F907300F2B08
:4019000002DCDC23FB810FE097F90730142B02DCB423FB8108E097F90730282B02DC5A23FB8101E03C23FB81054AFB891380054AFB89138000BF1437BD465DF8047B70472F
:40194000706B0208726B020890B587B000AF78600B46FB700023FB817B681B787B747B68002B04D101233B74FF237B740AE07B68A64A934204D101233B7400237B7401E0E4
:4019800000233B7401F090F80023BB8211E3BA8A1346DB009B1A1B019B1A9D4A13446F220021184609F084FABA8A1346DB009B1A1B019B1A964A13440133964A1360BA8AC5
:4019C0001346DB009B1A1B019B1A4833904A13440633914A1360BA8A1346DB009B1A1B019B1A20338A4A134402338C4A136021237B827B8A013B7B820023FB82B1E23B7C97
:401A000083F00103DBB2002B04D07B685A1C7A601B787B74FB78032B00F2A08201A252F823F000BF351A0810791B0810CF1C0810111E0810784B1A68FB8A13447A7C02F014
:401A40004002002A01D0C02200E080221A70724B1A68FB8A1344704A1168FA8A0A44127851B27A7C02F01002002A01D0302200E020220A4352B2D2B21A70674B1A68FB8A0D
:401A80001344654A1168FA8A0A44127851B27A7C02F00402002A01D00C2200E008220A4352B2D2B21A705C4B1A68FB8A13445A4A1168FA8A0A44127851B27A7C02F001025C
:401AC000002A01D0032200E002220A4352B2D2B21A70504B1A687B8A134497F91120002A01DA032200E002221A704A4B1A687B8A1344484A11687A8A0A44127851B27A7C1E
:401B000002F02002002A01D00C2200E008220A4352B2D2B21A703F4B1A687B8A13443D4A11687A8A0A44127851B27A7C02F00802002A01D0302200E020220A4352B2D2B282
:401B40001A70344B1A687B8A591E798219460A44304909680B441B7859B27B7C03F00203002B02D06FF03F0301E06FF07F030B435BB2DBB21370F1E1274B1A68FB8A134483
:401B80007A7C02F04002002A01D0802200E040221A70214B1A68FB8A13441F4A1168FA8A0A44127851B27A7C02F01002002A01D0202200E010220A4352B2D2B21A70164B7E
:401BC0001A68FB8A1344144A1168FA8A0A44127851B27A7C02F00402002A01D0082200E004220A4352B2D2B21A700B4B1A68FB8A1344094A1168FA8A0A44127851B27A7C04
:401C000002F00102002A0BD002220AE0FFFF0F10E8860208746B0208786B02087C6B020801220A4352B2D2B21A709E4B1A687B8A134497F91120002A01DA022200E001220A
:401C40001A70984B1A687B8A1344964A11687A8A0A44127851B27A7C02F02002002A01D0082200E004220A4352B2D2B21A708D4B1A687B8A13448B4A11687A8A0A4412786D
:401C800051B27A7C02F00802002A01D0202200E010220A4352B2D2B21A70824B1A687B8A591E798219460A447E4909680B441B7859B27B7C03F00203002B02D06FF07F031C
:401CC00000E040230B435BB2DBB2137046E1764B1A68FB8A13447A7C02F04002002A01D0C02200E040221A706F4B1A68FB8A13446D4A1168FA8A0A44127851B27A7C02F08E
:401D00001002002A01D0302200E010220A4352B2D2B21A70644B1A68FB8A1344624A1168FA8A0A44127851B27A7C02F00402002A01D00C2200E004220A4352B2D2B21A70C6
:401D4000594B1A68FB8A1344574A1168FA8A0A44127851B27A7C02F00102002A01D0032200E001220A4352B2D2B21A704D4B1A687B8A134497F91120002A01DA032200E03A
:401D800001221A70474B1A687B8A1344454A11687A8A0A44127851B27A7C02F02002002A01D00C2200E004220A4352B2D2B21A703C4B1A687B8A13443A4A11687A8A0A44D3
:401DC000127851B27A7C02F00802002A01D0302200E010220A4352B2D2B21A70314B1A687B8A591E798219460A442E4909680B441B7859B27B7C03F00203002B02D06FF064
:401E00003F0300E040230B435BB2DBB21370A5E0254B1A68FB8A13447A7C02F04002002A01D0802200E0C0221A701F4B1A68FB8A13441D4A1168FA8A0A44127851B27A7C4F
:401E400002F01002002A01D0202200E030220A4352B2D2B21A70144B1A68FB8A1344124A1168FA8A0A44127851B27A7C02F00402002A01D0082200E00C220A4352B2D2B2A9
:401E80001A70094B1A68FB8A1344074A1168FA8A0A44127851B27A7C02F00102002A05D0022204E0746B0208786B020803220A4352B2D2B21A70554B1A687B8A134497F963
:401EC0001120002A01DA022200E003221A704F4B1A687B8A13444D4A11687A8A0A44127851B27A7C02F02002002A01D0082200E00C220A4352B2D2B21A70444B1A687B8AE0
:401F00001344424A11687A8A0A44127851B27A7C02F00802002A01D0202200E030220A4352B2D2B21A70394B1A687B8A591E798219460A44354909680B441B7859B27B7CA9
:401F400003F00203002B02D06FF07F0301E06FF03F030B435BB2DBB2137000BFFB8A0133FB82FB8A202B7FF64AADBB8AC3F1B0039BB2FB81B7F90E309BB2013B9BB2FB81B8
:401F8000234B1B68B7F90E20921012B21A44B7F90E10204B0B40002B03DA013B63F0030301331BB219461C4B5B5C1370BB8A0133BB82BB8AAF2B7FF6EAAC0023BB8213E039
:401FC000BA8A1346DB009B1A1B019B1A134A13446F2219460A20FFF721FB07210220FFF74FFBBB8A0133BB82BB8AAF2BE8D90C4B1B881C4600F062FD03469C42DDD800F06C
:4020000069FD00BF1C37BD4690BD00BF746B02087C6B020803000080C0BA0810E8860208706B020890B587B000AF7860396000233B8200F039FDD2210920FFF721FB0023DA
:40204000BB825CE1BA8A1346DB009B1A1B019B1AAE4A13446F220021184608F029FFBA8A1346DB009B1A1B019B1AA84A13440133A74A1360BA8A1346DB009B1A1B019B1A8C
:402080004833A24A13440633A24A1360BA8A1346DB009B1A1B019B1A20339C4A134402339D4A136021237B827B8A013B7B820023FB82FCE07B685A1C7A601B78FB733B68DB
:4020C0005A1C3A601B78BB73924B1A68FB8A1A44F97BBB7B4B40DBB203F04003002B08D0BB7B03F04003002B01D0802302E0C02300E040231370874B1A68FB8A1A44854B35
:402100001968FB8A0B441B7859B2F87BBB7B4340DBB203F01003002B08D0BB7B03F01003002B01D0202302E0302300E010230B435BB2DBB21370774B1A68FB8A1A44754BD5
:402140001968FB8A0B441B7859B2F87BBB7B4340DBB203F00403002B08D0BB7B03F00403002B01D0082302E00C2300E004230B435BB2DBB21370674B1A68FB8A1A44654B15
:402180001968FB8A0B441B7859B2F87BBB7B4340DBB203F00103002B08D0BB7B03F00103002B01D0022302E0032300E001230B435BB2DBB21370564B1A687B8A1A44F97BBA
:4021C000BB7B4B40DBB25BB2002B07DA97F90E30002B01DA022302E0032300E0012313704B4B1A687B8A1A44494B19687B8A0B441B7859B2F87BBB7B4340DBB203F020039F
:40220000002B08D0BB7B03F02003002B01D0082302E00C2300E004230B435BB2DBB213703B4B1A687B8A1A44394B19687B8A0B441B7859B2F87BBB7B4340DBB203F008038C
:40224000002B08D0BB7B03F00803002B01D0202302E0302300E010230B435BB2DBB213702B4B1A687B8A591E798219460A44284909680B441B7859B2F87BBB7B4340DBB291
:4022800003F00203002B0AD0BB7B03F00203002B02D06FF07F0303E06FF03F0300E040230B435BB2DBB21370FB8A0133FB82FB8A202B7FF6FFAEBB8AC3F1B0039BB23B8205
:4022C000B7F910309BB2013B9BB23B82124B1B68B7F91020921012B21A44B7F910100F4B0B40002B03DA013B63F0030301331BB219460B4B5B5C1370BB8A0133BB82BB8ADA
:40230000AF2B7FF69FAE0023BB824CE0E8860208746B0208786B02087C6B020803000080C0BA0810BA8A1346DB009B1A1B019B1A274A13446F2219460A20FFF76FF90721BB
:402340000220FFF79DF9BB8AC3F1B0039BB23B82B7F910309BB2013B9BB23B82BA8AB7F910309B101BB2184619491346DB009B1A1B019B1A0B440344223300221A70BA8A75
:402380001346DB009B1A1B019B1A114A13446F2219460A20FFF742F907210220FFF770F9BB8A0133BB82BB8AAF2BBBD9094B1B881C4600F083FB03469C42A4D800F08AFB75
:4023C000C2210920FFF75CF900BF1C37BD4690BDE8860208726B020880B582B000AF0023FB800EE01D4B1A68FB88134455221A701B4B1A68FB88134455221A70FB880133E4
:40240000FB80FB88202BEDD90023FB801FE0154B1B68FA88920892B21344FA8802F0030211498A5C1A706F2210490A20FFF7F6F807210220FFF724F90A4B1B68FA889208CA
:4024400092B2134400221A70FB880133FB80FB88AF2BDCD900BF0837BD4680BD746B0208786B02087C6B0208C0BA0810006B020880B582B000AF0023FB7106E0FB790D4A6F
:402480000021D154FB790133FB71FB79152BF5D900210420FFF7F4F86F2206490A20FFF7BDF807210220FFF7EBF800BF0837BD4680BD00BF006B020880B500AF01220421A3
:4024C0001748FFF781F8142002F0FCF900F022FB012203211348FFF777F8012206211048FFF772F8012202210D48FFF76DF80A2002F0E8F9002202210948FFF765F80A20D7
:4025000002F0E0F9012202210548FFF75DF80A2002F0D8F9FFF726F90346184680BD00BF800232400006324080B500AFFFF754FFFFF79EFF1E2002F0C5F900220621304872
:40254000FFF742F8322002F0BDF9012206212C48FFF73AF800210F20FFF7A4F8034603F04003002B01D1042348E000210B20FFF787F801210320FFF783F803210520FFF7E8
:402580007FF801210520FFF77BF8322002F09AF980210420FFF774F800210520FFF770F801210720FFF76CF81E2002F08BF900F0C1FA002204211248FFF706F80022062172
:4025C0000F48FFF701F8142002F07CF9002203210C48FEF7F9FF002202210948FEF7F4FF012205210648FEF7EFFF1E2002F06AF9002205210248FEF7E7FF0023184680BDBD
:40260000800232400006324080B582B000AF0346FB71FFF77BF897F907301846FFF746F900BF0837BD4680BD80B584B000AF0346FB710023FB73FB79002B04D0FFF73CFF60
:402640000346FB7303E0FFF76FFF0346FB73FB7B002B02D10123FB7301E00023FB73FB7B002B14BF01230023DBB218461037BD4680BD00BF80B584B000AFF860B960114661
:402680001A460B46FB711346BB71BB79002B02D00120FFF7C9FFFB79002B04D1B968F868FFF7C0FC18E0FB79012B02D0FB79022B12D10021F868FFF747F9FB79012B07D1A4
:4026C0000121F868FFF740F90221B868FFF73CF90321B868FFF738F9BB79002B02D00020FFF7A2FF00BF1037BD4680BD80B483B000AF786039607B683A685A6000BF0C375A
:40270000BD465DF8047B704780B485B000AFF860B9607A60FA68BB689B01134403F584737A681A6000BF1437BD465DF8047B704780B483B000AF786039607A683B689B01A5
:40274000134403F584731B6818460C37BD465DF8047B704780B483B000AF78607B68D3F8403318460C37BD465DF8047B704700BF80B483B000AF78607B68D3F8043343F45A
:4027800080327B68C3F804237B68D3F8043323F480327B68C3F804237B68D3F8043300BF0C37BD465DF8047B704700BF80B483B000AF78607B68D3F80832C3F30803184606
:4027C0000C37BD465DF8047B704700BF80B483B000AF78607B68D3F8083203F40043DB0B18460C37BD465DF8047B704790B583B000AF78607868FFF7D9FF04467868FFF757
:40280000E5FF03462344002B0CBF01230023DBB218460C37BD4690BD80B483B000AF78607B68D3F8043243F480327B68C3F804227B68D3F8043223F480327B68C3F8042259
:402840007B68D3F8043200BF0C37BD465DF8047B704700BF80B483B000AF78607B68D3F8C02F40F66D33134018460C37BD465DF8047B704780B582B000AF786039603B6818
:4028800023F4366323F00D03002B04D040F2C331064802F03FF87B683A68C3F8C02F7B68D3F8C03F00BF0837BD4680BDCCBA081080B483B000AF78607B681B6843F0004228
:4028C0007B681A6000BF0C37BD465DF8047B704780B582B000AF78607868FFF7BBFF034603F06D0318460837BD4680BD80B582B000AF786039603B6823F06D03002B04D038
:4029000040F21E41054802F005F839687868FFF7B1FF00BF0837BD4680BD00BF10BB081080B582B000AF78607868FFF721FF00BF0837BD4680BD00BF80B582B000AF7860F4
:402940007868FFF753FF034618460837BD4680BD80B582B000AF78607868FFF75DFF00BF0837BD4680BD00BF80B582B000AF78607868FFF7EFFE034618460837BD4680BD15
:4029800080B582B000AF786039603968786801F04FFB034618460837BD4680BD80B584B000AFF860B9607A60BB68002B02D07B68002B04D140F2AB51054801F0ABFF7A6850
:4029C000B968F86801F0AAFB00BF1037BD4680BD10BB081080B582B000AF786039603B68082B04D940F2C621064801F093FF7B681A693B6822FA03F303F0010318460837C4
:402A0000BD4680BD50BB081080B584B000AFF860B9607A60BB68072B04D940F2E7210E4801F078FF7B68012B04D94FF43A710A4801F070FF7B68002B05D10122BB689A4016
:402A4000FB685A6004E00122BB689A40FB689A6000BF1037BD4680BD50BB081080B500AF01210248FFF742FE00BF80BD0000384080B582B000AF78607A6800210348FFF743
:402A800043FE00BF0837BD4680BD00BF0000384080B500AF00210348FFF74AFE0346184680BD00BF0000384080B500AF0020FFF7DFFF00F0C3F900BF80BD00BF80B582B011
:402AC00000AFFFF7E5FF78607B6818460837BD4680BD00BF80B500AFFFF7C0FF00BF80BD80B500AF074A0849084801F0B5FB0748FFF7DEFE012203210548FFF785FF00BFFC
:402B000080BD00BF3CD302081CBC0810000067400006324080B500AF012203210348FFF773FF0348FFF7C4FE00BF80BD000632400000674080B500AF0249034801F040FDCD
:402B400000BF80BD3CD302080000674080B582B000AF0346FB71FB7919460D48FFF710FF00BF0B48FFF7B4FE034603F00403002BF7D00748FFF7ECFE0548FFF7D1FE04214C
:402B80000348FFF7B3FE00BF0837BD4680BD00BF0000674080B584B000AF0346FB71FB7919461048FFF7ECFE00BF0E48FFF790FE034603F00403002BF7D00A48FFF7D4FEBF
:402BC0000346FB730748FFF7C3FE0648FFF7A8FE04210448FFF78AFEFB7B18461037BD4680BD00BF0000674080B582B000AF78600B467B807B881A4679680E48FFF7CEFEE8
:402C000000BF0C48FFF798FE034683F00103DBB2002BF6D10748FFF79BFE0648FFF780FE04210448FFF762FE7B8818460837BD4680BD00BF0000674080B500AF03210548B4
:402C4000FFF7C8FE0346002B01D0012300E00023184680BD8002324008B54FF48071034802F06EF9024802F0FFFD08BD806B020818D1081080B500AF00F010F800BF80BD3D
:402C800080B400AF044B1B680133034A136000BFBD465DF8047B704738D3020880B582B000AF2021002001F027FF00237B600DE0786801F09FFF0346002B04D10B497868A4
:402CC00001F07AFF05E07B6801337B607B68042BEED97B68042B03D9A421054801F01AFE01F036FF00BF0837BD4680BD812C081090BB081080B582B000AF01233B6000232D
:402D000000221849184802F02FFF78603B461946786804F0E4FA04F043FF0346002B0CD04FF48472B021002005F01FF84FF48472B021002005F045F80BE0B0224FF4847119
:402D4000002005F012F8B0224FF48471002005F038F80649002005F01FF800BF0837BD4680BD00BFA0D80810D4D80810304C020880B487B000AFF860B9607A60BB68012BDF
:402D800001D1002303E04FF0FF337B617B6918461C37BD465DF8047B704700BF80B400AF024B1846BD465DF8047B7047806C020880B500AF00220021042000F027FA00BFDF
:402DC00080BD00BF80B582B000AF084800F06EFC01F04FFE7860064800F07CFC786801F04CFE00BF0837BD4680BD00BF3083020898BB081080B500AF012000F00BFE00BF4E
:402E000080BD00BF80B483B000AF786039607B683A689A6000BF0C37BD465DF8047B704780B483B000AF786039607B683A689A6100BF0C37BD465DF8047B704780B500AF85
:402E40000A4B1B78002B07D1094A0021094800F0B1FE064B01221A7001210648FFF7D2FF01210448FFF7DCFF00BF80BDB084020850BC08100000384080B483B000AF03465A
:402E80003960FB80B7F90630002B0ADB0D49B7F906303A68D2B25201D2B20B4483F800230AE00949FB8803F00F03043B3A68D2B25201D2B20B441A7600BF0C37BD465DF8A9
:402EC000047B704700E100E000ED00E080B584B000AF786039600023FB607B68002B24D07B685B68072B03D93621134801F012FD7B68B3F900207B685B6819461046FFF79F
:402F0000BBFF0E4B9B680E4A934210D13B68002B03D14521084801F0FDFC7B68B3F900303968184600F010F801E0064BFB60FB6818461037BD4680BD9CBC081000ED00E063
:402F4000004002080100560080B584B000AF03463960FB80134B9B68134A934215D13B68002B03D1FC21114801F0D4FCB7F9063010330D4A52F82330FB60B7F90630103348
:402F800009493A6841F8232006E0B7F906301033074A52F82330FB60FB6818461037BD4680BD00BF00ED00E0004002089CBC08100000081080B582B000AF786039603B6879
:402FC0001B0C1B04002B04D040F29A21054801F0A1FC3B689AB27B689A6000BF0837BD4680BD00BFE0BC081080B582B000AF786039603B681B0C1B04002B04D040F2B321D2
:40300000054801F087FC3B689AB27B685A6000BF0837BD4680BD00BFE0BC081080B483B000AF786039607B683A68DA6000BF0C37BD465DF8047B704780B483B000AF7860CE
:403040007B68DB6818460C37BD465DF8047B704780B483B000AF78607B681B6903F00043DB0FDBB218460C37BD465DF8047B704780B483B000AF78607B681B6803F0004340
:40308000002B01DA002300E0034B18460C37BD465DF8047B704700BF01008A0080B584B000AF786039607868FFF7D2FF0346002B06D039687868FFF797FF0023FB6001E05A
:4030C000034BFB60FB6818461037BD4680BD00BF01008A0080B586B000AFF860B9607A60F868FFF7C5FF0346002B0AD17968F868FFF794FFB968F868FFF75CFF00237B612C
:4031000001E0034B7B617B6918461837BD4680BD01008A0080B584B000AF786039603B68002B03D199210C4801F0F4FB7868FFF78FFF0346002B08D07868FFF77DFF0246C5
:403140003B681A600023FB6001E0044BFB60FB6818461037BD4680BD20BD081001008A0080B582B000AF78607B680F2B04D940F2A911064801F0CEFB7B685B0103F180438F
:4031800003F50C1318460837BD4680BD60BD081080B483B000AF78607B68DB6818460C37BD465DF8047B704780B584B000AFF860B9607A607B68002B04D140F26A31074841
:4031C00001F0A8FB7B681A46B968F868FFF782FF034618461037BD4680BD00BF60BD081080B483B000AF78607B681B6803F00043002B01DA002300E0034B18460C37BD4659
:403200005DF8047B704700BF01008A0080B586B000AFF860B9607A60304B7B61FB680F2B02D92E4B7B6154E07B68002B0BD1BB68002B08D1F868FFF793FF0246284B1A60CE
:4032400000237B6145E07B68002B40D0BB68002B3DD0BB6803F01F03002B35D1F868FFF77FFF02461E4B1A601E4ABB6813601D4A7B6853601B4B5868BB68DB081A460021A1
:4032800007F016FE164B1B6800211846FFF706FF134B1B68134A00211846FFF785FF0346002B0ED10E4B1B6800211846FFF7F6FE0346002B02D100237B610AE00A4B7B6175
:4032C00007E0094B7B6104E0044B7B6101E0034B7B617B6918461837BD4680BD03018A00B4840208B884020801018A0080B588B000AF78600B46FB700023FB612F4BBB6165
:403300002F4B1B681846FFF743FF03467B617B691A687B689A4249D97B685B093B613B695B017A68D31A012202FA03F3FB60FB7883F00103DBB2002B02D001F09AFBF86119
:403340001F4B1B681846FFF74BFF0346002B23D17B695A683B699B0013441A68FB681340002B11D07B695A683B699B0013447A6951683A6992000A441168FA68D2430A4045
:403380001A600023BB6101E00E4BBB610C4B1B6800211846FFF782FEFB7883F00103DBB2002B05D0F86901F068FB01E0064BBB61BB6918462037BD4680BD00BF0301880051
:4033C000B48402080201880004018A0080B586B000AF7860164B1B681846FFF7D9FE03463B613B691A687B689A421AD97B685B09FB60FB685B017A68D31A012202FA03F36E
:40340000BB603B695A68FB689B0013441A68BB681340002B02D0074B7B6104E0064B7B6101E0064B7B617B6918461837BD4680BDB4840208010188000001880004018A00BF
:4034400080B483B000AF0346FB80B7F90630002B0BDB0949B7F906305B09FA8802F01F02012000FA02F241F8232000BF0C37BD465DF8047B704700BF00E100E080B582B048
:4034800000AF78607B680F2B04D940F2A911064801F040FA7B685B0103F1804303F50C1318460837BD4680BDA0BD081080B582B000AF78607B680F2B04D94FF4E2710548FC
:4034C00001F028FA7B685A01034B134418460837BD4680BDA0BD08100010234080B584B000AFF860B9607A607B681B0C1B04002B04D04FF4F1710C4801F00CFABB681B0C4C
:403500001B04002B04D040F2E311074801F002FA7B681A04BB689BB21A43FB689A6000BF1037BD4680BD00BFA0BD081080B483B000AF78607B68DB6818460C37BD465DF859
:40354000047B704780B483B000AF78607B681B6818460C37BD465DF8047B704780B584B000AFF860B9607A607B681B0C1B04002B04D04FF41E710D4801F0CCF9BB681B0CE0
:403580001B04002B04D040F27921084801F0C2F97B681A04BB689BB21A43FB681A60FB681B6800BF1037BD4680BD00BFA0BD081080B582B000AF786039603B681B0C1B04AA
:4035C000002B04D040F29A21054801F0A3F93B689AB27B689A6000BF0837BD4680BD00BFA0BD081080B483B000AF786039607B683A68DA6000BF0C37BD465DF8047B7047F1
:4036000080B483B000AF78607B681B6903F00043DB0FDBB218460C37BD465DF8047B704780B483B000AF78607B681B0C18460C37BD465DF8047B704780B483B000AF786044
:403640007B689BB218460C37BD465DF8047B704780B582B000AF786039603B68002B04D14FF46371054801F055F939687868FFF751FD034618460837BD4680BDA0BD0810BE
:4036800080B483B000AF78607B681B6803F00043002B01DA002300E0034B18460C37BD465DF8047B704700BF01008A0080B483B000AF7860064B1B68002B02D1044A7B68BF
:4036C000136000BF0C37BD465DF8047B704700BFC0840208B0B590B002AF78607B68002B03D15021344801F015F97B689B69072B03D95421304801F00DF97B68DB6A002B92
:4037000003D156212C4801F005F97B68DB68072B03D95721284801F0FDF87B681B6A072B03D95821244801F0F5F87B681B6B002B03D15921204801F0EDF87B6807F11C0485
:4037400003F114050FCD0FC42B6823607B6807F108041D460FCD0FC42B682360FB699BB219339BB21BB23B863B6A7B63B86A7B68D96A7B689A6AFC6A07F130030093234651
:4037800000F01CF87869BA690023009313460022002100F013F87B681A6B07F1300311461846FFF793FBB7F930301846FFF748FE00BF3837BD46B0BDE0BD081080B586B080
:4037C00000AFF860B9607A603B60294B1B68002B03D1B421274801F09DF8FB68072B03D9B521244801F096F8214B1A68FB682C2101FB03F313447B613B68DAB27B691A60F2
:403800003B681B0ADAB27B695A603B681A0C7B699A607B691B681846FFF730FE02467B691A617B695B681846FFF740FE02467B695A617B6958697B6999687B699B681A466E
:40384000FFF74CFE7B697A68DA617B69BA681A627B6900229A613B6A002B04D03B6AB3F900207B699A8100BF1837BD4680BD00BFC0840208E0BD081080B58AB000AFF860EA
:40388000B9607A603B607B68002B03D1FD213B4801F040F83A4B1B68002B03D1FE21374801F038F8FB68072B03D9FF21334801F031F8BB68072B04D94FF480712F4801F014
:4038C00029F82F4B1A68FB682C2101FB03F313443B622B4B1A68BB682C2101FB03F31344FB61FB695B68012202FA03F3BB61BB691B04BB613B6A5B68012202FA03F37B61F8
:403900003B6A1B69002B32D0FB699B69002B2BD13B6A1B691846FFF7B3FE0346002B20D17B681B689AB27B681A607B681A68BB691A437B681A603B6A1B697A6811461846FD
:40394000FFF750FEFB6901229A61FB693A685A623B6A1B6979691846FFF72AFE00237B6207E0084B7B6204E0064B7B6201E0064B7B627B6A18462837BD4680BDE0BD081069
:40398000C084020807028A0004028A0080B586B000AFF860B9607A601B4B1B68002B04D140F26111194800F0B5FFFB68072B04D94FF4B171154800F0ADFF134B1A68FB688C
:4039C0002C2101FB03F313443B613B691B6A002B04D14FF4B3710D4800F09CFF3B69DA697B689A4209D93B691A6A7B689B001344BA681A6000237B6101E0054B7B617B6914
:403A000018461837BD4680BDC0840208E0BD08100A028A0080B584B000AF78600F4B1B68002B04D14FF4DA710D4800F073FF7B68072B04D940F2B511094800F06BFF074B07
:403A40001A687B682C2101FB03F31344FB60F86800F008F800BF1037BD4680BDC0840208E0BD081090B589B000AF78600023FB600023FB617B68002B04D14FF4EA714C4840
:403A800000F048FF7B681B69002B04D140F2D511474800F03FFF7B685B69002B04D14FF4EB71434800F036FF7B681B6A002B04D140F2D7113E4800F02DFF7B685B69184674
:403AC000FFF734FDB861B869FFF7AAFD0346002B3ED07B685C69B869FFF7A2FD03461A4600212046FFF73AFD7B681B691846FFF787FD0346002B2BD07B681B6907F10C0270
:403B000011461846FFF7A4FD0346002B1AD1FB681B681B0CFB61FB681B68DBB27B617B68DA697B699A420DD97B681A6A7B699B0013441B683B613B69002B03D0FA683B6952
:403B4000104698477B681B69F9691846FFF7A6FAB869FFF771FD0346002B1FD07B685C69B869FFF769FD0346002219462046FFF7F5FC7B685B6A002B06D07B685B6A9847FF
:403B80007B6800225A6206E07B689B6A002B02D07B689B6A98477B6800229A617B685B691846FFF7CFFC00BF2437BD4690BD00BFE0BD081080B487B000AFF860B9607A60A9
:403BC000644B7B61FB68002B00F0BD807B68002B00F0B9807B685B681B029AB27B689B689B0403F480231A437B68DB681B0403F440331A437B681B691B0603F0E0631A4396
:403C00007B681B7F002B01D0012300E000231A43F968BB6804339B010B441A607B68DB68002B08D1FA68BB689B01134403F5847300221A6015E07B68DB68012B09D17B6836
:403C40001A68F968BB689B010B4403F584731A6007E0FA68BB689B01134403F5847301221A607B681B69002B11D17B685A69F968BB689B010B4403F586731A607B689A6925
:403C8000F968BB689B010B4403F588731A607B681A68F968BB689B010B4403F58A731A607B689B6CB3F1FF3F20D07B689B6A03F00F027B681B6B1B0203F470631A437B68AD
:403CC0009B6B1B0403F470231A437B681B6C1B039BB21A437B689B6C1B01DBB21A43F968BB689B010B4403F590731A607B685B6A03F003027B68DB6A1B0103F030031A434B
:403D00007B685B6B1B0203F440731A437B68DB6B9B01DBB21A437B685B6C9B0003F00C031A43F968BB689B010B4403F592731A607B681A6AF968BB689B010B4403F59C73A0
:403D40001A6000237B617B6918461C37BD465DF8047B70470100B60080B487B000AFF860B9607A608D4B7B61FB68002B00F00F817B68002B00F00B817B6893F82830002B4E
:403D800001D0012200E000227B681B7F002B01D0022300E000231A437B681B699B0403F480231A437B689B681B0403F440331A437B681B681B0603F0E0631A437B68196BC5
:403DC0007B685B6B5B000B431B0503F440131A437B689B6B9B001A437B681B68052B04D17B68DB681B029BB203E07B685B681B029BB21A43F968BB6804339B010B441A605E
:403E00007B681B68062B10D1FA68BB689B01134403F5847301221A60FA68BB689B01134403F594733F221A603AE07B689B68002B10D1FA68BB689B01134403F5847300221F
:403E40001A60FA68BB689B01134403F5947331221A6025E07B689B68012B11D17B685A69F968BB689B010B4403F584731A60FA68BB689B01134403F594731C221A600FE0EF
:403E8000FA68BB689B01134403F5847301221A60FA68BB689B01134403F5947312221A607B681A6AF968BB689B010B4403F586731A607B685A6AF968BB689B010B4403F58A
:403EC00088731A607B685A69F968BB689B010B4403F58A731A607B689A69F968BB689B010B4403F58C731A607B681B6EB3F1FF3F20D07B681B6C03F00F027B689B6C1B0250
:403F000003F470631A437B681B6D1B0403F470231A437B689B6D1B039BB21A437B681B6E1B01DBB21A43F968BB689B010B4403F590731A607B68DB6B03F003027B685B6C15
:403F40001B0103F030031A437B68DB6C1B0203F440731A437B685B6D9B01DBB21A437B68DB6D9B0003F00C031A43F968BB689B010B4403F592731A607B68DA6AF968BB686D
:403F80009B010B4403F59C731A6000237B617B6918461C37BD465DF8047B70470100B60080B483B000AF786039607B683A68C3F8402200BF0C37BD465DF8047B704700BF44
:403FC00080B483B000AF78607B68D3F80832C3F3080318460C37BD465DF8047B704700BF80B483B000AF78607B681B6803F40063002B01D0802300E0402318460C37BD4608
:404000005DF8047B704700BF80B483B000AF78607B68D3F8003203F00F03072B94BF01230023DBB218460C37BD465DF8047B704790B585B000AF786039600023FB607868E3
:40404000FFF7CEFF04467868FFF7BAFF03469C4205D039687868FFF7A3FF0123FB60FB6818461437BD4690BD80B588B000AFF860B9607A60F868FFF7C7FF0346002B14D0D9
:40408000BB68BB610023FB610AE0BA69FB6913441B781946F868FFF783FFFB690133FB61FA697B689A42F0D314E0BB687B610023FB610BE0FB695B007A6913441B8819467F
:4040C000F868FFF76DFFFB690133FB61FA697B689A42EFD300BF2037BD4680BD90B587B000AFF860B9607A60F868FFF779FF0446F868FFF765FF0346E31A7B617A697B68A0
:404100009A4201D97B687B617A69B968F868FFF7ABFF7B6918461C37BD4690BD80B588B000AFF860B9607A60BB68FB61F868FFF76BFF0346FB7613E07A68F969F868FFF734
:40414000CDFF7861FB7E002B01D07B6901E07B695B00FA691344FB617A687B69D31A7B607B68002BE8D100BF2037BD4680BD00BF80B582B000AF786039603B6823F43663C7
:4041800023F00D03002B04D04FF45E71054800F0C1FB7B683A68C3F8C82F00BF0837BD4680BD00BF20BE081080B582B000AF786039603B6823F4EE6323F00303002B04D0FE
:4041C0004FF48161054800F0A5FB7B683A68C3F8882F00BF0837BD4680BD00BF20BE081080B483B000AF78607B681B6803F40063002B01D0802300E0402318460C37BD469F
:404200005DF8047B704700BF80B483B000AF03460A46FB711346BB71FB79052B14D801A252F823F0454208103D4208104142081049420810494208103D420810022304E04D
:40424000002302E0BB7900E0BB7918460C37BD465DF8047B704700BF90B587B000AFF860B9607A60FB68002B02D0BB68002B01D19F4B9EE1BB681B78012B05D1FB689D4AA2
:40428000934201D19A4B94E1BB681B7F002B05D0FB68984A934201D0954B8AE1BB681B78002B07D0BB681B78012B03D04C21924800F030FBBB685B78002B0FD0BB685B7845
:4042C000012B0BD0BB685B78052B07D0BB685B78022B03D04D21884800F01CFBBB689B78002B0FD0BB689B78012B0BD0BB689B78022B07D0BB689B78032B03D04E217E485C
:4043000000F008FBBB681B78012B0BD1BB685B68012B03D9BB685B68102B03D95021764800F0F8FABB689B6923F00F03002B03D05121714800F0EEFABB689B68032B03D953
:40434000BB689B68102B03D952216B4800F0E2FABB68DB68032B03D9BB68DB68102B03D95321654800F0D6FABB685B78022B09D0BB689A68BB68DB689A4203D054215E48EF
:4043800000F0C8FABB685B6A23F06D03002B03D05621594800F0BEFABB68DB6A23F07303002B03D05721544800F0B4FABB681B6B23F42063002B03D058214F4800F0AAFA9C
:4043C000BB685A78BB689B7819461046FFF71CFF7861BB689B68082B05D8BB68DB68082B01D8012300E00023FB74FB7C03F00103FB74FB7C002B02D04FF4006200E00022BD
:40440000BB681B7F002B02D04FF4807300E000231A43BB685B68013B03F00F03134343F08072FB681A60BB681C6AF868FFF7D8FE03469C4203D365212F4800F06BFABB6866
:404440009C6AF868FFF7CCFE03469C4203D36621294800F05FFABB681B7D83F00103DBB2002B01D0012200E00022BB685B78052B01D1022300E000231A43BB68DB7C002BD6
:4044800001D0102300E000231A43BB685B7C002B01D0202300E000231A43BB681B78012B02D14FF0004300E000231A437B699B0003F00C031A43BB689B691B0203F470637C
:4044C0001A43BB685B781B0603F040731A43FB681A62BB681B7C002B02D04FF4807200E00022BB689B7C002B08D04FF4007306E00140AA000000694064BE081000231A4351
:40450000BB689B68013B03F00F031A43FB68C3F80023BB681B6ADAB2FB68C3F80423BB681B7C002B02D04FF4807200E00022BB68DB68013B03F00F031A43FB68C3F80022CB
:40454000BB689B6ADAB2FB68C3F80422BB685B6A03F06D02FB68C3F8C82FBB68DB6A03F07302FB68C3F8882FBB681B6B03F40072FB68C3F8002FBB681B6B03F40062FB687B
:40458000C3F8402FFB680022C3F8C82E7B68002B0ED07B6800221A607B6800229A617B680022DA607B680022DA617B68034A1A62002318461C37BD4690BD00BFEFCDAB00BB
:4045C00080B582B000AF786039607B681B6823F000427B681A603B68002B08D03B6800221A603B680022DA603B6800229A617B681B6A002B07DB00217868FFF7B9FD002135
:404600007868FFF7D1FD00BF0837BD4680BD00BF80B483B000AF0346FB80B7F90630002B0BDB0949B7F906305B09FA8802F01F02012000FA02F241F8232000BF0C37BD4647
:404640005DF8047B704700BF00E100E080B400AF054B1B6903F07F431B0EDBB21846BD465DF8047B704700BF0000214080B400AF054B1B6903F47F431B0ADBB21846BD467E
:404680005DF8047B704700BF0000214080B582B000AF78607B680F2B04D940F2A911064800F038F97B685B0103F1804303F50C1318460837BD4680BDA4BE081080B483B041
:4046C00000AF78607B68DB6818460C37BD465DF8047B704780B483B000AF78607B681B6903F00043DB0FDBB218460C37BD465DF8047B704780B584B000AFF860B9607A604A
:404700007B68002B04D140F26A31074800F002F97B681A46B968F868FEF7DCFC034618461037BD4680BD00BFA4BE081080B582B000AF55233B8000237B603B460849184620
:40474000FEF7C4FBB7F900301846FFF761FF022204490120FFF71AF900BF0837BD4680BD254F0208E94C020880B485B000AF78607B682E4A93423FD02C4A93420ED8402B90
:4047800040D0402B04D8002B1FD0102B37D042E0802B3AD0B3F5807F3AD03CE0244A934219D0234A934206D8B3F1204F10D0214A93421DD02FE0204A934213D01F4A9342C7
:4047C00013D01F4A93420AD025E00023FB6025E00023FB6022E04FF4A403FB601EE0194BFB601BE0184BFB6018E0184BFB6015E04FF4A003FB6011E00C4BFB600EE0144B1F
:40480000FB600BE0134BFB6008E0134BFB6005E0064BFB6002E0114BFB6000BFFB6818461437BD465DF8047B704700BF06005200010000F0090000A0040000F0050000F0BB
:40484000030000F0010052000200520003005200010050000200500005005200FF00520080B582B000AF144B7B600120FFF70EFF03461846FFF72EFF034683F00103DBB273
:40488000002B14D00D4B1B681846FFF76DFF78600B4B0122C3F88C2400BF094BD3F80C34002BFAD1064BD3F88C34002BF5D17B6818460837BD4680BD02005000C48402084D
:4048C0000000254080B582B000AF786008E00C4B1B68184600F0C4F87B68A3F500437B607B68B3F5004FF2D8064B1B687A6802FB03F3184600F0B4F800BF0837BD4680BD7B
:404900002C4C0208244C020880B483B000AF786001BEFEE780B582B000AF7860396018227968044806F02AFB034A3B6813600020FFF7EAFF805302089853020880B584B043
:4049400000AF78607B681B68414A13607B685B683F4A53607B689B683D4A93607B68DB683B4AD3607B681B69394A13617B685B69374A53617B689B69354A93617B68DB6971
:40498000334AD361334B9B6A314A1362314BDB6A2F4A53622F4B5B6A2D4A93622D4B5B6B2B4AD3622B4B9B6B294A1363F1EE103AFB60FB6803F09003002B43D07B681B6AD9
:4049C000234A53637B685B6A214A93637B689B6A1F4AD3637B68DB6A1D4A13647B681B6B1B4A53647B685B6B194A93647B689B6B174AD3647B68DB6B154A13657B681B6C8B
:404A0000134A53657B685B6C114A93657B689B6C0F4AD3657B68DB6C0D4A13667B681B6D0B4A53667B685B6D094A93667B689B6D074AD3667B68DB6D054A13677B681B6EAA
:404A4000034A536700F008F800BF1037BD4680BD9C53020800ED00E080B400AFFEE700BF0230800803D001300238FCD100BF00BF7047EFF3108072B6704780F3108870479F
:404A800080B400AF054A054B1B6843F00203136000BFBD465DF8047B704700BF10E000E080B483B000AF7860054A7B6823F07F43536000BF0C37BD465DF8047B704700BF73
:404AC00010E000E080B400AF034B00229A6000BFBD465DF8047B704710E000E080B400AF044B1B6803F480331846BD465DF8047B704700BF10E000E080B584B000AF034641
:404B00003960FB710023FB6007E00E4AFB68002142F82310FB680133FB60FB68042BF4D9094B0A4ADA63FB79184600F01FF83868FFF7B6FFFFF7C6FF00F00AF800BF1037B5
:404B4000BD4680BD1485020800400208254C081080B500AFFFF794FF034A034B1B6843F00103136000BF80BD10E000E080B483B000AF0346FB71FB79042B06D10C4A0C4B8C
:404B80001B6843F0040313600CE00A4AFB791B0603F04073C2F84032054A054B1B6823F00403136000BF0C37BD465DF8047B704710E000E00000214080B485B000AF7860BE
:404BC00039607B68042B0AD8094A7B6852F82330FB6007497B683A6841F8232001E00023FB60FB6818461437BD465DF8047B70471485020880B485B000AF78607B68042B0B
:404C000005D8074A7B6852F82330FB6001E00023FB60FB6818461437BD465DF8047B70471485020880B582B000AFFFF757FF0346002B13D000237B600DE00A4A7B6852F8AA
:404C40002330002B04D0074A7B6852F8233098477B6801337B607B68042BEED900BF0837BD4680BD1485020880B483B000AF786039607B683A689A6000BF0C37BD465DF826
:404C8000047B704780B483B000AF786039607B683A689A6100BF0C37BD465DF8047B704780B500AF0A4B1B78002B07D1094A07210948FFF751F8064B01221A708021064860
:404CC000FFF7D2FF80210448FFF7DCFF00BF80BD28850208E4BE08100000384080B400AF034B1B78DBB21846BD465DF8047B70472416344080B400AF034B1B78DBB21846B0
:404D0000BD465DF8047B70472016344080B400AF034B1B78DBB21846BD465DF8047B70472C163440064B5A68596B01325A60C2008A18596A51600021117058627047C04693
:404D400060D302080F2330B542680E4CD90009190D6C2100AA4202D2013BF7D211E00F2B0FD82468A21A0A608268C068002A00D05060002801D0026003E00833DB00CB18CA
:404D80005A6030BD60D30208F8B5284C0600E368A26B013B0818D3180D00984206D80368002B03D14368F618FFF7CCFFA36B9D420BD92B1F1F68EF1B3B68002B05D17B686D
:404DC0003800F6183D00FFF7BDFF0F23DA00A218126C964202D2013BF8D225E00F2B23D80833DA00A21850680022A91904392A606E60A8602D610E6029000831904200D046
:404E00004160EA602200DB00E318A860596023682932F31823601278002A05D1E268D31AA268934200D9A3603000F8BD60D30208F0B5234B87B09C6BDB680490013BE3185D
:404E4000039323686568002B30D1039B6719BB422CD93B680293002B28D0194EDB00726B9B5C012B22D17B6820000193F36A0593FFF768FF3B68726BDB00D3185C60019AE2
:404E80003900200005F0F9FF029B059A934202D1736B5B1B7363019B2800E118FFF774FF049B002B01D0984206D2019D039B6419A342C6D8012000E0002007B0F0BDC04664
:404EC00060D30208002806D0034BDA6B0260002A00D05060D863704760D30208034BC0005B6B1818406808307047C04660D30208064A10B5D3690133D361526BC300D318A7
:404F00001A7801321A70FFF7E9FF10BD60D30208036810B5083B094C1B68626BDB00D3181A78012A04D9E169002901D00139E161013A1A7000230360180010BD60D3020895
:404F40000322024B91431860596070472C85020810B5041E0BD0064B5A6BC300D3185B6819005868FFF710FF2000FFF7DBFE10BD60D30208F7B5224DEB6A002B07D1214B49
:404F800099685868083105F043FF841C03E02B691C1DDB08E418E00000F0CAF80126071E2CD06A6BC300D3185E68EB6A083601932B69696BDA00144B30001B689847296982
:404FC0006E630B00CA000432EF62B218601E834203D2013313600832F9E7DB00F31800265E60074B5A685962511A091959601C61019BB34202D01800FFF7AAFF3000FEBD80
:4050000060D302082C8502086C4C020870B5184C230028331A78002A29D101321A70154B0F32DA609A68002A02D15A6892089A605A2210252262002228009040D100611873
:4050400001320864102AF7D15868196803000125143BCB180E3A22616363A163E0605D6065626560FFF790FEFFF784FF256370BD60D302082C850208F0B5040085B0FFF757
:40508000C5FF0323294E03349C43376C201DB84200D30700F26B1400002C06D0231F196823688F4232D01C00F6E7F268B36B944663440193043B02931B680393039A019B85
:4050C0009D1A2B68002B06D02000FFF7B1FE029B1D68019B5D1B2B68002B23D16B689F4220DC28001C1DFFF72DFEF368E41BDB1BF36073692C19DB1973616B68D81B02D062
:405100002900FFF741FE231F1F600BE0002B01D0616859606168002900D00B60A24201D12368F363200005B0F0BDC04660D30208F0B585B00400FFF769FF3C4D2E6CB44209
:4051400003D3032303349C4326002B680C360196B34241D32B6B6A689A420FD96B686F6A013B6B60FB0003936B6BFA009B185A686A6201221A70002F0AD12DE0013B2B6373
:40518000FFF7F8FE2B6B01332B630028E6D023E00F23DA00AA18126C964201D2013BF8D21A00DB004433EB180F2A0DD81968002907D08C68002C04D061688E420ED9A16842
:4051C000F5E701320833EFE73000FFF731FE0028DED03800FFF7A6FD002723E0636802939E1B2B6C0C339E4201D2029B01932000FFF7A8FD6B6B039A9B185C60019B019AC2
:4052000063600023A360019B2760E1180B1F24611A601300029A934204DA1300019A981AFFF7B2FD380005B0F0BDC04660D30208002310B5984202D0FFF77AFF03001800DE
:4052400010BD000037B50500FFF7F2FF041E0AD0FFF74EFE054B01901B682A000021984701A8FFF755FE20003EBDC046704C0208514BF0B51B688FB0DA69D469A589A84249
:4052800008DBE189814205D32168451B09910121494215E0A168002900D184E00D88A84200DA80E04E8886427DD3451B4968A8B266688000081809960021455E0221415ED5
:4052C0000891691C6FD022215E5E2420195E0691127E0A92A27C0A9951430C91227C0B922A229B5E1800079302F01AF8324F0D903A680699D369926B300005920C9A55430F
:40530000099A551904950125A27C02950392DA7E01929B7E0B9A00930A9B02F093F9089B01331BD00220079B184301F0F9FF3B680899DA699B6B300005930C9B4B430999FE
:40534000CB180493A37C02950393D37E06990193937E0B9A00930A9B02F074F9164D2B68DB695A7E1B7E9A4217D9079B022B14D00420584001F0D4FF2B68069AD8690B99D4
:40538000437E057E9B18827E51438A19C17E069869430918300002F045F86B4634229B18187801F0BDFF044B617C1A68538CCB1853840FB0F0BDC046544C0208044B1B688A
:4053C000DB69DB69002901D01A7C0A60587C7047544C020802230B80704710B5C3699A89914203DBDA8901208A4210D29B68181E0DD01A880020914209D35C888C4206D386
:40540000891A5B688900C85AC04380B2C00B10BD002807D003888B4202D843888B4201D28068F5E770470000F0B5334F8BB03B6804002A215A5EDB690100D8690792FFF756
:40544000E7FF002855D00388E41A4368E4001E190798B47801F064FF39680990CD6932782B7E08932423C85E84462223C85E896B089B059171680394049101210291E97E3D
:405480000191A97E0091614602F0DCF83B68DB695C7E1A7E089294421FD9079A022A1CD0DD7E00F0EDF8079000F0E4F800F062F93A682423D15E2223D05E2300D2696B4346
:4054C000D47E32785B186243089C12186543691801F0A8FF079800F04DF9099801F020FF054B71781B68DA69927E4A43598C52185A840BB0F0BDC046544C02080C4B70B526
:405500001B680400DE690D000100F069FFF780FF00280CD002884368A41AE4001C196078B37E5843002D02D0227853432B6070BD544C020801230B80704710B5C069FFF732
:4055400067FF431E9841C0B210BD000070B5244E040032680D00D37E002B40D0917CC9070FD5D069411CC97F007E814200DB411E2420125E200051185B18013B2A0001F05D
:4055800051FF33689A7C920711D5DA69D11CC97F0132D27F01314910511A24201A5EDB7E89185B18013B2A00200001F03BFF3268937C5B0713D5D1694B1C0331DB7FC97F35
:4055C000591A01392423D05ECB43DB171940D37E41185B18013B2A00200001F023FF70BD544C020810B5044B1B682221595E0139FFF7ACFF10BDC046544C020810B5074BA3
:4056000000211B6822229C5EDB69013C5B689847201A01302100FFF799FF10BD544C0208FF2230B5040014400A40A21A92B213B2002B01DA524213B25B431D00FF23020A1F
:405640001A4014000A0A1340E21A92B213B2002B01DA524213B2000C5B43090C411A89B208B25B19002801DA494208B280B24043C01830BD10B502F04DFA02F053F910BDA3
:4056800010B502F04FFA02F04DF910BD70B500282CD0002926D0002A25D013880D881C1C2EB21BB2B34200DD2C1C048053884D881C1C2EB21BB2B34200DD2C1C448093881D
:4056C0008D881C1C2EB21BB2B34200DA2C1C8480D388C9881A1C0CB21BB2A34200DA0A1CC28003E01100082205F0BCFB70BD00280DD0038889B2CB180380838892B2C918A9
:4057000043888180D3184380C388D218C2807047024B1B685884998400207047544C020830B503000222845E06200A5E0020944213DC02228C5E06255A5F94420DDC002243
:405740009C5E04254A5F944207DC00228A5E0421595ED00FCB179142584130BD10B502F0CBFA02F045FB03F0A3F810BD10B502F01DF910BD10B502F021F910BD034B021EF5
:405780001B68D86900D0DA617047C046544C0208084B10B51880084B0A001980074B08491B685B7C9B005B58D9680C6A01001800A04710BD48D4020838D40208544C020858
:4057C00070D40208034B1B682C215A5E988510007047C046544C0208034B1B682A215A5E588510007047C046544C020810B5084A08491268084C0300907C0C600749002B9D
:4058000001D10B6001E0064C0C60937410BDC046544C02084CD40208FD55081040D40208E555081070B50024094D0A4E10C5336821002800702298473368042221000648B3
:405840009847064B1D60064B1C70064B1C6070BD3C850208704C020870D40208544C020858D4020834D40208014BD8607047C046544C0208F0B50700160085B00C000420C1
:40588000019301F04DFD114B00901A68D36CDD199E19176D019B3C19FF1802AB18001D809E805C80DF8002F083FF002804D1009801F036FD05B0F0BD3B0032002100280033
:4058C00001F0B0FD02F0C4FEEFE7C046544C0208002110B50800FFF71BFF034A034813000100FFF7C7FF10BDFF3F000001C0FFFF024BDA6FD86742607047C0463C850208A1
:40590000084B10B51A68002A0AD101321A60FDF7A3F9FDF7EFF90448044B0360FFF7E8FF10BDC0463C850208BC8502082558081070B5FFF7E5FF2E22314B1A70FDF79AF97A
:40594000304C314D2100314B0C3123672B681A1DDA630432A2619B631B645B7C2C4A9B009858C3681B6B98472A4B6366EB6823622B680833A36101232377E37703F08CF82D
:405980002300032268331A70234BE064606F6363A36302F00BF8A86802F010F81F4A204B1A6001F065FF050002F044F9060002F047F9002E01D0002808D102F02BF9060003
:4059C00002F02DF90100300002F02EF900210800FFF7DEFE02F0BAFFA36F002B0AD0A36F002B07D01B68002B00D09847A36F5B68A367F4E701220B4B28001A7070BDC046FF
:405A000029D402083C850208544C020838D8081070D4020830D80810785634FF90D8081068D4020850D402080300002083420ADC054A9B009858002805D0C3681B68002BE1
:405A400001D00068F7E7704770D4020810B5FFF739FA10BDF8B506000D0017001C1E01DD00201BE01C20FFF707FB0028F8D0002D01D005610BE00A4BA200D358002B06D0AF
:405A80001A68002A01D01300FAE71B690361002384618782C660036043608360F8BDC04670D4020883690C499A0010B554580368A04204D15350002B01D000225A604268D1
:405AC000002A00D013600368002B00D05A6000230360436010BDC04670D4020830B5002801D101203BE08269002AFADC1C4B19788A4201DB012119701A49920053580D00D1
:405B0000002B02D15050180029E05968002901D00B00FAE7C1680968DC6824688C4203DD1B68002BF8D1DCE78C420AD1848A012C07D11C68002C04D02300E4682468A1428F
:405B4000F7DD5968002902D00860416000E0A85058600022984200D01A000260002030BD21D4020870D4020870B51C00FFF772FF051E0AD0FFF7B2FFEB681B68002B04D138
:405B8000034B16341B68A400E550280070BDC046544C0208F0B5040087B0002800D17BE003F0BEF83D4D02902B6822229B5E039303F0A0F82A6883B20093938C00995B1A7B
:405BC00093842378002B5AD03549200003F014F901000600200003F039F9304B1A680323918D19400300012905D00023022902D1C30F1B185B10518C04ADCB1A9BB219B2FC
:405C00005184298081B2019101395B18AB802423D35E6A4617896B80013BFB182A0020003100EB8003F040F91C4D04AB5B882A6820009384310000F0B1FB241823780A2B98
:405C400001D00D2B12D103212B689A8D0A40013A012A02D86A46928900E01A8C5A8422780A2A09D19A8CBF189F8405E004AA1088019A2B68101858842378002B0AD10321B7
:405C8000064B009A1B68988C10189A8D98848A439A8501E0013494E707B0F0BD544C0208FF7F000010B5034B1B6859849A84FFF771FF10BD544C020810B51F4A03001268C5
:405CC0000020927E013A032A35D8100005F08CF8020F1D25194A0633134004D51022013B524213430133D80F00210B220AE0144A134004D50422013B524213430133002185
:405D00000122D80F9A42484115E01421180005F09FF801200B2909DC0DE01821180005F097F801200B2906DD042399430023103988425B41180010BD544C02080F000080FF
:405D4000030000808023000530B5000D1B010021984202DD104A013180188022D200904200DD181A3F23402482111840201A0B4D83B25000405B5843A34207D0102A05D0CE
:405D800001325200525BE31A5343C01820308009002900D0404230BD00F8FFFF4CD80810802310B5DB00C018FFF7CCFF10BD0000F0B587B002910299141A5F1A21000190C7
:405DC0000C9D394303D1029903F0BCF8BFE0F917E61778184840A11971400026049688420BDD21003C000F0011001A000B00019902980291012101900491E0172118414065
:405E000001200390A14208D00293019B01921A0001235B4264427F4203932E68002F3FD14C4B04991B6800291BD09B7E3700002B13D10199029801F0CFFA88E03800FFF7D4
:405E40003BFF002808D1019B0298991B414BC9191B681B6E5B6898470137BB1BA342EDDD1BE0997E3700002914D11B6E02991B68019898476BE03800FFF71EFF002808D117
:405E8000019B0299981B334BC0191B681B6E5B6898470137BB1B9C42EDDA013F2F6056E0E30F1B195B10002F00DA5B42294A1268927E002A19D11D00019E019BF31A9C42B0
:405EC00045DB2100280004F0B5FF029B049AC018204B31001B681B6E5B68002A01D10100300098470136ED19E7E7039A013201D1A6192E60019E0593019B2868F31A9C42BF
:405F00001CDB039B18182860FFF7D6FE002810D12100059804F08EFF029B049AC0180D4B31001B681B6E5B68002A01D1010030009847059B0136DB190593DDE7039B013392
:405F400001D104192C602B68039A9B1A2B6007B0F0BDC046544C0208F0B58BB00593634B03901B6804921E7E0F00012E05D1109B0093059BFFF71CFFB5E0039B049A991A2D
:405F8000059BF81A0B00034300D1ACE00024013EA14201DA49420134002802DA022340421C43814204DA04231C430B00010018004B108002181804F03DFF10254C498311B0
:405FC0009C46800622315B00000F5B5E2D1A6B43102D05D0624601325200525E50431B180F220833DD171540ED182D11630702D58023DB005D1BE30702D580231B015D1BF2
:40600000A30702D580235B015D1B8023DB00ED182800FFF7C5FE704304002800FFF792FE4643002C05DA80208000041BA412644203E080239B00E418A412002E05DA8020F0
:406040008000861BB612764203E080239B00F618B612002C02DD621C521005E0E20F1219013CE00F521004196410002E02DD731C5B1005E0F30F9B19013EF00F5B10861993
:406080006946898992B206A894468A1802809DB2BAB2531943806B467610B6B2921BC2801A8A9B8AA4B29E1BEB18C3810023091B141B624481800481828146811A000421ED
:4060C00000F062F8094C23685B7E002B03D13900039802F037FF23685B7E002B03D10599049802F02FFF0BB0F0BDC046544C02084CD808101FB50024039403AC0094FFF7C9
:406100002BFF1FBDF7B51F000B4B00901B68002001911600DD6C1C6D02F04AFB00280AD001990098E319AA1961182818FFF7E2FF02F08EFAF2E7F7BD544C0208F7B511491A
:406140000A6801910B2A1BDC002A01DC002311E0019B00251C1D5300E41813005E1EB446AE1EA75F874205DB634667533500002BF4D1EBE701995B00CB18013298800A60A0
:40618000F7BDC046CC850208F0B587B00292002204936E4B039001936D4B059105998A420DDA0398910041180220095E8B4200DD0B000198884200DA01910132EEE7654AD9
:4061C0001268516900290ED006200A5E0498121A0198904200DD019202228A5E0499521A934200DA1300049A9B180093009B049A9C1A019BA34200DAA6E00025564B039E41
:406200001D60059B9D425CDA059B00215F1EBD4200DA691C0223F25E039B8900591802200B5E94461800A24239D1A34203D000212A008C461EE00023F75E029BFF180023F6
:40624000C85E029B3A00C018424B1B681B6E1B68874221DA0200009938001EE0002A0CD0013A0398910041180220095EA14206D101218C446745F1DC20E03A00F1E7091BEE
:406280001B1B0022B05E59404BD4029BC0180200304B1B681B6E1B68009998470EE0A3420CD002DBA2423FDD02E0A24206DB01E0A34203DC9A423DDCA2421FDD01350436AA
:4062C0009FE7002420002500234B1A68954212DA04336A00D65E002C08D0029B00999A1918181C4B1B681B6E1B689847012330005C40ED18E8E7009B013376E7A342DDDBA8
:406300000023F75E0023C95E63466246C91BE31A4B43811A4810002B13DDC01804F08AFDC019FFF70BFFC9E79A42E9DDA342C5DCA242C3DB0027CF5F9C460020315E100051
:40634000E2E70138181AE9E707B0F0BD01C0FFFFFF3F0000544C0208CC850208044B10B51A68002A00D1186000F036F810BDC046E8850208F8B5084F06683B6804001B68A6
:40638000300098473B6805005B6830009847301820602800F8BDC04668D4020870B506000D000024002D08D0054B30001B68013D5B68984736182418F4E7200070BDC04667
:4063C00068D402080078704701207047012070470170012070470000034B10B51B68002B00D0984710BDC046488602080200FF231100000A194010B51840120C4018134096
:40640000C0188030FF30024904F014FD10BDC046FD020000002800D000487047FFFFFF0001207047F7B58068C46A856B624307245218D2080192026A0C409200002D18D0FF
:4064400080212141CCB2A446C94301248218151F019E2D68AD192F783E000E40234201D066463E436400043A2E70E4B29042EED117E001210D00A540ECB2A446ED4382185E
:40648000141F019E2468A41927783E002E400B4201D066463E434900043A2670C9B29042EED1F7BD70B5072584680D40E36AA06B5A43236A5218D2089B00002810D08021BA
:4064C00029410020CDB20121E318043B1E68B65C2E4200D008434900C9B29C42F5D10EE001210E00AE40E318F5B2043B1E68B65C2E4200D008434900C9B29C42F5D170BD07
:40650000F8B50D0016000400FFF7CCFF070023699B6898473B003200434029002000FFF781FFF8BDF0B580688BB00090066AC06A5B1A42435F1CA44B5218D2081B6801903F
:40654000039200981A7C806BD20779D50722082311405B1A002839D0F8321000DD1B0841AA40C4B21040C2B238009F4200DD1800381A009D0190B00028189F4200DB221CE4
:40658000D3B29C46FF25031F039A1B689B183A00002905D064461A7862401A70019A0133072A05DD1E78083AF6431E700133F7E7002A06D00824A21A2C0094401E78664004
:4065C0001E70009B04388342DDD1FAE0FF221000DD1B88402A41C4B21040C2B238009F4200DD1800381A009D0190B00028189F4200DB221CD3B29C46FF25031F039A1B680E
:406600009B183A00002905D064461A7862401A70019A0133072A05DD1E78083AF6431E700133F7E7002A06D00824A21A2C0014411E7866401E70009B04388342DDD1C0E057
:406640000722DB6B11401B68FF22019308230491591A130000285AD00498CC1B0341A2401A40D8B2D3B23A008F4200DD0A00BA1A09928F4200DB031CDAB2DB435BB20893FA
:40668000012307920293013E009AB300D458039B3D00E418049B002B0BD02278089B019902981340014201D0079B1343099D23700134072D14DD029A0199444B11404A1E73
:4066C00091412B400593059A414B49421B68D2102000C9B206929847069BE418059BED1A002D0DD0082321785D1BF733AB400A000198029D9A43284201D00B43DAB2227033
:40670000029B5B00DBB20293002EBCD159E00498CC1B834022411A40D8B2D3B23A008F4200DD0A00BA1A09928F4200DB031CDAB2DB435BB20893012307920293013E009A90
:40674000B300D458039B3D00E418049B002B0BD02278089B019902981340014201D0079B1343099D23700134072D14DD029A0199164B11404A1E91412B400593059A144B38
:4067800049421B68D2102000C9B206929847069BE418059BED1A002D0DD0082321785D1BF7332B410A000198029D9A43284201D00B43DAB22270029B5B00DBB20293002EA9
:4067C000BCD10BB0F0BDC046544C0208F8FF0000704C0208F8B505000E0014001F00069B9C4207DC22003B0031002800FFF79AFE0134F4E7F8BD002382680B804B80D36A39
:40680000013B8B80136B013BCB80704700B58368481E0D2818D804F0E7FA090B0D0F17171711131A1A070707002011E0586A0FE0986A0DE0D86A0BE0186B09E0186A07E0C0
:4068400001201B6A984003E00120404200E0012000BD000009390020062902D8014B8900C8587047B8D8081010B501290FD1094B1B68587CFFF7D8F803699B68984701F018
:406880001EFA054B012803D0044B082800D00023180010BD544C02082CD90810A0D9081010B5002206218069FCF762FA10BD10B5002205218069FCF75BFA10BD73B504007B
:4068C0000E00150000210822684604F0F1FA6A460321A06900960195FCF74AFA73BD0000F7B51D000F4B14001B6806001A7C0F00D20708D5A54213DB220039003000FFF7BC
:40690000FFFD0134F6E7DB6B1B680193AC4207DC2200019B39003000FFF784FD0134F5E7F7BDC046544C0208F0B591B00193179B0390581E06910592072801D900F05EFC52
:4069400004F05CFA230021005C041F005C045C045C0408000723069A1340802211001941C9B29A40099101219940D3B2199A0A939446019BC9B263440293059B07910893F9
:40698000FBE2059B50E2059BB0E11A9A069B9446634409930723099A134080221A41D2B20A9201229A40D3B20C93059B0793059A079B9B1A169A9A4201DC00F01FFC1B9BCD
:4069C000BE4C5B680693039B9B680293D96A1A6A079B5943099BC918CB08049303232168087C1840022800D1A1E0984200D10FE1012800D10CE11B9B06981B680893834247
:406A000010D1CB6B089A1D681A60099A019B09999B18013B079A0398FFF784FD2368DB6B1D6043E1029B92009B6B002B3ED00127029B9E1808990FAA394011700699049B2E
:406A400039405170321F12680A99D218019B1A989C46199B0B936346002B20D08025054113780D930B9B1C782C40651EAC410FAD2D5D0D9C8C43002D01D00D9C0C4301302D
:406A80001470082803D10B9801300B900020490801D10132803101235B429C44DBE7029B7A00043ED7B2B342C4D1FFE00127029B9E1808990FAA394011700699049B394084
:406AC0005170321F11681A98C918019B0C9A9C46199B0B936346002B22D0802505410B780D930B9B1C782C40651EAC410FAD2D5D0D9C9443002D01D00D9C144301300C70A7
:406B0000082803D10B9801300B9000205200D2B2002A01D10131013201235B429C44D9E7029B7A00043ED7B2B342C2D1BEE0029B92009B6B002B34D0029B9A1801230893B0
:406B4000089B06990A9819400B91111F0968049B019D1A9C199EC918002D19D08023234137783B4209D00B781F009C460B9B8743002B01D0674607430F700134082C01D14D
:406B800000240136400801D101318030013DE3E7089B043A5900CBB20893029B9342CFD184E0029B9A18012308930899069B019D0B40111F08680B93049B0C991A9C199E86
:406BC000C018002D1BD08023234137783B4209D003781F009C460B9B8F43002B01D067460F4307700134082C01D1002401364900C9B2002901D101300131013DE1E7089BD2
:406C0000043A5900CBB20893029B9342CDD14DE0029B92009B6B002B23D0029B9A18111F0968049B0A9C019D1A98199EC918002D12D08023034137783B4202D00F786740D6
:406C40000F700130082801D100200136640801D101318034013DEAE7029B043A9342DED124E0029B9A18111F0868049B0C99019D1A9C199EC018002D14D080232341377898
:406C80003B4202D007784F4007700134082C01D1002401364900C9B2002901D101300131013DE8E7029B043A9342DCD1189A199B944663441993079B013377E6544C02086E
:406CC0001A9A199B944603221C78069B63440493C34B1B681B7C134010D0022B4DD0189A199B944663441993029B01330293059A029B9B1A169A9A42E2DC7FE21B9B1A9D13
:406D0000199E0499002B23D003235A1B5200DB18981ABA3303412340D3401B9A9B009B580398029A01354F1CFFF77CFB042D02D1002574780136019B049A39009B189F42CD
:406D4000E2D1CCE7019B049A39009B189F42C6D003235A1B5200DB18981ABA3303412340D3400398029A01354F1CFFF75BFB042DE8D1747800250136E4E71B9B1A9D019EAA
:406D8000199F002B27D0019B049A991803235A1B5200DB18981ABA3303412340891BD34006D01B9A9B009B580398029AFFF73AFB0135042D02D100257C780137013E002EBE
:406DC000E1D18CE70135042D02D100257C780137013E002E83D0019B049A991803235A1B5200DB18981ABA3303412340891BD340E8D0029A0398FFF715FBE3E71A9A199B34
:406E0000944603221F78069B63440493744B1B681B7C134010D0022B4DD0189A199B944663441993029B01330293059A029B9B1A169A9A42E2DCE1E11B9B1A9C199D0499D2
:406E4000002B23D001231A1B9200CE180333981AEC3303413B40D3401B9A9B009B580398029A0134FFF7DEFA022C02D100246F780135019B049A31009B189E42E2D1CCE727
:406E8000049B019A31009B189E42C6D001231A1B9200CE180333981AEC3303413B40D3400398029A0134FFF7BDFA022CE8D16F7800240135E4E71B9B1A9C019D199E002B9C
:406EC00027D0019B049A991801231A1B92000333981AEC3303413B40491BD34006D01B9A9B009B580398029AFFF79CFA0134022C02D1002477780136013D002DE1D18CE79C
:406F00000134022C02D1002477780136013D002D83D0049B019A991801231A1B92000333981AEC3303413B40491BD340E8D0029A0398FFF777FAE3E7039B08989B6801930B
:406F4000019A1B6AD16A4143069809180320C9080491234909680B91097C014014D0022900D1ABE0189A199B944663441993089B01330893029B63440293059A089B9B1A6B
:406F8000169A9A42D8DC39E1019A1B98916B9B0000284ED0002925D00124D318191F04980968199D09180998029A954211D02E780F781B9AB600B2583E008643224201D02F
:406FC0003E0006430E70400801D1013180300135EAE7019A6400043BE4B29A42DED1C1E7544C02080124019AD318191F0868049A199D07998018029A954213D02E7807787E
:407000001B9AB600B2583E008E43224201D03E000E434900C9B20670002901D1013001310135E8E7019A6400043BE4B29A42DCD198E7019A0124D318002938D0191F09680A
:40704000049A199D09988918029A95420ED00F782A783E008643224201D03E0006430E70400801D1013180300135EDE7019A6400043BE4B29A42E1D174E707782A783E009D
:407080008E43224201D03E000E434900C9B20670002901D1013001310135029A9542ECD1019A6400043BE4B29A4200D15AE7191F0868049A199D80180799EEE7019A9B003C
:4070C000916B1B9A002A4FD0019A0124D318002937D0191F0968049A199D09988918029A954213D02E78002E0AD00F781B9AB600B2583E008643224201D03E0006430E703B
:40710000400801D1013180300135E8E7019A6400043BE4B29A42DCD124E72E78002E17D14900C9B2002901D1013001310135029A9542F2D1019A6400043BE4B29A4200D11B
:4071400010E7191F0868049A199D80180799EEE707781B9AB600B2583E008E43224201D03E000E430670DBE7019A0124D318002934D0191F0968049A199D0A988918029A5C
:40718000954210D02A78002A07D00F783E008643144201D03E0006430E70400801D1013180300135EBE7019A6400043BE4B29A42DFD1D7E62A78002A17D14900C9B20029F9
:4071C00001D1013001310135029A9542F2D1019A6400043BE4B29A4200D1C3E6191F0868049A199D80180799EEE707783E008E43144201D03E000E430670DEE711B0F0BDCE
:4072000070B505680400002D0AD13C20FDF734FF2060002804D0044B3C221B682900984720684342584170BD704C020870B504000830FFF7E5FF002205000121A069FBF761
