:020000041000EA
:4000000000400208310100100D000000950100100000000000000000000000000000000000000000000000000000000091010010000000000000000091010010910100109B
:400040009101001091010010910100109101001091010010910100109101001091010010910100109101001091010010910100109101001091010010910100109101001060
:400080009101001091010010910100109101001091010010910100109101001091010010910100109101001091010010910100109101001091010010910100109101001020
:4000C00010B5064C2378002B07D1054B002B02D0044800E000BF0123237010BD7404000800000000702B0010084B10B5002B03D00749084800E000BF07480368002B00D159
:4001000010BD064B002BFBD09847F9E70000000078040008702B0010EC000008000000007047EFF3108072B6704780F310887047FFF7F6FF72B6104C104DAC4209DA2168D9
:400140006268A368043B02DBC858D050FAE70C34F3E70B490B4A0020521A02DD043A8850FCDC094809490860BFF34F8F00F002F900F01EF8FEE70000742B00108C2B00106A
:40018000740400086C0600080000000808ED00E0FEE7FEE700B504207146084202D0EFF3098001E0EFF30880043001F051FCFEE710B5034800F052F9002001F087FBFBE725
:4001C0000000081070B56249E0239B00CB580F2213401A00D0329200525807210A40032A05D0042A06D0002A12D15A4814E05A4A106811E01A00C0329200554952581F212C
:400200000A40112A06D0132A04D0FA20C00103E0524801E080200002002B36D14C4BB222D2009A5801211140B125ED005A59120F032422405B591B0F1C4207D0444C635924
:400240001B0F03242340012B02D102E0012300E00023002B01D0002901D1032A4BD13C4BB022D2009D58AD03AD0B3D495958C904C90C9C58240E01231C40013401F086FCD3
:400280006843210001F082FC35E0012B33D1304BC822D2009A5801251540C024E4001A59120F03210A401B591B0F194207D028490B591B0F03210B40012B02D102E001230D
:4002C00000E00023002B01D0002D01D1032A12D11F4DC022D200AB587F210B40A958090A1F263140AC58240C3440584301F04EFC210001F04BFCE0239B00154AD3581B09F5
:4003000003221340D840144C6060164B1D692D0AFC32154001351969090E013101F036FCA060290001F032FC0500E06020610E4BC0180E4901F02AFC20750D4BE818FA2193
:40034000890001F023FCA061C003E06170BDC0460000264000127A00C000000800366E0184050000000021403F420F0040420F00E703000010B5234BB021C9005A58520087
:4003800052085A50E02080001A583024A2431A50802252045A501C491C4A9950A021890104329950FF211A4A995081315A58920092088020C00502435A505A58802000063B
:4003C00002435A505A58012082435A5000F0C6F9FFF7F8FE00F06EF800F076F801F058F8B0235B055B78002B04D0B0235B055B78DBB200E02123212B03D1064B0022DA60B3
:400400005A6010BD0000264001000200840500008C050000E00023408023024AD3580320184070470000214010B5FFF77AFE084980228C58074B2340074C23438B508823C4
:40044000034AD358DB06FAD5FFF76FFE10BDC04600002140FCFF00000100FA0570B50500FFF75FFE0400FFF7D7FF032801D1FFF7DBFF0A4AB0239B00D55080215058084B25
:4004800003400848034353508823044AD358DB06FAD52000FFF749FE70BDC04600002140FCFF00000300FA0510B5002000F008FE10BDC04610B5034A8021042000F06CFB22
:4004C00010BDC0469004000810B50748103000F023FC01F026FB0400044800F08FFC200001F023FB10BDC04690040008281D0010FEE7C046F0B50025002711E0BB00C658B4
:40050000F3B2FF22964308E06A008A181478A419527822700135013BDBB2002BF4D10137012FEBD9F0BDC04670B586B06A4BA021C9005A58032082435A50684A9024105908
:4005400067490840105110690002000A1061106901408020400001431161E02292009958F138814399509958213081439950995880200006014399500021012000F0BEFDE1
:400580000021022000F0BAFD0021032000F0B6FD0021042000F0B2FD0021002000F0AEFD01A8504903000A0032CA32C312CA12C300F0CCFD002802D00420FFF799FF4649C5
:4005C000494A8B588020000603438B50474800F075FE002802D00420FFF78AFF3E4C444BE158444A0A40E250E158434A0A40E250E25880252D062A43E250043BE1583F4ADF
:400600000A40E250E1583E4A0A40802189010A43E250E258802109020A43E250394A1168394B0B40802149000B431360002001F07FFA364AA3581D43A550A3580125AB4345
:400640002B43A3506421002001F01AFA304B0021304A9950802000011A5821490A401A508022D2002C489850985840242B481C50902424011E592A4830402A4E30431851B6
:40068000294898509858C52000011D50274D58590840C624E40120435851254898509858022524481D5024481D58294021431950224999509958B02000011958FF242140EF
:4006C0001F4C214319501958F824A14319501D4999509B5806B070BD0000264000002140FF00FFFF5C1D0010087F0000400D030004050000FEFCFFFFFFFF00FFFFF0FFFFB4
:40070000FF8FFFFF00002740FFFCFFFF0C05000000000140180C000000FF00804C0C0000FF0000FF004FC30040FF00800408000001FF0080680C00000808000002FF008020
:40074000003F420FC0FF008010B50A00002101F0B2FA10BD10B501F0A5FA10BD70B58AB09621002001F08CF901F062F9002801D101F04EF9012000F0E1FF4B4A516C4B4B2B
:400780000B40E82189010B435364536C1B0AFF2213403A2B07D1444A516C454B0B40E82189010B435364FFF7BFFE424A424B1A6000240CE0620012195300404AD318198BB4
:4007C0009A8AD88A00041043FFF7BEFF01340B2CF0D900240AE0620012199300374AD3185A6E196ED86DFFF7B5FF0134112CF2D9334D2900343128004030FFF77BFE314A8F
:400800001368832149000B43136001AC24220021200001F050FAC023DB00E36021002A4800F040FE22002B00483343CB43C243CB43C243CB43C22100244800F033FE242269
:400840000021200001F037FA214BE3602100214800F028FE22002B006C3323CB23C223CB23C223CB23C221001B4800F01BFE1B4D22002B00103343CB43C243CB43C243CBA8
:4008800043C22100164800F00DFE22002B00343323CB23C223CB23C223CB23C22100114800F000FE0AB070BD00002740FF00FFFFFFC5FFDF0300FA05F00121405C1D00105A
:4008C0005C1E0010007934400000324080003240008666068002324000033240DC1E0010800432400006324010B583089A00801AC000FF228240D44381400A40072B32D8C5
:400900009B001949CB589F46184B196A0C4022431A6228E0154B596A0C4022435A6222E0124B996A0C4022439A621CE00F4BD96A0C402243DA6216E00C4B196B0C402243F0
:400940001A6310E0094B596B0C4022435A630AE0064B996B0C4022439A6304E0034BD96B0C402243DA6310BD642800100000214083089A00801AC100FF228A40072B2BD8C9
:400980009B001748C3589F46164B186A1040C84023E0144B586A1040C8401EE0114B986A1040C84019E00F4BD86A1040C84014E00C4B186B1040C8400FE00A4B586B104068
:4009C000C8400AE0074B986B1040C84005E0054BD86B1040C84000E00020C0B27047C046842800100000214070B504000D000B4B9A680B4B9A420BD1002903D1FC21094835
:400A000000F0F8FF1034064BA400E058E55003E01034A400044BE05870BDC04600ED00E000000008A428001000000010F0B583B0041E019150D04368032B03D936212948BA
:400A400000F0D8FF0023E05E002802DBA178FFF74BFF0023E25E6368002A12DB9008224EC0308000875903210A40D200FF25290091408F4399012B000B4093403B438351EE
:400A800017E092B20F21114008398908063189001648844661444E6803200240D200FF2738009040864398013B000340934033434B600E4B9A680E4B9A420FD1019B002BF5
:400AC00003D14521074800F095FF0023E05E0199FFF78AFF002002E0064800E0002003B0F0BDC046A428001000E100E000ED00E0000000080100560070B504000D0003694E
:400B0000002B0ADA0B0C03D00549064800F072FF2D042D0C6560002000E0034870BDC046B3020000E828001001008A0070B505000C000368002B01DA002300E0084B002B8A
:400B40000BD1EA60230C03D00649074800F052FF2404240CAC60002000E0014870BDC04601008A009A020000E828001070B505000C1E03D19921064800F03CFF2B69002B2D
:400B800003DAEB682360002000E0024870BDC0462829001001008A00F8B504000E0015000F283FD8002A10D100290ED10F2804D9AA21FF31214800F01DFF6401204B9C46AE
:400BC0006444204B1C60002037E0002D2CD0002E2CD0F3062CD10F2C04D9AA21FF31174800F008FF6401164B9C466444154F3C607E60BD60F2080021280001F05CF8002189
:400C00002000FFF779FF3A0001CA0021FFF78EFF00280FD10B4B18680021FFF76DFF00280AD10AE0084808E0074806E0064804E0054802E0054800E00448F8BD6829001092
:400C4000000023402006000803018A0001018A00F0B583B00D001C4B1B68DC68236883422DD947097B01C01A012383401E00002903D100F056FF019001E000230193124BED
:400C800018680368002B01DA002300E00F4B002B0ED16368BF00DF193B68334203D0B3433B60002400E00A4C0021FFF725FF00E0084C002D04D1019800F037FF00E0064C22
:400CC000200003B0F0BDC0462006000801008A00020188000301880004018A000A4B1B68DA68136883420BD943095901401A0121814052689B009B580B4203D0034802E059
:400D0000034800E003487047200600080101880004018A0000018800034B1B68002B01D1014B18607047C0462C060008F0B5474680B404000F0090461E002B4B1B68002B9C
:400D400003D1B421294800F055FE072C03D9B521264800F04FFE244B1B682C2060431C18FF22150035402560330A13406360330CA3600F2D04D9AA21FF311D4800F03AFE0B
:400D80006B011C4A94466344236165680F2D04D9E2214900164800F02DFE6D01164B9C4665446561A668330C04D0F1214900104800F020FE330C04D0E421FF310C4800F023
:400DC00019FE3604330C1E43AE604346E36127620023A361069B002B02D000229B5EA38104BC9046F0BDC0462C060008A8290010682900100000234000102340F0B58FB0DB
:400E0000041E03D150212E4800F0F4FD6368032B03D952212A4800F0EDFDE36A002B03D15621274800F0E6FDE368072B03D95721234800F0DFFD236A072B03D958212048D7
:400E400000F0D8FD236B002B03D159211C4800F0D1FD07AA1300210061C961C321C921C302AD290023001433C1CBC1C141CB41C10821535E0CAE3380079B1933B370089B2A
:400E80000D930B9B0A980096A26AE16AFFF74EFF2B69E868002200920021FFF747FF216B3000FFF7C3FD0023F25E002A05DB1F231A401E3B9340034A13600FB0F0BDC0463C
:400EC000A829001000E100E0F8B504000F0016001D00002A03D1FD21284800F08BFD284B1B68002B03D1FE21244800F083FD072C03D9FF21214800F07DFD072F04D98021B3
:400F000049001E4800F076FD1D4B1B682C2120004843181879435918012213004C68A3401B044468A24014000269002A20D08F69002F1FD11268002A01DA002200E0114A59
:400F4000002A19D132681204120C134333600369DE6001238B614D620569230C03D00A490A4800F047FD2204120CAA60002004E0074802E0074800E00648F8BDA82900105E
:400F80002C06000801008A009A0200006829001004028A0007028A0070B504000D001600134B1B68002B04D16221FF31114800F021FD072C04D9B12149000E4800F01AFD3D
:400FC0000B4B1B682C2060431C18236A002B04D1B3214900074800F00DFDE369B34204D9236AB6009D51002000E0034870BDC0462C060008A82900100A028A0070B582B02D
:40100000040000230193002804D1EA2149002B4800F0F0FC2369002B04D1D621FF31274800F0E8FC6369002B04D1EB214900234800F0E0FC236A002B04D1D821FF311F48EA
:4010400000F0D8FC6269D5682B0C1FD01B041360136820690369002B18DA01A9FFF786FD00280ED1019803681E0CFF221340E269934207D29B00226AD358002B02D098476C
:4010800000E0002631002069FFF736FD2D042D0C0FD063691D601B68636A002B03D098470023636203E0A36A002B00D098470023A36163691B6802B070BDC046A82900109A
:4010C00010B504000B4B1B68002B04D1DA214900094800F08FFC072C04D9B621FF31064800F088FC034B1B682C2060431818FFF785FF10BD2C060008A829001004281DD8F2
:40110000042904D94B1EFF3B9BB2132B18D8FF290CD91F2319400B4A0300C0339B009950D03080000423835000200AE007231940D0308000034BC150002002E0024800E0FE
:40114000014870470000264001004A0070B5041E04D1E221FF314C4800F04CFCB023DB004A4AD358002B01DB002500E0484D002D00D086E0474B22689A4204D9F8214900FB
:40118000414800F037FC23689B03990BE3791B068022520413400B43B022D2003B498B50A2883D4B9A4204D9F821FF31364800F021FC2289394B9A4204D9FC214900324896
:4011C00000F018FCA388DB04D90C23891B04344A13400B43334A2D498B50A37A0F2B04D9FF214900284800F005FCE37A0F2B03D92A49254800F0FEFBA289274B9A4204D9B4
:4012000080218900204800F0F5FBA37A0F211940E27A1201FF2313400B43A289120222490A401343A27B1207C02189050A401343B122D20015498B50A379072B04D9822129
:401240008900114800F0D6FB228A144B9A4203D916490D4800F0CEFB0C4815494658154B1E40A3791B02E022D2001340334343504658114B1E40238A1B04094A13403343E4
:401280004350280070BDC046E82900100000264003004A00FFFF0300FF1F0000FF0100000000FF018405000000FF1F00090200008C050000FFF8FFFFFFFF00FE70B50500EF
:4012C0002D492E4A8B588020000603438B502C0003E0012000F082FB013CB223DB00264AD3585B0701D4002CF3D12349B122D2008858234B03408020800503438B50002DF5
:4013000002D00ED0002C0CD01B49B022D2008B588020000603438B5003E0012000F05EFB013CB223DB00144AD358DB0701D4002CF3D1002D0ED0002C0CD10F4AB021C900D2
:4013400053585B005B0853500C4953585B005B0853500BE0084B0221B222D2009950B121C9005A58C020800502435A50002C01D1044800E0002070BD000026408C05000001
:40138000FFFFFFCF02004A00214B984230D00ED8402831D004D800281FD010282AD031E080282BD080235B00984229D02AE0194B984229D007D8A0231B0698420DD0164BBA
:4013C000984212D01EE0154B98420AD0144B984209D0144B984215D101E0002016E0124814E0124812E0124810E0A020C0030DE007480BE00F4809E00F4807E00F4805E0AF
:40140000034803E00E4801E0A420C0037047C04606005200010000F0090000A0040000F0050000F0030000F00100520002005200030052000100500002005000050052003F
:40144000FF00520010B50C4B1B69002B11DB0B4B1868FFF799FF0121094B0A4AD150084B084AD358002BFAD1074BD358002BF6D100E0064810BDC04600002340300600083E
:401480000C040000000025408C0400000200500010B5022202490020FFF77EFD10BDC0464501000870B505000C00002848D0002948D0FF230A689A4303D08D21224800F0EC
:4014C00099FAFF2322699A4303D08E211E4800F091FAA3685B0D03D08F211B4800F08AFA63685B0A03D09021174800F083FAE3695B0F03D09121144800F07CFA236A5B0F2B
:4015000003D09221104800F075FA104BEB18DB090F4A944663441B0122682A60E268AA622269EA6262692A63A2686A626268AA61A2696A63E2691A60226A5A60002002E00D
:40154000044800E0034870BD702A00100000CEBF0010030401005A000D4BF222D2019A580260F022D2019A5842600A4A9A588260094A9A58C260094A9A580261084A9A5897
:401580004261084A9A588261074A9B58C36170470000344004780000087800000C7800001078000014780000187800000D4BF022D201416899500C4A816899500B4AC16835
:4015C00099500B4A016999500A4A416999500A4A81699950094AC16999500168E83299507047C0460000344004780000087800000C78000010780000147800001878000025
:4016000010B5074A074813580F24A34302210B43135004381358A3431943115010BDC0460000214004F0000010B5074A074813580F24A34303210B43135004381358A34330
:401640001943115010BDC0460000214004F000000449054A8858054B0340C020C00103438B5070470000214004F00000FF8FFFFF0449054A8858054B03408020C001034366
:401680008B5070470000214004F00000FF8FFFFF10B5002000F066FAB0235B055B78002B04D0B0235B055B78DBB200E02123222B03D8002803D1013002E0012000E000206E
:4016C00010BDC04610B50400002000F04BFA00280AD114498A69144B1A40240680235B041C4014438C611BE0002C01D00F4A00E00F4A01210F48FFF719FA00280DD10D4BB7
:401700001B69002BFBDB0B4BDB681B0E1B06A0221206934203D0084802E0074800E0002010BDC04600F02540FFFFFFFE01010030010000300000234004004200F8B505005D
:40174000012804D9EA21C900294800F053F9FFF79FFF002848D000F0E4F90700002D17D1E823DB00B0225205D65CF6B20120FFF7A9FF041E1FD1FFF743FF1E481E494358CB
:401780001F229343143A13434350FFF761FF12E01A4BB0225205D65CF6B21648164943581F229343143A13434350092000F016F9FFF75EFF0024002C12D10E490E4A8B5845
:4017C0001F20834306401E438E50012D08D1163800F004F9FFF728FF0020FFF773FF0400380000F0A2F900E0054C2000F8BDC046F02A0010000026401CFF000041070000B2
:401800000300420070B584B005000E00042803D929492A4800F0EEF8731EDBB2012B07D9042E05D0082E03D02549244800F0E2F8042E01D0012E1DD1224B5C68002013E0F3
:4018400023799D420FD1A368002B01D01E420AD1E36801A85A6842609B688360067023689847184B9C606469002C23D0164B9842E6D11FE0134B9C68022E02D1002C00D010
:401880002469002011E023799D420DD1A368002B01D01E4208D1E36801A85A6842609B6883600670236898472469002C02D0064B9842E8D104B070BD95080000F02A0010BC
:4018C0009608000040060008FF00420070B50500012804D984218900384800F08BF8384B1B68002B05D001210120FFF78BFF040000E00024002C59D100F013F90600304BC6
:401900001B68002B03D004210120FFF77BFFE0232C4AD358DB0603D529480C30FFF71CFEB0235B055B78002B04D0B0235B055B78DBB200E02123212B03D1280000F0E4F985
:401940001FE02149214BCB581F221340E822D200B0204005825CD31A5A1E9341DBB20A68120207D4012B05D1194BC158194B164AD15003E00021174B134AD150280000F085
:40198000CBF9E0230F4AD358DB0603D50C480C30FFF70CFE300000F0C8F8094B1B68002B09D008210120FFF72DFF04E002210120FFF728FF084C200070BDC046F02A001056
:4019C0004006000800000140000026401CFF000010180000307F0000FF00420010B5034B1B78584300F094F810BDC046D400000801BEFEE770B50D00044C182201002000D2
:401A000000F061F9A5610020FFF7F2FF38040008054B802212069A649B6C002B01DB002000E002487047C0460000274003004600054B8022120198585B68FF221A4202D037
:401A40008023DB021843704700002640FEE7C04610B50A4B0268DA6142681A6282685A62C2689A620269DA6242691A6382695A63C2699A63FFF7EAFF10BDC046380400083D
:401A8000F0B5002801D0192200E064228A42924152421C4BE8256D005C590327BC433A4014435C515C59184E34405C51D03D5C59BC4322435A515A5916405E51002805D0B5
:401AC00010290DD921290DD8012014E01D290BD93A290BD957290BD978290BD803200AE0002008E0022006E0002004E0012002E0022000E00420054A13680F218B430343D2
:401B00001360F0BD00002140FFFCFFFF000025400230800803D001300238FCD1C046C0467047EFF3108072B6704780F310887047042805D1094A116804230B4313600CE089
:401B40000006C0239B04184090239B00044AD050024A136804218B431360704710E000E00000214010B504000F2803D9E4210548FFF740FFA402044B9C46644423680F2018
:401B8000184010BD302B001000402440002243088B4274D303098B425FD3030A8B4244D3030B8B4228D3030C8B420DD3FF22090212BA030C8B4202D31212090265D0030BC7
:401BC0008B4219D300E0090AC30B8B4201D3CB03C01A5241830B8B4201D38B03C01A5241430B8B4201D34B03C01A5241030B8B4201D30B03C01A5241C30A8B4201D3CB0256
:401C0000C01A5241830A8B4201D38B02C01A5241430A8B4201D34B02C01A5241030A8B4201D30B02C01A5241CDD2C3098B4201D3CB01C01A524183098B4201D38B01C01A67
:401C4000524143098B4201D34B01C01A524103098B4201D30B01C01A5241C3088B4201D3CB00C01A524183088B4201D38B00C01A524143088B4201D34B00C01A5241411A3E
:401C800000D20146524110467047FFE701B5002000F006F802BDC0460029F7D076E770477047C046002310B59A4203D0CC5CC4540133F9E710BD03008218934202D01970B6
:401CC0000133FAE77047030030B5002A0DD00C7801335D1E013A2C700131002CF5D19A189A4202D01C700133FAE730BDF8B5C046F8BC08BC9E467047F8B5C046F8BC08BC1C
:401D00009E4670470000000001B40248844601BC604700BF6502000801B40248844601BC604700BF390300080300000001000000010000000000000005036000040000000C
:401D4000010000000000000001000000060460000800000000060008A9040010F4010000140004010A0009050800000063010000002034407400802034407400002234406C
:401D80007400802234407400002434407400802434407400002634407400802634407400002834407400802834407400002A34407400802A3440740000213440341F0010B5
:401DC0009000000000233440C41F00109000000000253440542000109000000000273440E420001090000000002934407421001090000000002B3440042200109000000016
:401E000000603440942200107C00000080603440102300107C000000006134408C2300107C00000080613440082400107C00000000623440842400107C00000080623440FC
:401E4000002500107C000000006334407C2500107C00000080633440F82500107C00000000643440742600107C00000080643440F02600107C000000006534406C27001039
:401E80007C00000080653440E82700107C0000005F046301DF04E301DF04E30104283440022A344002000000000000000000000060000000000000000000000000000000BB
:401EC0000000000000000000000000000000000000000000000000BA0000000000000000000000000000000000001D1DF000000000000000000000000000A6AA00000000AE
:401F0000000000000000000000000000080000000700000000000000000000008666000000000000000000000000000014141400000000000000000000000000000000006A
:401F4000FFFFFFFFFFFFFFFFFFFFFFFFFFFFFFFFFFFFFFFFFF000000FFFFFFFFFFFFFFFFFFFFFFFFFFFFFFFFFFFFFFFFFF000000000000000000000000000000000000008B
:401F80000000000000000000FFFFFFFFFFFFFFFFFFFFFFFF111111111111111111111111111111111111111111111111111111111111111111111111111111111111111141
:401FC00011111111000000000000000000000000FFFFFFFFFFFFFFFFFFFFFFFFFFFFFFFFFFFFFFFFFF000000FFFFFFFFFFFFFFFFFFFFFFFFFFFFFFFFFFFFFFFFFF000000C7
:40200000000000000000000000000000000000000000000000000000FFFFFFFFFFFFFFFFFFFFFFFF11111111111111111111111111111111111111111111111111111111D0
:402040001111111111111111111111111111111111111111000000000000000000000000FFFFFFFFFFFFFFFFFFFFFFFFFFFFFFFFFFFFFFFFFF000000FFFFFFFFFFFFFFFF29
:40208000FFFFFFFFFFFFFFFFFFFFFFFFFF000000000000000000000000000000000000000000000000000000FFFFFFFFFFFFFFFFFFFFFFFF1111111111111111111111116D
:4020C000111111111111111111111111111111111111111111111111111111111111111111111111000000000000000000000000FFFFFFFFFFFFFFFFFFFFFFFFFFFFFFFF8C
:40210000FFFFFFFFFF000000FFFFFFFFFFFFFFFFFFFFFFFFFFFFFFFFFFFFFFFFFF000000000000000000000000000000000000000000000000000000FFFFFFFFFFFFFFFFC1
:40214000FFFFFFFF111111111111111111111111111111111111111111111111111111111111111111111111111111111111111111111111C0000000000000000000000073
:40218000FFFFFFFFFFFFFFFFFFFFFFFFFFFFFFF0FFFFFFFFFF000000FFFFFFFFFFFFFFFFFFFFFFFFFFFFFFF0FFFFFFFFFF0000000000000000000000000000000000000067
:4021C000000000FF00000000FFFFFFFFFFFFFFFFFFFFFFFF111111111111111111DD1111111111111111111111111111111111111111111111111111111111111111111134
:4022000011111111800000000000000000000000FFFFFFFFFFFFFFFFFFFFFFFFFFFFFFF2FFFFFFFFFF000000FFFFFFFFFFFFFFFFFFFFFFFFFFFFFFFFFFFFFFFFFF00000011
:4022400000000000000000000000000000000000000000F000000000FFFFFFFFFFFFFFFFFFFFFFFF111111111111111111111111111111111111111111D1111111111111DE
:40228000111111111111111111111111111111111111111100000000000000001F1F1F1F1F1F1F1F1F1F1F1F1F1F1F1F1F1F1F1F1F1F1F1F1F1F1F1F1F1F1F1F00000000EA
:4022C0000000000000000000000000000000000000000000FFFFFFFFFFFFFFFFFFFFFFFF1111111111111111111111111111111111111111111111111111111111111111CA
:402300001111111111111111111111111111111100000000000000001F1F1F1F1F1F1F1F1F1F1F1F1F1F1F1F1F1F1F1F1F1F1F1F1F1F1F1F1F1F1F1F0000000000000000AD
:4023400000000000000000000000000000000000FFFFFFFFFFFFFFFFFFFFFFFF11111111111111111111111111111111111111111111111111111111111111111111111105
:4023800011111111111111111111111100000000000000001F1F1F1F1F1F1F1F1F1F1F1F1F1F1F1F1F1F1F1F1F1F1F1F1F1F1F1F1F1F1F1F00000000000000000000000071
:4023C000000000000000000000000000FFFFFFFFFFFFFFFFFFFFFFFF1111111111111111111111111111111111111111111111111111111111111111111111111111111141
:40240000111111111111111100000000000000001F1F1F1F1F1F1F1F1F1F1F1F1F1F1F1F1F1F1F1F1F1F1F1F1F1F1F1F1F1F1F1F0000000000000000000000000000000034
:402440000000000000000000FFFFFFFFFFFFFFFFFFFFFFFF11111111111111111111111111111111111111111111111111111111111111111111111111111111111111117C
:402480001111111100000000000000001F1F1F1F1F1F1F1F1F1F1F1F1F1F1F1F1F1F1F1F1F1F1F1F1F1F1F1F1F1F1F1F0000000000000000000000000000000000000000F8
:4024C00000000000FFFFFFFFFFFFFFFFFFFFFFFF111111111111111111111111111111111111111111111111111111111111111111111111111111111111111111111111B8
:4025000000000000000000001F1F1F1F1F1F1F1F1F1F1F1F1F1F1F1F1F1F1F1F1F1F1F1F1F1F1F1F1F1F1F1F000000000000000000000000000000000000000000000000BB
:40254000FFFFFFFFFFFFFFFFFFFFFFFF1111111111111111111111111111111111111111111111111111111111111111111111111111111111111111111111110000000037
:40258000000000001F1F1F1F1F1F1F1F1F1F1F1F1F1F1F1F1F1F1F1F1F1F1F1F1F1F1F1F1F1F1F1F000000000000000000000000000000000000000000000000FFFFFFFF3F
:4025C000FFFFFFFFFFFFFFFF1111111111111111111111111111111111111111111111111111111111111111111111111111111111111111111111110000000000000000B3
:402600001F1F1F1F1F1F1F1F1F1F1F1F1F1F1F1F1F1F1F1F1F1F1F1F1F1F1F1F1F1F1F1F000000000000000000000000000000000000000000000000FFFFFFFFFFFFFFFFC2
:40264000FFFFFFFF11111111111111111111111111111111111111111111111111111111111111111111111111111111111111111111111100000000000000001F1F1F1FB2
:402680001F1F1F1F1F1F1F1F1F1F1F1F1F1F1F1F1F1F1F1F1F1F1F1F1F1F1F1F000000000000000000000000000000000000000000000000FFFFFFFFFFFFFFFFFFFFFFFFC2
:4026C00011111111111111111111111111111111111111111111111111111111111111111111111111111111111111111111111100000000000000001F1F1F1F1F1F1F1FB2
:402700001F1F1F1F1F1F1F1F1F1F1F1F1F1F1F1F1F1F1F1F1F1F1F1F000000000000000000000000000000000000000000000000FFFFFFFFFFFFFFFFFFFFFFFF1111111179
:40274000111111111111111111111111111111111111111111111111111111111111111111111111111111111111111100000000000000001F1F1F1F1F1F1F1F1F1F1F1FF9
:402780001F1F1F1F1F1F1F1F1F1F1F1F1F1F1F1F1F1F1F1F000000000000000000000000000000000000005100000000FFFFFFFFFFFFFFFFFFFFFFFF1111111111111111E0
:4027C0001121111111111111111111111111111111111111111111111111111111111111111111111111111100000000000000001F1F1F1F1F1F1F1F1F1F1F1F1F1F1F1F31
:402800001F1F1F1F1F1F1F1F1F1F1F1F1F1F1F1F000000000000000000000000000000000000001000000000FFFFFFFFFFFFFFFFFFFFFFFF111111111111111111F11111F8
:402840001111111111111111111111111111111111111111111111111111111111111111111111110809001014090010200900102C09001038090010440900105009001011
:402880005C09001088090010920900109C090010A6090010B0090010BA090010C4090010CE09001047656E6572617465645F536F757263655C50536F43365C70646C5C64E1
:4028C0007269766572735C7065726970686572616C5C737973696E745C63795F737973696E742E630000000047656E6572617465645F536F757263655C50536F43365C70CB
:40290000646C5C647269766572735C7065726970686572616C5C6970635C63795F6970635F6472762E68000047656E6572617465645F536F757263655C50536F43365C7026
:40294000646C5C647269766572735C7065726970686572616C5C6970635C63795F6970635F6472762E63000047656E6572617465645F536F757263655C50536F43365C70EB
:40298000646C5C647269766572732F7065726970686572616C2F6970632F63795F6970635F6472762E68000047656E6572617465645F536F757263655C50536F43365C702D
:4029C000646C5C647269766572735C7065726970686572616C5C6970635C63795F6970635F706970652E630047656E6572617465645F536F757263655C50536F43365C7009
:402A0000646C5C647269766572735C7065726970686572616C5C737973636C6B5C63795F737973636C6B2E630000000047656E6572617465645F536F757263655C50536F60
:402A400043365C70646C5C647269766572735C7065726970686572616C5C737973636C6B5C63795F737973636C6B2E680000000047656E6572617465645F536F7572636544
:402A80005C50536F43365C70646C5C647269766572735C7065726970686572616C5C6770696F5C63795F6770696F2E630000000047656E6572617465645F536F757263656F
:402AC0005C50536F43365C70646C5C647269766572735C7065726970686572616C5C6770696F5C63795F6770696F2E680000000047656E6572617465645F536F757263652A
:402B00005C50536F43365C70646C5C647269766572735C7065726970686572616C5C737973706D5C63795F737973706D2E63000047656E6572617465645F536F75726365D4
:402B40005C50536F43365C70646C5C647269766572735C7065726970686572616C5C70726F745C63795F70726F742E6300000000000000000000001000000008C000000009
:402B8000942B0010C00000087803000074040008F80100000048E80100127A0000093D0000093D0000093D0004000000A00F00000000D00702FF0000E9000010C1000010A6
:402BC000000000000004400B19D00D4B1B68002BFBDA3E220B4B1A600B4A0C4B1A600C4B0621A322D20099500A4A98509B580022034B5A60074B064AD358002BFADA704792
:402C0000E0002340040126401E1F000008012640000026401C05000010B54378FF2B0DD100F04CF9064BDB685A68116801230B4313601368DB07FCD400F048F910BDC04611
:402C400080002340F0B583B005000F0000F02EF90600032824D12E4B1B69002B22DB002000F044F92B4B98421ED000232A4A0021012000F00BF9002803D0284C17E0013430
:402C800000E00024002000F031F9224B984202D0234B9C42F3D9224B9C4207D91F4C06E0002404E01D4C02E01C4C00E00024002C2BD100F003F901901A4B1B4AD358002BA5
:402CC00013DA1A4A01211A4800F018F900280ED13800FFF777FF002D0BD0154B1B69002BFBDB00F0FBF8040004E00C4C02E00B4C00E0104C032E05D10121002000F0CEF8CF
:402D00000028F9D1019800F0E1F8200003B0F0BDC000234001018800E000000805005200EF4902001C0500000000264030060008000023400100500070B5304B1B68002BD2
:402D4000FBDA2E4BD96802220A43DA60DB68DB071FD52A4EF2681204150C294B1A69120A1204FF2424042240110090241A59120A12060A432A43F2601969224A11409025B5
:402D80002D012943196119590A402A431A511A691B591A4B00225A605B681B4A116904230B431361012801D030BF00E020BF134B1B68002BFBDA114BDB68DB0715D510485C
:402DC0000269104B1A4014000C4DEA68120C1202FF2109020A4022430261902142581340EA68120E120213434350044BDA6802218A43DA6000225A6070BDC046E00023406B
:402E000000002140FF00FFFF00ED00E0164A116904230B431361012801D030BF00E020BF124B1B68002BFBDA86235B00104AD358002B14D10F4A104B1A6006220F4B1A6059
:402E400038320F4B1A6006320E4B1A600D4B1B68002BFBDA0C4986235B00054AD1500022024B5A607047C04600ED00E0E0002340000025401E1F00000801264018052640DB
:402E8000040126401C052640AAAAAAAA01B40248844601BC604700BFC90E001001B40248844601BC604700BF510C001001B40248844601BC604700BF1904001001B4024834
:402EC000844601BC604700BF231B001001B40248844601BC604700BF2B1B001001B40248844601BC604700BF4514001001B40248844601BC604700BFDD0C001001B402481C
:402F0000844601BC604700BF2D0B0010000000000000000000000000000000000000000000000000000000000000000000000000000000000000000000000000000000005C
:402F40000000000000000000000000000000000000000000000000000000000000000000000000000000000000000000000000000000000000000000000000000000000051
:402F80000000000000000000000000000000000000000000000000000000000000000000000000000000000000000000000000000000000000000000000000000000000011
:402FC00000000000000000000000000000000000000000000000000000000000000000000000000000000000000000000000000000000000000000000000000000000000D1
:020000041008E2
:4000000000780408F90208100D00000061030810610308106103081061030810000000000000000000000000000000005D0308105D030810000000005D0308105D0308104C
:400040005D0308105D0308105D0308105D0308105D0308105D0308105D0308105D0308105D0308105D0308105D0308105D0308105D0308105D0308105D0308105D03081000
:400080005D0308105D0308105D0308105D0308105D0308105D0308105D0308105D0308105D0308105D0308105D0308105D0308105D0308105D0308105D0308105D030810C0
:4000C0005D0308105D0308105D0308105D0308105D0308105D0308105D0308105D0308105D0308105D0308105D0308105D0308105D0308105D0308105D0308105D03081080
:400100005D0308105D0308105D0308105D0308105D0308105D0308105D0308105D0308105D0308105D0308105D0308105D0308105D0308105D0308105D0308105D0308103F
:400140005D0308105D0308105D0308105D0308105D0308105D0308105D0308105D0308105D0308105D0308105D0308105D0308105D0308105D0308105D0308105D030810FF
:400180005D0308105D0308105D0308105D0308105D0308105D0308105D0308105D0308105D0308105D0308105D0308105D0308105D0308105D0308105D0308105D030810BF
:4001C0005D0308105D0308105D0308105D0308105D0308105D0308105D0308105D0308105D0308105D0308105D0308105D0308105D0308105D0308105D0308105D0308107F
:400200005D0308105D0308105D0308105D0308105D0308105D0308105D0308105D0308105D0308105D0308105D0308105D0308105D0308105D0308105D0308105D0308103E
:400240005D0308105D0308105D0308105D0308105D0308105D0308105D0308105D0308105D0308105D0308105D0308105D0308105D0308105D0308105D0308105D030810FE
:400280005D0308105D0308105D03081010B5054C237833B9044B13B10448AFF300800123237010BD1C5202080000000050B90810084B10B51BB108490848AFF300800848A4
:4002C000036803B910BD074B002BFBD0BDE81040184700BF000000002052020850B90810E44C0208000000007047EFF3108072B6704780F310887047FFF7F6FF72B6114C9E
:40030000114DAC4209DA21686268A368043BA2BFC858D050FAE70C34F3E70C490C4A00209142BCBF41F8040BFAE70A480A490860BFF34F8F00F004FE00F0DEFD00F0E2FCEB
:40034000FEE7000054B908106CB908101C520208C4D202080040020808ED00E0FEE7FEE700B504207146084202D0EFF3098001E0EFF30880043002F0D1FBFEE7F8B5064603
:400380000F4601F097FC0546064C3B4632460146204601F0F3FA41F2B0622946204608F05DFDF8BD3852020838B52A4B0122C3F87021D3F87031284B93F8B835002B48D023
:4003C00008F07AFD254B83FB0032C317C3EB621340F22D1202FB13031F4CC4F8BC35204D2A68A2F10A0000EBD0704010D4F8C01501EBD171491002EBD272521003EBD373CF
:400400005B10C3F196031E32C1F196011E3003F075FE01210020FFF7B1FFD4F8BC35C4F8C0352B680A332B6002F072FC20B12A68D4F8C4359A420CDB074B002283F8B825EF
:400440000A2007490860C3F8C025C3F8BC25C3F8C82538BD00003840306302084B48371B8C42020808B5002003F080F96FF07F4003F078F903F028FA01210846FFF77EFF2C
:4004800008BD00BF08B5284B5A68284BC3F8CC2202F03EFCD0B102F02FFCB8B102F032FC0028F5D112E020484368204AC2F8CC3201331F4A82FB0321DA17C2EB611264216E
:4004C00001FB12324260142002F0FEFA02F020FC0028E8D002F010FC20B90122154BC3F8CC2508BD02F00EFC20B90322114BC3F8CC2508BD0F4BD3F8CC35012B01D0032B2B
:4005000004D100220B4BC3F8CC2508BD094AD2F8C8350133C2F8C835032B03D10222054BC3F8CC2508BD00BF8C420208000038401F85EB5130630208F0B5A1B0FFF792FF08
:40054000404C14AE04F13007354620686168A268E3680FC510342E46BC42F5D1394C0EAD264656F8300F7168B268F3680FC53069716903C506AD04F148060FCE0FC596E8D5
:400580000F0085E80F006D4668340FCC0FC594E8030085E803009623FE2214210A2003F065F9C8231E221421104603F0A7FD9623FA2219461E2003F0A1FD002415E020AB06
:4005C00003EB840353F8685C9B232A469621284603F094FD04EB440358009B22A5F10A0114AB184403F05AFB0134072CE7DD002413E0A50020AB2B4453F8806CC6F1AA0196
:400600000B461E22192003F079FDC6F1A40205210EAB581903F042FB0134052CE9DD0A4B9B68013B094A52F83330094CC4F8C43501210020FFF7A2FE012384F8B83521B0AA
:40064000F0BD00BF389808108C420208A884020830630208F0B5A1B0FFF704FF002003F085F86FF07F4003F07DF8002003F0B0F8002003F0B7F84E4C14AE04F130073546F6
:4006800020686168A268E3680FC510342E46BC42F5D1474C0EAD264656F8300F7168B268F3680FC53069716903C506AD04F148060FCE0FC596E80F0085E80F006D466834A1
:4006C0000FCC0FC594E8030085E803009623FE2214210A2003F0CAF8AA231E221421104603F00CFD9623FA2219461E2003F006FD002415E020AB03EB840353F8685C9B234D
:400700002A469621284603F0F9FC04EB440358009B22A5F10A0114AB184403F0BFFA0134072CE7DD002413E0A50020AB2B4453F8806CC6F1AA010B461E22192003F0DEFC37
:40074000C6F1A40205210EAB581903F0A7FA0134052CE9DD012420E0621E164B53F8320000EBD070401003EBC202516801EBD171491053F8342002EBD272521003EBC40335
:400780005B6803EBD3735B10C3F196031E32C1F196011E3003F0B2FC0134074B9B689C42DADB01210020FFF7E9FD21B0F0BD00BF38980810A88402088C42020870B586B039
:4007C000FFF750FE002002F0D1FF6FF07F4002F0C9FF002002F0FCFF002003F003F803F073F8002311E0304AD2F8C825652101FB02312E4A02EBC10214692D4901EBC300BE
:400800004460D26841F833200133284A92689342E9DB284802F0AEFF022002F0CFFF224BD3F8C8254FF44A71204B01FB023305228421D3F8300303F031FA00242AE054B942
:400840001E2214211C4803F029FA1E2264211B4803F024FA1DE0164D194E55F834203146684608F063FB05EBC4056A68314603A808F05CFB631E03EB83039D0032352A4608
:400880001421684603F00AFA2A46642103A803F005FA0134054B9B689C42D0DB01210020FFF76CFD06B070BD306302088C420208A8840208989D0810B8980810C498081063
:4008C000D8980810F0B591B0FFF7CCFD002002F04DFF6FF07F4002F045FF002002F078FF002002F07FFF02F0EFFFBB4802F042FF022002F063FF05228421B84803F0CEF9EE
:40090000B74B19225A6000241C60B64908A808F00DFB1E220A2108A803F0C0F901212046FFF72CFD012661E002F0F2F928B302F0E3F910B302F0E6F90028F5D11DE002F0A4
:40094000E7F908B9013400E00A34B4F5967F00DB19243223C8221E210A2002F087FF2246A04908A808F0E2FA1E220A2108A803F095F901210020FFF701FD02F0C9F900280A
:40098000DDD002F0B9F90028D9D0002500E0012502F0B8F90028FAD04DB3914B03EBC602546006EB860543F83650234632468E4908A808F0BBFAAA0032320A2108A803F0E1
:4009C0006DF901363223C8221E210A2002F04EFF1922844908A808F0A9FA1E220A2108A803F05CF901210020FFF7C8FC1924052E9ADDFFF737FD002002F0B8FE6FF07F40CA
:400A000002F0B0FE002002F0E3FE002002F0EAFE02F05AFF704802F0ADFE022002F0CEFE05228421714803F039F901227049684608F07CFA1E220A21684603F02FF90121B1
:400A40000020FFF79BFC00260127344662E0B44200D1741C02F05CF928B302F04DF910B302F050F90028F5D11DE002F051F908B9013400E00A34B4F5C87F00DB741C322325
:400A8000C8221E210A2002F0F1FE22465849684608F04CFA1E220A21684603F0FFF801210020FFF76BFC02F033F90028DDD002F023F90028D9D0002500E0012502F022F961
:400AC0000028FAD035B3464B43F8374023463A464849684608F02AFA07EB87039A0032320A21684603F0DAF801373223C8221E210A2002F0BBFE22463D49684608F016FA4E
:400B00001E220A21684603F0C9F801210020FFF735FC2646052F9ADDFFF7A4FC002002F025FE6FF07F4002F01DFE002002F050FE002002F057FE02F0C7FE274802F01AFE7B
:400B4000022002F03BFE05226E212B4803F0A6F819220A21294803F0A1F801210020FFF70DFC02F0D5F830B102F0C6F818B102F0C9F80028F5D1002400E0012402F0C8F835
:400B80000028FAD0002500E0012502F0B5F80028FAD0002600E0012602F0B4F80028FAD034B1174B0022C3F8CC25C3F8C82510E03DB1134B0122C3F8CC250022C3F8C82538
:400BC00007E036B10E4B0322C3F8CC250022C3F8C82511B0F0BD00BF989D0810DC980810A8840208F4980810109908102499081034990810489908105C990810849908109D
:400C00003063020838B5FFF72DFC002002F0AEFD6FF07F4002F0A6FD002002F0D9FD002002F0E0FD02F050FE174802F0A3FD022002F0C4FD05228421144803F02FF801215A
:400C40000020FFF79BFB02F063F818B102F054F80028F8D1002400E0012402F059F80028FAD0002500E0012502F046F80028FAD014B1FFF727FE38BD2DB1054B0022C3F8F8
:400C8000CC25C3F8C82538BD989D0810A09908103063020810B5154C1549204601F068F8B4F90030002B08DB5A0903F01F000121814060320F4840F82210002B08DB59092A
:400CC00003F01F03012202FA03F30A4A42F8213062B6094C094A0121204601F063FB0223A360074AC4F85421236110BD909A0810A903081000E100E0000038404C9D081019
:400D00003F420F0008B5FFF7C5FF01F0DDFF02F00BFE142000F01EFE012000F023FE104B93F8B835002BFAD10D4BD3F8CC3523B9FFF744FDFFF7A6FBF1E7012B04D1FFF70C
:400D4000FBFBFFF79FFBEAE7022B02D1FFF75AFFE5E7032BE3D1FFF77DFCFFF793FBDEE730630208704700BF5C4AD2F8803303F00F0303F1D00152F8212002F00702032AB4
:400D800004D0042A05D092B9554914E0554A116811E003F1C002514951F8222002F01F02112A06D0132A04D04FF4FA4103E04E4901E04FF400418BBB484BD3F8902502F0BE
:400DC0000100D3F88825C2F30172D3F8883513F0405F07D0414BD3F88835C3F30173012B02D102E0012300E0002303B108B9032A46D13A48D0F88025C2F31103D0F8842529
:400E0000C2F30C02D0F88005C0F300600130B1FBF2F202FB03F2B2FBF0F131E0012B2FD12E4BD3F8402602F00100D3F80026C2F30172D3F8003613F0405F07D0274BD3F8A4
:400E40000036C3F30173012B02D102E0012300E0002303B108B9032A12D12048D0F8002602F07F02D0F80036C3F30423D0F80006C0F3044002FB01F2B2FBF3F2B2FBF0F10C
:400E8000164BD3F88033C3F3011321FA03F215494A601648D0F89030C3F3072301330069000E0130B2FBF0F08860B2FBF3F3CB600B6103F5742202F23F220D48A0FB020259
:400EC000C2F387420A7503F2E7330A4AA2FB03239B098B61DB03CB61704700BF0000264000127A00104C020800366E010000214083DE1B43D34D621008B5104BD3F880218C
:400F000022F0404242F08042C3F88021D3F8802142F00042C3F88021D3F8802122F00102C3F88021FFF71EFFFFF71EFF00F0CCFE00F0D2FE01F0A2FD08BD00BF000026409A
:400F400008B5FFF7D2F9074AD2F8883043F47003C2F88830BFF34F8FBFF36F8FFFF7C9F908BD00BF00ED00E02DE9F04180460E4617460A4C08256560702000F06FFD404643
:400F800000F06CFDA5606560722000F067FD3946304600F0C7FDA560BDE8F0810006324000B583B002AB03F8011D01221946FFF7DBFF03B05DF804FBF8B507460E46094C42
:400FC00008256560702000F049FD384600F046FDA5606560732000F041FD304600F06EFDA560F8BD0006324038B50425084B5D60084C402363601023636000F0FFFC08224F
:40100000054B5A6065602023636000F0E1FC38BD00003240800232400006324010B5434C6F220021204607F03FFF631C236704F14E03636704F12203A36700F0C9FC03E0C5
:4010400000F0D0FC032868D800F0AEFD0028F7D100F0CEFC00217220FFF7AEFF00F00F0002285CD14021FFF79BFF00210F20FFF7A3FF10F0800F54D002210B20FFF790FFF9
:4010800008222B490120FFF76FFFD1210720FFF787FF02210820FFF783FFC2210920FFF77FFF03210420FFF77BFF01210320FFF777FF00210320FFF773FF0A2001F004FD04
:4010C000002400E01C4601210520FFF769FF642001F0FAFC03210520FFF762FF322001F0F3FC0F210520FFF75BFF322001F0ECFC00210F20FFF760FF10F0400F05D04021AE
:401100000220FFF74DFF234603E0631C9BB2042CD8D1032B07D9052010BD012010BD022010BD032010BD002010BD00BF00690208089A081010F1090F0EDB10F1040F0EDBB5
:4011400005280FDD0A2810DD0F2811DD142811DD282811DC5A2210E04FF496620DE04FF461720AE04FF4167207E04FF4A57204E0DC2202E0B42200E03C22034BA3F87C20AE
:40118000A3F87E20704700BF006902082DE9F84F06460D46047828B1CA4B984205D10127002403E00127FF2400E0002700F010FC4FF00008D0E1C8EBC80AC8EB0A1ADFF84F
:4011C0000C930AEB090B6F220021584607F06CFE0BF1010EBC4BC3F870E00AF148004844063058670AF1200AD14409F10209C3F878902022002397E10FB934780136032DFB
:4012000000F29081DFE815F004006500C600270100EB030C14F0400F01D0C02100E080218CF8001049B214F0100F02D04FF0300A01E04FF0200A4AEA01018CF8001014F0F3
:40124000040F02D04FF00C0A01E04FF0080A4AEA01018CF8001014F0010F02D04FF0030A01E04FF0020A4AEA01018CF800100EEB020C14F0800F01D0032100E002218CF8FA
:40128000001049B214F0200F02D04FF00C0A01E04FF0080A4AEA01018CF8001014F0080F02D04FF0300A01E04FF0200A4AEA01018CF80010013A92B214F0020F02D06FF08E
:4012C0003F0A01E06FF07F0A4AEA01018CF8001028E100EB030C14F0400F01D0802100E040218CF8001049B214F0100F02D04FF0200A01E04FF0100A4AEA01018CF8001018
:4013000014F0040F02D04FF0080A01E04FF0040A4AEA01018CF8001014F0010F02D04FF0020A01E04FF0010A4AEA01018CF800100EEB020C14F0800F01D0022100E00121C5
:401340008CF8001049B214F0200F02D04FF0080A01E04FF0040A4AEA01018CF8001014F0080F02D04FF0200A01E04FF0100A4AEA01018CF80010013A92B214F0020F02D0D0
:401380006FF07F0A01E04FF0400A4AEA01018CF80010C7E000EB030C14F0400F01D0C02100E040218CF8001049B214F0100F02D04FF0300A01E04FF0100A4AEA01018CF839
:4013C000001014F0040F02D04FF00C0A01E04FF0040A4AEA01018CF8001014F0010F02D04FF0030A01E04FF0010A4AEA01018CF800100EEB020C14F0800F01D0032100E011
:4014000001218CF8001049B214F0200F02D04FF00C0A01E04FF0040A4AEA01018CF8001014F0080F02D04FF0300A01E04FF0100A4AEA01018CF80010013A92B214F0020FAB
:4014400002D06FF03F0A01E04FF0400A4AEA01018CF8001066E000EB030C14F0400F01D0802100E0C0218CF8001049B214F0100F02D04FF0200A01E04FF0300A4AEA01017B
:401480008CF8001014F0040F02D04FF0080A01E04FF00C0A4AEA01018CF8001014F0010F02D04FF0020A01E04FF0030A4AEA01018CF800100EEB020C14F0800F08D00221A1
:4014C00007E000BFFFFF0F1000690208D884020803218CF8001049B214F0200F02D04FF0080A01E04FF00C0A4AEA01018CF8001014F0080F02D04FF0200A01E04FF0300A97
:401500004AEA01018CF80010013A92B214F0020F02D06FF07F0A01E06FF03F0A4AEA01018CF8001001339BB2202B7FF665AEC8F1AF031BB299101A4A134003D5013B63F0ED
:4015400003030133174A02FA83F31B7A09F8013008F101081FFA88F8B8F1AF0F7FF62BAE00240FE0C4EBC403C4EB03136F220E4919440A20FFF7F8FC07210220FFF710FD53
:401580000134A4B2AF2CEDD9084BB3F87C4000F029FA8442E4D800F02BFABDE8F88F00BF03000080089A0810D8840208006902082DE9F04706460D4600F00AFAD22109209E
:4015C000FFF7EEFC0024C6E0C4EBC407C4EB0717DFF8008207EB08096F220021484607F063FC09F1010C784BC3F870C007F1480EC6440EF1060EC3F874E02037B84408F18D
:401600000208C3F87880202000218EE0771C32786E1C95F800900EEB010582EA090212F0400F04D019F0400F03D0802302E0402300E0C0232B705BB212F0100F05D019F022
:40164000100F05D04FF0200A04E04FF0100A01E04FF0300A4AEA03032B7012F0040F05D019F0040F05D04FF0080A04E04FF0040A01E04FF00C0A4AEA03032B7012F0010F27
:4016800005D019F0010F05D04FF0020A04E04FF0010A01E04FF0030A4AEA03032B700CEB000512F0800F04D019F0800F03D0022302E0012300E003232B705BB212F0200F16
:4016C00005D019F0200F05D04FF0080A04E04FF0040A01E04FF00C0A4AEA03032B7012F0080F05D019F0080F05D04FF0200A04E04FF0100A01E04FF0300A4AEA03032B70C3
:40170000013880B212F0020F05D019F0020F04D06FF07F0203E0402201E06FF03F0213432B70013189B235463E4620297FF66EAFC4F1AF031BB29910244A134003D5013BD8
:4017400063F003030133224A02FA83F31B7A08F801300134A4B2AF2C7FF636AF002421E0C4EBC405C4EB05151A4B1D446F2229460A20FFF7F9FB07210220FFF711FCC4F136
:40178000AF0343F38D032B44002283F822206F2229460A20FFF7E8FB07210220FFF700FC0134A4B2AF2CDBD9074BB3F87E4000F019F98442D2D800F01BF9C2210920FFF7D7
:4017C000EFFBBDE8F08700BF0069020803000080089A0810D8840208002307E01349086F5522C254496FCA5401339BB2202BF5D970B5002416E0A6080C4DAA6F04F00303DB
:401800000B490B441B7A93556F2229460A20FFF7ABFB07210220FFF7C3FBAB6F00229A550134A4B2AF2CE6D970BD00BF00690208089A081008B5002304E00021094AD154FE
:401840000133DBB2152BF8D900210420FFF7A8FB6F2204490A20FFF787FB07210220FFF79FFB08BD0069020838B50E4C1023A360142001F029F900F0D9F808220A4B9A6028
:401880004023A3600425A5600A2001F01DF965600A2001F019F9A5600A2001F015F9FFF7BDFB38BD800232400006324038B5FFF793FFFFF7BFFF1E2001F006F9234C402509
:4018C0006560322001F000F9A56000210F20FFF773FB10F0400F36D000210B20FFF760FB01210320FFF75CFB03210520FFF758FB01210520FFF754FB322001F0E5F88021CB
:401900000420FFF74DFB00210520FFF749FB01210720FFF745FB1E2001F0D6F800F094F8102363606560142001F0CEF80822084B5A60042363602025A5601E2001F0C4F8D1
:401940006560002038BD042038BD00BF800232400006324010B50446FFF746FB2046FFF7E9FB10BD08B510B1FFF77EFF01E0FFF79DFF08B9012008BD002008BDF8B507460C
:401980000E4614461D4613B10120FFF7EBFF24B931463846FFF70CFE15E0631EDBB2012B11D800213846FFF7F1FB012C07D101213846FFF7EBFB02213046FFF7E7FB0321D0
:4019C0003046FFF7E3FB15B10020FFF7CBFFF8BD08B50022024BC3F8082100F08FF908BD00003840014BD3F808017047000038400122014B5A6070470000384010B5074CBE
:401A0000074A0849204600F069FE236843F0004323600822044B9A6010BD00BF000067402CD10208A09A0810000632400822044B9A60044A136843F000431360704700BFB1
:401A4000000632400000674008B50249024800F08BFF08BD2CD102080000674008B50146154800F0DDFD144BD3F8C03F13F0040FF9D0114BD3F8042242F48032C3F80422BF
:401A8000D3F8042222F48032C3F80422D3F80422D3F8042342F48032C3F80423D3F8042322F48032C3F80423D3F804230422C3F8C02FD3F8C03F08BD0000674008B5014647
:401AC000174800F0ADFD164BD3F8C03F13F0040FF9D0134BD3F84003D3F8042242F48032C3F80422D3F8042222F48032C3F80422D3F80422D3F8042342F48032C3F8042376
:401B0000D3F8042322F48032C3F80423D3F804230422C3F8C02FD3F8C03FC0B208BD00BF0000674038B50C46054600B121B940F2AB511B4800F0E2FF22462946194800F041
:401B4000B5FD184AD2F80832C3F30803D2F80822C2F3C032D342F4D1124BD3F8042242F48032C3F80422D3F8042222F48032C3F80422D3F80422D3F8042342F48032C3F8E0
:401B80000423D3F8042322F48032C3F80423D3F804230422C3F8C02FD3F8C03F204638BD149A081000006740044B1B6913F0080F01D0012070470020704700BF80023240EE
:401BC00008B54FF48071034801F0B6F9024801F047FE08BD806902081CAF0810024A136801331360704700BF28D1020810B52021002001F02FF8002409E0204601F05AF813
:401C000020B90849204601F047F802E00134042CF3D9042C03D9A421034800F06FFF00F0F5FF10BDDD1B0810549A081008B5FFF7DDFF08BD10B582B002AC012344F8043DF6
:401C400000231A461449154801F08AFF214603F042FB03F0A1FF60B14FF48472B021002004F07FF84FF48472B021002004F0A5F80BE0B0224FF48471002004F072F8B022DD
:401C80004FF48471002004F098F80549002004F07FF802B010BD00BFA4B60810D8B60810304C0208012901D1002070474FF0FF30704700BF00487047806A020808B501200B
:401CC00000F052FB08BD00BF08B500221146042000F0D8F808BD00BF10B5064800F08EF900F077FF0446044800F0F4F9204600F074FF10BD308102085C9A081008B5084BB3
:401D00001B783BB9074A0021074800F04BFB0122034B1A70044B01229A609A6108BD00BFB0820208D49A08100000384038B50C4B9A680C4B9A420ED10D46044619B9FC2121
:401D4000094800F0DBFE04F11003064A52F8230042F8235038BD1030044B53F8200038BD00ED00E000400208209B08100000081070B338B504460D464368072B03D9362134
:401D8000154800F0BBFEB4F900306268002B08DB5201D2B203F1604303F5614383F8002305E003F00F035201D2B20C49CA540C4B9A680C4B9A420DD11DB94521064800F0A8
:401DC0009DFE2946B4F90000FFF7B0FF002038BD05487047002038BD209B081014ED00E000ED00E0004002080100560038B50369002B0DDA0D4604460B0C1B0423B140F2F3
:401E0000B321044800F07AFEA9B26160002038BD014838BD649B081001008A0038B50368002B01DA002300E0094B73B90D460446C2600B0C1B0423B140F29A21054800F035
:401E40005DFEA9B2A160002038BD014838BD00BF01008A00649B081038B504460D4619B99921064800F04AFE2369002B03DAE3682B60002038BD024838BD00BFA49B081087
:401E800001008A000F2840D8F8B515460E46044682B979B90F2804D940F2A911214800F02DFE600100F1804000F50C101E4B18600020F8BD5DB366B316F01F0F2BD10F2C44
:401EC00004D940F2A911174800F018FE640104F1804404F50C14144F3C607E60BD60F2080021284606F0E0FF00212046FFF77EFF3A4652F8040B0021FFF790FF68B900216A
:401F00003868FFF773FF50B9F8BD084870470748F8BD0648F8BD0548F8BD0548F8BD0448F8BD00BFE49B0810B482020803018A0001018A002DE9F0411B4B1B68DC68236819
:401F400083422CD90D464609A0EB4610012303FA00F819B900F03DFE074600E00027124B18680368002B01DA002300E00F4B83B9626852F8263018EA030F05D023EA080358
:401F800042F82630002400E0094C0021FFF72EFF00E0084C25B9384600F01FFE00E0064C2046BDE8F08100BFB482020801008A00020188000301880004018A000B4B1B68A0
:401FC000DB681A6882420CD94109A0EB4110012202FA00F05B6853F82130184203D004487047044870470448704700BFB48202080101880004018A0000018800024B1B6838
:402000000BB9014B18607047C08202082DE9F8430446884691461E46089F2A4B1B681BB9B421294800F06AFD072C03D9B521264800F064FD234B1B682C2000FB04F01C185D
:40204000F5B21D50C6F307236360360CA6600F2D04D940F2A9111D4800F050FD6D0105F1804505F50C15256165680F2D04D94FF4E271164800F042FD154B03EB4515656176
:40208000A668330C1B0423B14FF4F1710F4800F035FD330C1B0423B140F2E3110B4800F02DFDB3B243EA0646AE60C4F81C90C4F820800023A36117B1B7F90030A381BDE8B5
:4020C000F88300BFC0820208249C0810E49B081000102340F0B58FB0044618B950212C4800F00CFDA369072B03D95421284800F005FDE36A1BB95621254800F0FFFCE3686F
:40210000072B03D95721224800F0F8FC236A072B03D958211E4800F0F1FC236B1BB959211B4800F0EBFC07AE04F114050FCD0FC62F6802AD26460FCE0FC533682B60079BBF
:402140001933ADF83030089B0D93A26AE16A0CAD00953B460A98FFF759FF00210091069B0A460598FFF752FF216B2846FFF700FEBDF93030002B08DB590903F01F03012282
:4021800002FA03F3034A42F821300FB0F0BD00BF249C081000E100E0F8B506460F461D4614461AB9FD21264800F0A8FC254B1B681BB9FE21224800F0A1FC072E03D9FF2185
:4021C0001F4800F09BFC072F04D94FF480711C4800F094FC1B4B1B682C2101FB063001FB07314B68012202FA03F31B04466802FA06F60269EAB18F69EFB91268002A01DA78
:40220000002200E0104AC2B92288134323600369DC6001238B614D620469330C1B0423B140F29A21094800F069FCB2B2A2600020F8BD0748F8BD0748F8BD0648F8BD00BFA6
:40224000249C0810C082020801008A00E49B081004028A0007028A00F8B505460F461646124B1B6823B940F26111114800F046FC072D04D94FF4B1710D4800F03FFC0B4B15
:402280001B682C2404FB0534236A23B94FF4B371074800F033FCE369B34204D9236A43F826700020F8BD0348F8BD00BFC0820208249C08100A028A0070B582B000230193FD
:4022C000044620B94FF4EA71264800F017FC236923B940F2D511234800F010FC636923B94FF4EB711F4800F009FC236A23B940F2D7111C4800F002FC6369DD682A0C1CD01A
:4023000012041A601B6820690369002B15DA01A9FFF7A2FD60B9019803681E0CDBB2E269934206D2226A52F8233013B1984700E0002631462069FFF759FDADB275B1636901
:40234000ADB21D601B68636A1BB198470023636202E0A36A03B198470023A36163691B6802B070BD249C081010B504460B4B1B6823B94FF4DA710A4800F0C0FB072C04D990
:4023800040F2B511064800F0B9FB044B1B682C2000FB0430FFF790FF10BD00BFC0820208249C081000287DD00346002A7CD070B45068000280B29568AD0405F480252843B6
:4023C000D468240404F4403404431069000600F0E0602043147F0CB1012400E0002420430C1DA4011851D06828B903EB81100024C0F808410CE0012805D1146803EB8110FE
:40240000C0F8084104E003EB81100124C0F80841106938B9546903EB8110C0F80C419469C0F81041146803EB8110C0F81441906CB0F1FF3F17D0946A04F00F04166B3602D9
:4024400006F470663443956B2D0405F470252543146C2403A4B22C430001C0B2204303EB8114C4F82001506A00F00300D66A360106F030063043556B2D0205F44075284381
:40248000D46BA401E4B20443506C800000F00C00204303EB8113C3F82401126AC3F83821002003E0024870470148704770BC70470100B600002800F0AC8070B40446002A54
:4024C00000F0A98092F828300BB1012500E00025137F0BB1022300E000231D431669B60406F4802645EA060395682D0405F440351D431668300600F0E0602843136B556B8A
:4025000043EA45031B0503F440130343906B43EA8000052E03D1D3681B029BB202E053681B029BB20343081D800123501368062B08D104EB81130120C3F808013F20C3F8B5
:4025400028011DE0936843B904EB81130020C3F808013120C3F8280112E0012B08D1506904EB8113C3F808011C20C3F8280107E004EB81130120C3F808011220C3F8280126
:40258000106A04EB8113C3F80C01506AC3F810015069C3F814019069C3F81801136EB3F1FF3F17D0106C00F00F00966C360206F470663043156D2D0405F470250543906DB2
:4025C000000380B228431B01DBB2034304EB8110C0F82031D36B03F00303566C360106F030063343D56C2D0205F440752B43506D8001C0B21843D36D9B0003F00C03034337
:4026000004EB8114C4F82431D36AC4F83831002002E002487047014870BC70470100B600036813F4006F01D0802200E04022D0F80832C3F30803934203D0C0F84012012091
:4026400070470020704700BF10B4D0F8003203F00F03072B06D900230DE0CC5CC0F84042013300E000239342F7D306E031F81340C0F8404201339342F8D35DF8044B704726
:4026800010B51446036813F4006F01D0802200E04022D0F80832C3F30803D31AA34200D81C462246FFF7D0FF204610BDF8B507460D461446D0F8006206F00F060BE0224607
:4026C00029463846FFF7DCFF072E01D9430000E003461D44241A002CF1D1F8BD002800F03081F8B50546002900F02D810B78012B03D19948854200F02881087F18B19648E5
:40270000854240F0248116460C46012B03D94C21924800F0F3F96378012B07D9052B05D0022B03D04D218D4800F0E8F9A378032B03D94E21894800F0E1F92378012B07D156
:402740006368023B0E2B03D95021844800F0D6F9A36933F00F0303D05121804800F0CEF9A368043B0C2B03D952217C4800F0C6F9E368043B0C2B03D95321784800F0BEF980
:402780006378022B07D0A268E3689A4203D05421724800F0B3F9636A33F06D0303D056216E4800F0ABF9E36A33F0730303D057216A4800F0A3F9236B33F4206303D0582184
:4027C000664800F09BF96378A778052B07D8DFE803F0060305060603022700E00027A368082B04D8E368082B03D9002302E0002300E0012313B14FF4006200E00022217FEC
:4028000011B14FF4807300E000231A436368013B03F00F03134343F080732B60236A2A6812F4006F01D0802200E04022934203D365214A4800F062F9A36A2A6812F4006FC2
:4028400001D0802200E04022934203D36621434800F054F9237D0BB9012100E000216278052A01D1022300E000230B43E17C09B1102100E000210B43617C09B1202100E082
:4028800000210B432178012902D14FF0004100E000210B43BF0007F00C073B43A169090201F470610B43120602F0407213432B62237C13B14FF4807200E00022A17C11B1BC
:4028C0004FF4007300E000231A43A368013B03F00F031343C5F8003394F82030C5F80433237C13B14FF4807200E00022E368013B03F00F031343C5F8003294F82830C5F854
:402900000432636A03F06D03C5F8C83FE36A03F07303C5F8883F236B03F40073C5F8003F236B03F40063C5F8403F0023C5F8C83E7EB118463360B361F360F361084B336272
:40294000F8BD084870470748F8BD0648F8BD0548F8BD0020F8BD00BF00006940A89C0810EFCDAB000140AA00036823F00043036019B100220A60CA608A61036A002B04DBA1
:402980000023C0F8C83FC0F8883F70471F4B98422DD00CD840282ED003D8E8B1102828D02FE0802829D0B0F5807F28D029E0184B984228D006D8B0F1204F0DD0154B984241
:4029C00012D01EE0144B98420AD00133984209D0023B984215D101E0002070470F4870470F4870470F4870474FF4A0007047074870470D4870470D4870470D48704703480F
:402A000070470C4870474FF4A400704706005200010000F0090000A0040000F0010052000200520003005200010050000200500005005200FF00520008B50C4B1B69002B46
:402A400012DB0B4B1868FFF7A1FF0122094BC3F88C24084BD3F80C34002BFAD1054BD3F88C34002BF5D108BD034808BD20002340C4820208000025400200500000B583B0B4
:402A80005523ADF80030002301930C496846FFF76FF9BDF90030002B08DB590903F01F03012202FA03F3064A42F82130022205490120FFF7D1FB03B05DF804FB654D02083E
:402AC00000E100E0394D020810B5044605E0084B186800F075F8A4F50044B4F5004FF6D8044B186800FB04F000F06AF810BD00BF2C4C0208284C020801BEFEE738B50D463E
:402B0000044C18220146204606F034FAA5610020FFF7F2FF88510208FEE700BF08B50268254BDA6142681A6282685A62C2689A620269DA6242691A6382695A63C2699A6343
:402B40001E4A916AD963D16A1964516A5964516B9964926BDA64F1EE103A13F0900F27D0026A154B1A65426A5A65826A9A65C26ADA65026B1A66426B5A66826B9A66C26B50
:402B8000DA66026C1A67426C5A67826C9A67C26CDA67026DC3F88020426DC3F88420826DC3F88820C26DC3F88C20026EC3F89020FFF7B2FF08BD00BF8851020800ED00E0A3
:402BC0000230800803D001300238FCD100BF00BF7047EFF3108072B6704780F310887047084B1B6813F4803F07D17047064B53F8243003B19847013401E010B50024042CEB
:402C0000F4D910BD10E000E004830208044B1A6842F002021A601A6842F001021A60704710E000E0042805D1084A136843F0040313607047000600F04070054BC3F840023A
:402C4000024A136823F004031360704710E000E00000214010B50C46002304E000210A4A42F823100133042BF8D9084A084BDA63FFF7D8FF24F07F44064B5C6000229A6035
:402C8000FFF7C4FF10BD00BF04830208E12B08100040020810E000E00346042805D8044A52F8200042F8231070470020704700BF04830208042803D8024B53F82000704735
:402CC000002070470483020808B5084B1B783BB9074A07210748FFF7EDFB0122034B1A70044B80229A609A6108BD00BF18830208E89C081000003840014B1878704700BFBF
:402D000024163440014B1878704700BF20163440014B1878704700BF2C163440064B5A68596B01325A60C2008A18596A51600021117058627047C04650D102080F2330B5EA
:402D400042680E4CD90009190D6C2100AA4202D2013BF7D211E00F2B0FD82468A21A0A608268C068002A00D05060002801D0026003E00833DB00CB185A6030BD50D102086C
:402D8000F8B5284C0600E368A26B013B0818D3180D00984206D80368002B03D14368F618FFF7CCFFA36B9D420BD92B1F1F68EF1B3B68002B05D17B683800F6183D00FFF7F8
:402DC000BDFF0F23DA00A218126C964202D2013BF8D225E00F2B23D80833DA00A21850680022A91904392A606E60A8602D610E6029000831904200D04160EA602200DB00F7
:402E0000E318A860596023682932F31823601278002A05D1E268D31AA268934200D9A3603000F8BD50D10208F0B5234B87B09C6BDB680490013BE318039323686568002B5E
:402E400030D1039B6719BB422CD93B680293002B28D0194EDB00726B9B5C012B22D17B6820000193F36A0593FFF768FF3B68726BDB00D3185C60019A3900200005F0F9FFD5
:402E8000029B059A934202D1736B5B1B7363019B2800E118FFF774FF049B002B01D0984206D2019D039B6419A342C6D8012000E0002007B0F0BDC04650D10208002806D0A1
:402EC000034BDA6B0260002A00D05060D863704750D10208034BC0005B6B1818406808307047C04650D10208064A10B5D3690133D361526BC300D3181A7801321A70FFF7E1
:402F0000E9FF10BD50D10208036810B5083B094C1B68626BDB00D3181A78012A04D9E169002901D00139E161013A1A7000230360180010BD50D102080322024B9143186060
:402F4000596070471C83020810B5041E0BD0064B5A6BC300D3185B6819005868FFF710FF2000FFF7DBFE10BD50D10208F7B5224DEB6A002B07D1214B99685868083105F05C
:402F800043FF841C03E02B691C1DDB08E418E00000F0CAF80126071E2CD06A6BC300D3185E68EB6A083601932B69696BDA00144B30001B68984729696E630B00CA000432B5
:402FC000EF62B218601E834203D2013313600832F9E7DB00F31800265E60074B5A685962511A091959601C61019BB34202D01800FFF7AAFF3000FEBD50D102081C830208A8
:403000006C4C020870B5184C230028331A78002A29D101321A70154B0F32DA609A68002A02D15A6892089A605A2210252262002228009040D100611801320864102AF7D1EA
:403040005868196803000125143BCB180E3A22616363A163E0605D6065626560FFF790FEFFF784FF256370BD50D102081C830208F0B5040085B0FFF7C5FF0323294E0334A4
:403080009C43376C201DB84200D30700F26B1400002C06D0231F196823688F4232D01C00F6E7F268B36B944663440193043B02931B680393039A019B9D1A2B68002B06D0F2
:4030C0002000FFF7B1FE029B1D68019B5D1B2B68002B23D16B689F4220DC28001C1DFFF72DFEF368E41BDB1BF36073692C19DB1973616B68D81B02D02900FFF741FE231F2D
:403100001F600BE0002B01D0616859606168002900D00B60A24201D12368F363200005B0F0BDC04650D10208F0B585B00400FFF769FF3C4D2E6CB44203D3032303349C43C9
:4031400026002B680C360196B34241D32B6B6A689A420FD96B686F6A013B6B60FB0003936B6BFA009B185A686A6201221A70002F0AD12DE0013B2B63FFF7F8FE2B6B0133EF
:403180002B630028E6D023E00F23DA00AA18126C964201D2013BF8D21A00DB004433EB180F2A0DD81968002907D08C68002C04D061688E420ED9A168F5E701320833EFE7F8
:4031C0003000FFF731FE0028DED03800FFF7A6FD002723E0636802939E1B2B6C0C339E4201D2029B01932000FFF7A8FD6B6B039A9B185C60019B019A63600023A360019B7D
:403200002760E1180B1F24611A601300029A934204DA1300019A981AFFF7B2FD380005B0F0BDC04650D10208002310B5984202D0FFF77AFF0300180010BD000037B50500D7
:40324000FFF7F2FF041E0AD0FFF74EFE054B01901B682A000021984701A8FFF755FE20003EBDC046704C0208514BF0B51B688FB0DA69D469A589A84208DBE189814205D33F
:403280002168451B09910121494215E0A168002900D184E00D88A84200DA80E04E8886427DD3451B4968A8B266688000081809960021455E0221415E0891691C6FD022213D
:4032C0005E5E2420195E0691127E0A92A27C0A9951430C91227C0B922A229B5E1800079302F01AF8324F0D903A680699D369926B300005920C9A5543099A551904950125FF
:40330000A27C02950392DA7E01929B7E0B9A00930A9B02F093F9089B01331BD00220079B184301F0F9FF3B680899DA699B6B300005930C9B4B430999CB180493A37C0295BE
:403340000393D37E06990193937E0B9A00930A9B02F074F9164D2B68DB695A7E1B7E9A4217D9079B022B14D00420584001F0D4FF2B68069AD8690B99437E057E9B18827E2D
:4033800051438A19C17E069869430918300002F045F86B4634229B18187801F0BDFF044B617C1A68538CCB1853840FB0F0BDC046544C0208044B1B68DB69DB69002901D01F
:4033C0001A7C0A60587C7047544C020802230B80704710B5C3699A89914203DBDA8901208A4210D29B68181E0DD01A880020914209D35C888C4206D3891A5B688900C85A17
:40340000C04380B2C00B10BD002807D003888B4202D843888B4201D28068F5E770470000F0B5334F8BB03B6804002A215A5EDB690100D8690792FFF7E7FF002855D00388C9
:40344000E41A4368E4001E190798B47801F064FF39680990CD6932782B7E08932423C85E84462223C85E896B089B059171680394049101210291E97E0191A97E009161462A
:4034800002F0DCF83B68DB695C7E1A7E089294421FD9079A022A1CD0DD7E00F0EDF8079000F0E4F800F062F93A682423D15E2223D05E2300D2696B43D47E32785B18624343
:4034C000089C12186543691801F0A8FF079800F04DF9099801F020FF054B71781B68DA69927E4A43598C52185A840BB0F0BDC046544C02080C4B70B51B680400DE690D007F
:403500000100F069FFF780FF00280CD002884368A41AE4001C196078B37E5843002D02D0227853432B6070BD544C020801230B80704710B5C069FFF767FF431E9841C0B21B
:4035400010BD000070B5244E040032680D00D37E002B40D0917CC9070FD5D069411CC97F007E814200DB411E2420125E200051185B18013B2A0001F051FF33689A7C9207F5
:4035800011D5DA69D11CC97F0132D27F01314910511A24201A5EDB7E89185B18013B2A00200001F03BFF3268937C5B0713D5D1694B1C0331DB7FC97F591A01392423D05ECD
:4035C000CB43DB171940D37E41185B18013B2A00200001F023FF70BD544C020810B5044B1B682221595E0139FFF7ACFF10BDC046544C020810B5074B00211B6822229C5E03
:40360000DB69013C5B689847201A01302100FFF799FF10BD544C0208FF2230B5040014400A40A21A92B213B2002B01DA524213B25B431D00FF23020A1A4014000A0A13404C
:40364000E21A92B213B2002B01DA524213B2000C5B43090C411A89B208B25B19002801DA494208B280B24043C01830BD10B502F04DFA02F053F910BD10B502F04FFA02F0A6
:403680004DF910BD70B500282CD0002926D0002A25D013880D881C1C2EB21BB2B34200DD2C1C048053884D881C1C2EB21BB2B34200DD2C1C448093888D881C1C2EB21BB235
:4036C000B34200DA2C1C8480D388C9881A1C0CB21BB2A34200DA0A1CC28003E01100082205F0BCFB70BD00280DD0038889B2CB180380838892B2C91843888180D318438049
:40370000C388D218C2807047024B1B685884998400207047544C020830B503000222845E06200A5E0020944213DC02228C5E06255A5F94420DDC00229C5E04254A5F94423B
:4037400007DC00228A5E0421595ED00FCB179142584130BD10B502F0CBFA02F045FB03F0A3F810BD10B502F01DF910BD10B502F021F910BD034B021E1B68D86900D0DA61E8
:403780007047C046544C0208084B10B51880084B0A001980074B08491B685B7C9B005B58D9680C6A01001800A04710BD38D2020828D20208544C020860D20208034B1B685E
:4037C0002C215A5E988510007047C046544C0208034B1B682A215A5E588510007047C046544C020810B5084A08491268084C0300907C0C600749002B01D10B6001E0064C6C
:403800000C60937410BDC046544C02083CD20208F535081030D20208DD35081070B50024094D0A4E10C53368210028007022984733680422210006489847064B1D60064BB9
:403840001C70064B1C6070BD2C830208704C020860D20208544C020848D2020824D20208014BD8607047C046544C0208F0B50700160085B00C000420019301F04DFD114BFC
:4038800000901A68D36CDD199E19176D019B3C19FF1802AB18001D809E805C80DF8002F083FF002804D1009801F036FD05B0F0BD3B0032002100280001F0B0FD02F0C4FE2C
:4038C000EFE7C046544C0208002110B50800FFF71BFF034A034813000100FFF7C7FF10BDFF3F000001C0FFFF024BDA6FD86742607047C0462C830208084B10B51A68002A61
:403900000AD101321A60FEF75BF9FEF793F90448044B0360FFF7E8FF10BDC0462C830208AC8302081D38081070B5FFF7E5FF2E22314B1A70FEF77AF9304C314D2100314BD4
:403940000C3123672B681A1DDA630432A2619B631B645B7C2C4A9B009858C3681B6B98472A4B6366EB6823622B680833A36101232377E37703F08CF82300032268331A7077
:40398000234BE064606F6363A36302F00BF8A86802F010F81F4A204B1A6001F065FF050002F044F9060002F047F9002E01D0002808D102F02BF9060002F02DF90100300047
:4039C00002F02EF900210800FFF7DEFE02F0BAFFA36F002B0AD0A36F002B07D01B68002B00D09847A36F5B68A367F4E701220B4B28001A7070BDC04619D202082C830208BA
:403A0000544C02083CB6081060D2020834B60810785634FF94B6081058D2020840D202080300002083420ADC054A9B009858002805D0C3681B68002B01D00068F7E7704795
:403A400060D2020810B5FFF739FA10BDF8B506000D0017001C1E01DD00201BE01C20FFF707FB0028F8D0002D01D005610BE00A4BA200D358002B06D01A68002A01D013001F
:403A8000FAE71B690361002384618782C660036043608360F8BDC04660D2020883690C499A0010B554580368A04204D15350002B01D000225A604268002A00D013600368BB
:403AC000002B00D05A6000230360436010BDC04660D2020830B5002801D101203BE08269002AFADC1C4B19788A4201DB012119701A49920053580D00002B02D15050180025
:403B000029E05968002901D00B00FAE7C1680968DC6824688C4203DD1B68002BF8D1DCE78C420AD1848A012C07D11C68002C04D02300E4682468A142F7DD5968002902D0D5
:403B40000860416000E0A85058600022984200D01A000260002030BD11D2020860D2020870B51C00FFF772FF051E0AD0FFF7B2FFEB681B68002B04D1034B16341B68A4004D
:403B8000E550280070BDC046544C0208F0B5040087B0002800D17BE003F0BEF83D4D02902B6822229B5E039303F0A0F82A6883B20093938C00995B1A93842378002B5AD053
:403BC0003549200003F014F901000600200003F039F9304B1A680323918D19400300012905D00023022902D1C30F1B185B10518C04ADCB1A9BB219B25184298081B20191E0
:403C000001395B18AB802423D35E6A4617896B80013BFB182A0020003100EB8003F040F91C4D04AB5B882A6820009384310000F0B1FB241823780A2B01D00D2B12D10321EB
:403C40002B689A8D0A40013A012A02D86A46928900E01A8C5A8422780A2A09D19A8CBF189F8405E004AA1088019A2B68101858842378002B0AD10321064B009A1B68988C55
:403C800010189A8D98848A439A8501E0013494E707B0F0BD544C0208FF7F000010B5034B1B6859849A84FFF771FF10BD544C020810B51F4A030012680020927E013A032ADF
:403CC00035D8100005F08CF8020F1D25194A0633134004D51022013B524213430133D80F00210B220AE0144A134004D50422013B52421343013300210122D80F9A424841CE
:403D000015E01421180005F09FF801200B2909DC0DE01821180005F097F801200B2906DD042399430023103988425B41180010BD544C02080F000080030000808023000563
:403D400030B5000D1B010021984202DD104A013180188022D200904200DD181A3F23402482111840201A0B4D83B25000405B5843A34207D0102A05D001325200525BE31AEA
:403D80005343C01820308009002900D0404230BD00F8FFFF50B60810802310B5DB00C018FFF7CCFF10BD0000F0B587B002910299141A5F1A210001900C9D394303D10299A0
:403DC00003F0BCF8BFE0F917E61778184840A11971400026049688420BDD21003C000F0011001A000B00019902980291012101900491E0172118414001200390A14208D0AA
:403E00000293019B01921A0001235B4264427F4203932E68002F3FD14C4B04991B6800291BD09B7E3700002B13D10199029801F0CFFA88E03800FFF73BFF002808D1019B8C
:403E40000298991B414BC9191B681B6E5B6898470137BB1BA342EDDD1BE0997E3700002914D11B6E02991B68019898476BE03800FFF71EFF002808D1019B0299981B334BA6
:403E8000C0191B681B6E5B6898470137BB1B9C42EDDA013F2F6056E0E30F1B195B10002F00DA5B42294A1268927E002A19D11D00019E019BF31A9C4245DB2100280004F0DB
:403EC000B5FF029B049AC018204B31001B681B6E5B68002A01D10100300098470136ED19E7E7039A013201D1A6192E60019E0593019B2868F31A9C421CDB039B18182860EF
:403F0000FFF7D6FE002810D12100059804F08EFF029B049AC0180D4B31001B681B6E5B68002A01D1010030009847059B0136DB190593DDE7039B013301D104192C602B68F1
:403F4000039A9B1A2B6007B0F0BDC046544C0208F0B58BB00593634B03901B6804921E7E0F00012E05D1109B0093059BFFF71CFFB5E0039B049A991A059BF81A0B00034358
:403F800000D1ACE00024013EA14201DA49420134002802DA022340421C43814204DA04231C430B00010018004B108002181804F03DFF10254C4983119C46800622315B00BD
:403FC000000F5B5E2D1A6B43102D05D0624601325200525E50431B180F220833DD171540ED182D11630702D58023DB005D1BE30702D580231B015D1BA30702D580235B01A8
:404000005D1B8023DB00ED182800FFF7C5FE704304002800FFF792FE4643002C05DA80208000041BA412644203E080239B00E418A412002E05DA80208000861BB6127642EF
:4040400003E080239B00F618B612002C02DD621C521005E0E20F1219013CE00F521004196410002E02DD731C5B1005E0F30F9B19013EF00F5B1086196946898992B206A8A1
:4040800094468A1802809DB2BAB2531943806B467610B6B2921BC2801A8A9B8AA4B29E1BEB18C3810023091B141B624481800481828146811A00042100F062F8094C236896
:4040C0005B7E002B03D13900039802F037FF23685B7E002B03D10599049802F02FFF0BB0F0BDC046544C020850B608101FB50024039403AC0094FFF72BFF1FBDF7B51F0060
:404100000B4B00901B68002001911600DD6C1C6D02F04AFB00280AD001990098E319AA1961182818FFF7E2FF02F08EFAF2E7F7BD544C0208F7B511490A6801910B2A1BDCDB
:40414000002A01DC002311E0019B00251C1D5300E41813005E1EB446AE1EA75F874205DB634667533500002BF4D1EBE701995B00CB18013298800A60F7BDC046BC830208ED
:40418000F0B587B00292002204936E4B039001936D4B059105998A420DDA0398910041180220095E8B4200DD0B000198884200DA01910132EEE7654A1268516900290ED0D3
:4041C00006200A5E0498121A0198904200DD019202228A5E0499521A934200DA1300049A9B180093009B049A9C1A019BA34200DAA6E00025564B039E1D60059B9D425CDA6A
