:020000041000EA
:4000000000400208310100100D000000950100100000000000000000000000000000000000000000000000000000000091010010000000000000000091010010910100109B
:400040009101001091010010910100109101001091010010910100109101001091010010910100109101001091010010910100109101001091010010910100109101001060
:400080009101001091010010910100109101001091010010910100109101001091010010910100109101001091010010910100109101001091010010910100109101001020
:4000C00010B5064C2378002B07D1054B002B02D0044800E000BF0123237010BD7404000800000000702B0010084B10B5002B03D00749084800E000BF07480368002B00D159
:4001000010BD064B002BFBD09847F9E70000000078040008702B0010EC000008000000007047EFF3108072B6704780F310887047FFF7F6FF72B6104C104DAC4209DA2168D9
:400140006268A368043B02DBC858D050FAE70C34F3E70B490B4A0020521A02DD043A8850FCDC094809490860BFF34F8F00F002F900F01EF8FEE70000742B00108C2B00106A
:40018000740400086C0600080000000808ED00E0FEE7FEE700B504207146084202D0EFF3098001E0EFF30880043001F051FCFEE710B5034800F052F9002001F087FBFBE725
:4001C0000000081070B56249E0239B00CB580F2213401A00D0329200525807210A40032A05D0042A06D0002A12D15A4814E05A4A106811E01A00C0329200554952581F212C
:400200000A40112A06D0132A04D0FA20C00103E0524801E080200002002B36D14C4BB222D2009A5801211140B125ED005A59120F032422405B591B0F1C4207D0444C635924
:400240001B0F03242340012B02D102E0012300E00023002B01D0002901D1032A4BD13C4BB022D2009D58AD03AD0B3D495958C904C90C9C58240E01231C40013401F086FCD3
:400280006843210001F082FC35E0012B33D1304BC822D2009A5801251540C024E4001A59120F03210A401B591B0F194207D028490B591B0F03210B40012B02D102E001230D
:4002C00000E00023002B01D0002D01D1032A12D11F4DC022D200AB587F210B40A958090A1F263140AC58240C3440584301F04EFC210001F04BFCE0239B00154AD3581B09F5
:4003000003221340D840144C6060164B1D692D0AFC32154001351969090E013101F036FCA060290001F032FC0500E06020610E4BC0180E4901F02AFC20750D4BE818FA2193
:40034000890001F023FCA061C003E06170BDC0460000264000127A00C000000800366E0184050000000021403F420F0040420F00E703000010B5234BB021C9005A58520087
:4003800052085A50E02080001A583024A2431A50802252045A501C491C4A9950A021890104329950FF211A4A995081315A58920092088020C00502435A505A58802000063B
:4003C00002435A505A58012082435A5000F0C6F9FFF7F8FE00F06EF800F076F801F058F8B0235B055B78002B04D0B0235B055B78DBB200E02123212B03D1064B0022DA60B3
:400400005A6010BD0000264001000200840500008C050000E00023408023024AD3580320184070470000214010B5FFF77AFE084980228C58074B2340074C23438B508823C4
:40044000034AD358DB06FAD5FFF76FFE10BDC04600002140FCFF00000100FA0570B50500FFF75FFE0400FFF7D7FF032801D1FFF7DBFF0A4AB0239B00D55080215058084B25
:4004800003400848034353508823044AD358DB06FAD52000FFF749FE70BDC04600002140FCFF00000300FA0510B5002000F008FE10BDC04610B5034A8021042000F06CFB22
:4004C00010BDC0469004000810B50748103000F023FC01F026FB0400044800F08FFC200001F023FB10BDC04690040008281D0010FEE7C046F0B50025002711E0BB00C658B4
:40050000F3B2FF22964308E06A008A181478A419527822700135013BDBB2002BF4D10137012FEBD9F0BDC04670B586B06A4BA021C9005A58032082435A50684A9024105908
:4005400067490840105110690002000A1061106901408020400001431161E02292009958F138814399509958213081439950995880200006014399500021012000F0BEFDE1
:400580000021022000F0BAFD0021032000F0B6FD0021042000F0B2FD0021002000F0AEFD01A8504903000A0032CA32C312CA12C300F0CCFD002802D00420FFF799FF4649C5
:4005C000494A8B588020000603438B50474800F075FE002802D00420FFF78AFF3E4C444BE158444A0A40E250E158434A0A40E250E25880252D062A43E250043BE1583F4ADF
:400600000A40E250E1583E4A0A40802189010A43E250E258802109020A43E250394A1168394B0B40802149000B431360002001F07FFA364AA3581D43A550A3580125AB4345
:400640002B43A3506421002001F01AFA304B0021304A9950802000011A5821490A401A508022D2002C489850985840242B481C50902424011E592A4830402A4E30431851B6
:40068000294898509858C52000011D50274D58590840C624E40120435851254898509858022524481D5024481D58294021431950224999509958B02000011958FF242140EF
:4006C0001F4C214319501958F824A14319501D4999509B5806B070BD0000264000002140FF00FFFF5C1D0010087F0000400D030004050000FEFCFFFFFFFF00FFFFF0FFFFB4
:40070000FF8FFFFF00002740FFFCFFFF0C05000000000140180C000000FF00804C0C0000FF0000FF004FC30040FF00800408000001FF0080680C00000808000002FF008020
:40074000003F420FC0FF008010B50A00002101F0B2FA10BD10B501F0A5FA10BD70B58AB09621002001F08CF901F062F9002801D101F04EF9012000F0E1FF4B4A516C4B4B2B
:400780000B40E82189010B435364536C1B0AFF2213403A2B07D1444A516C454B0B40E82189010B435364FFF7BFFE424A424B1A6000240CE0620012195300404AD318198BB4
:4007C0009A8AD88A00041043FFF7BEFF01340B2CF0D900240AE0620012199300374AD3185A6E196ED86DFFF7B5FF0134112CF2D9334D2900343128004030FFF77BFE314A8F
:400800001368832149000B43136001AC24220021200001F050FAC023DB00E36021002A4800F040FE22002B00483343CB43C243CB43C243CB43C22100244800F033FE242269
:400840000021200001F037FA214BE3602100214800F028FE22002B006C3323CB23C223CB23C223CB23C221001B4800F01BFE1B4D22002B00103343CB43C243CB43C243CBA8
:4008800043C22100164800F00DFE22002B00343323CB23C223CB23C223CB23C22100114800F000FE0AB070BD00002740FF00FFFFFFC5FFDF0300FA05F00121405C1D00105A
:4008C0005C1E0010007934400000324080003240008666068002324000033240DC1E0010800432400006324010B583089A00801AC000FF228240D44381400A40072B32D8C5
:400900009B001949CB589F46184B196A0C4022431A6228E0154B596A0C4022435A6222E0124B996A0C4022439A621CE00F4BD96A0C402243DA6216E00C4B196B0C402243F0
:400940001A6310E0094B596B0C4022435A630AE0064B996B0C4022439A6304E0034BD96B0C402243DA6310BD642800100000214083089A00801AC100FF228A40072B2BD8C9
:400980009B001748C3589F46164B186A1040C84023E0144B586A1040C8401EE0114B986A1040C84019E00F4BD86A1040C84014E00C4B186B1040C8400FE00A4B586B104068
:4009C000C8400AE0074B986B1040C84005E0054BD86B1040C84000E00020C0B27047C046842800100000214070B504000D000B4B9A680B4B9A420BD1002903D1FC21094835
:400A000000F0F8FF1034064BA400E058E55003E01034A400044BE05870BDC04600ED00E000000008A428001000000010F0B583B0041E019150D04368032B03D936212948BA
:400A400000F0D8FF0023E05E002802DBA178FFF74BFF0023E25E6368002A12DB9008224EC0308000875903210A40D200FF25290091408F4399012B000B4093403B438351EE
:400A800017E092B20F21114008398908063189001648844661444E6803200240D200FF2738009040864398013B000340934033434B600E4B9A680E4B9A420FD1019B002BF5
:400AC00003D14521074800F095FF0023E05E0199FFF78AFF002002E0064800E0002003B0F0BDC046A428001000E100E000ED00E0000000080100560070B504000D0003694E
:400B0000002B0ADA0B0C03D00549064800F072FF2D042D0C6560002000E0034870BDC046B3020000E828001001008A0070B505000C000368002B01DA002300E0084B002B8A
:400B40000BD1EA60230C03D00649074800F052FF2404240CAC60002000E0014870BDC04601008A009A020000E828001070B505000C1E03D19921064800F03CFF2B69002B2D
:400B800003DAEB682360002000E0024870BDC0462829001001008A00F8B504000E0015000F283FD8002A10D100290ED10F2804D9AA21FF31214800F01DFF6401204B9C46AE
:400BC0006444204B1C60002037E0002D2CD0002E2CD0F3062CD10F2C04D9AA21FF31174800F008FF6401164B9C466444154F3C607E60BD60F2080021280001F05CF8002189
:400C00002000FFF779FF3A0001CA0021FFF78EFF00280FD10B4B18680021FFF76DFF00280AD10AE0084808E0074806E0064804E0054802E0054800E00448F8BD6829001092
:400C4000000023402006000803018A0001018A00F0B583B00D001C4B1B68DC68236883422DD947097B01C01A012383401E00002903D100F056FF019001E000230193124BED
:400C800018680368002B01DA002300E00F4B002B0ED16368BF00DF193B68334203D0B3433B60002400E00A4C0021FFF725FF00E0084C002D04D1019800F037FF00E0064C22
:400CC000200003B0F0BDC0462006000801008A00020188000301880004018A000A4B1B68DA68136883420BD943095901401A0121814052689B009B580B4203D0034802E059
:400D0000034800E003487047200600080101880004018A0000018800034B1B68002B01D1014B18607047C0462C060008F0B5474680B404000F0090461E002B4B1B68002B9C
:400D400003D1B421294800F055FE072C03D9B521264800F04FFE244B1B682C2060431C18FF22150035402560330A13406360330CA3600F2D04D9AA21FF311D4800F03AFE0B
:400D80006B011C4A94466344236165680F2D04D9E2214900164800F02DFE6D01164B9C4665446561A668330C04D0F1214900104800F020FE330C04D0E421FF310C4800F023
:400DC00019FE3604330C1E43AE604346E36127620023A361069B002B02D000229B5EA38104BC9046F0BDC0462C060008A8290010682900100000234000102340F0B58FB0DB
:400E0000041E03D150212E4800F0F4FD6368032B03D952212A4800F0EDFDE36A002B03D15621274800F0E6FDE368072B03D95721234800F0DFFD236A072B03D958212048D7
:400E400000F0D8FD236B002B03D159211C4800F0D1FD07AA1300210061C961C321C921C302AD290023001433C1CBC1C141CB41C10821535E0CAE3380079B1933B370089B2A
:400E80000D930B9B0A980096A26AE16AFFF74EFF2B69E868002200920021FFF747FF216B3000FFF7C3FD0023F25E002A05DB1F231A401E3B9340034A13600FB0F0BDC0463C
:400EC000A829001000E100E0F8B504000F0016001D00002A03D1FD21284800F08BFD284B1B68002B03D1FE21244800F083FD072C03D9FF21214800F07DFD072F04D98021B3
:400F000049001E4800F076FD1D4B1B682C2120004843181879435918012213004C68A3401B044468A24014000269002A20D08F69002F1FD11268002A01DA002200E0114A59
:400F4000002A19D132681204120C134333600369DE6001238B614D620569230C03D00A490A4800F047FD2204120CAA60002004E0074802E0074800E00648F8BDA82900105E
:400F80002C06000801008A009A0200006829001004028A0007028A0070B504000D001600134B1B68002B04D16221FF31114800F021FD072C04D9B12149000E4800F01AFD3D
:400FC0000B4B1B682C2060431C18236A002B04D1B3214900074800F00DFDE369B34204D9236AB6009D51002000E0034870BDC0462C060008A82900100A028A0070B582B02D
:40100000040000230193002804D1EA2149002B4800F0F0FC2369002B04D1D621FF31274800F0E8FC6369002B04D1EB214900234800F0E0FC236A002B04D1D821FF311F48EA
:4010400000F0D8FC6269D5682B0C1FD01B041360136820690369002B18DA01A9FFF786FD00280ED1019803681E0CFF221340E269934207D29B00226AD358002B02D098476C
:4010800000E0002631002069FFF736FD2D042D0C0FD063691D601B68636A002B03D098470023636203E0A36A002B00D098470023A36163691B6802B070BDC046A82900109A
:4010C00010B504000B4B1B68002B04D1DA214900094800F08FFC072C04D9B621FF31064800F088FC034B1B682C2060431818FFF785FF10BD2C060008A829001004281DD8F2
:40110000042904D94B1EFF3B9BB2132B18D8FF290CD91F2319400B4A0300C0339B009950D03080000423835000200AE007231940D0308000034BC150002002E0024800E0FE
:40114000014870470000264001004A0070B5041E04D1E221FF314C4800F04CFCB023DB004A4AD358002B01DB002500E0484D002D00D086E0474B22689A4204D9F8214900FB
:40118000414800F037FC23689B03990BE3791B068022520413400B43B022D2003B498B50A2883D4B9A4204D9F821FF31364800F021FC2289394B9A4204D9FC214900324896
:4011C00000F018FCA388DB04D90C23891B04344A13400B43334A2D498B50A37A0F2B04D9FF214900284800F005FCE37A0F2B03D92A49254800F0FEFBA289274B9A4204D9B4
:4012000080218900204800F0F5FBA37A0F211940E27A1201FF2313400B43A289120222490A401343A27B1207C02189050A401343B122D20015498B50A379072B04D9822129
:401240008900114800F0D6FB228A144B9A4203D916490D4800F0CEFB0C4815494658154B1E40A3791B02E022D2001340334343504658114B1E40238A1B04094A13403343E4
:401280004350280070BDC046E82900100000264003004A00FFFF0300FF1F0000FF0100000000FF018405000000FF1F00090200008C050000FFF8FFFFFFFF00FE70B50500EF
:4012C0002D492E4A8B588020000603438B502C0003E0012000F082FB013CB223DB00264AD3585B0701D4002CF3D12349B122D2008858234B03408020800503438B50002DF5
:4013000002D00ED0002C0CD01B49B022D2008B588020000603438B5003E0012000F05EFB013CB223DB00144AD358DB0701D4002CF3D1002D0ED0002C0CD10F4AB021C900D2
:4013400053585B005B0853500C4953585B005B0853500BE0084B0221B222D2009950B121C9005A58C020800502435A50002C01D1044800E0002070BD000026408C05000001
:40138000FFFFFFCF02004A00214B984230D00ED8402831D004D800281FD010282AD031E080282BD080235B00984229D02AE0194B984229D007D8A0231B0698420DD0164BBA
:4013C000984212D01EE0154B98420AD0144B984209D0144B984215D101E0002016E0124814E0124812E0124810E0A020C0030DE007480BE00F4809E00F4807E00F4805E0AF
:40140000034803E00E4801E0A420C0037047C04606005200010000F0090000A0040000F0050000F0030000F00100520002005200030052000100500002005000050052003F
:40144000FF00520010B50C4B1B69002B11DB0B4B1868FFF799FF0121094B0A4AD150084B084AD358002BFAD1074BD358002BF6D100E0064810BDC04600002340300600083E
:401480000C040000000025408C0400000200500010B5022202490020FFF77EFD10BDC0464501000870B505000C00002848D0002948D0FF230A689A4303D08D21224800F0EC
:4014C00099FAFF2322699A4303D08E211E4800F091FAA3685B0D03D08F211B4800F08AFA63685B0A03D09021174800F083FAE3695B0F03D09121144800F07CFA236A5B0F2B
:4015000003D09221104800F075FA104BEB18DB090F4A944663441B0122682A60E268AA622269EA6262692A63A2686A626268AA61A2696A63E2691A60226A5A60002002E00D
:40154000044800E0034870BD702A00100000CEBF0010030401005A000D4BF222D2019A580260F022D2019A5842600A4A9A588260094A9A58C260094A9A580261084A9A5897
:401580004261084A9A588261074A9B58C36170470000344004780000087800000C7800001078000014780000187800000D4BF022D201416899500C4A816899500B4AC16835
:4015C00099500B4A016999500A4A416999500A4A81699950094AC16999500168E83299507047C0460000344004780000087800000C78000010780000147800001878000025
:4016000010B5074A074813580F24A34302210B43135004381358A3431943115010BDC0460000214004F0000010B5074A074813580F24A34303210B43135004381358A34330
:401640001943115010BDC0460000214004F000000449054A8858054B0340C020C00103438B5070470000214004F00000FF8FFFFF0449054A8858054B03408020C001034366
:401680008B5070470000214004F00000FF8FFFFF10B5002000F066FAB0235B055B78002B04D0B0235B055B78DBB200E02123222B03D8002803D1013002E0012000E000206E
:4016C00010BDC04610B50400002000F04BFA00280AD114498A69144B1A40240680235B041C4014438C611BE0002C01D00F4A00E00F4A01210F48FFF719FA00280DD10D4BB7
:401700001B69002BFBDB0B4BDB681B0E1B06A0221206934203D0084802E0074800E0002010BDC04600F02540FFFFFFFE01010030010000300000234004004200F8B505005D
:40174000012804D9EA21C900294800F053F9FFF79FFF002848D000F0E4F90700002D17D1E823DB00B0225205D65CF6B20120FFF7A9FF041E1FD1FFF743FF1E481E494358CB
:401780001F229343143A13434350FFF761FF12E01A4BB0225205D65CF6B21648164943581F229343143A13434350092000F016F9FFF75EFF0024002C12D10E490E4A8B5845
:4017C0001F20834306401E438E50012D08D1163800F004F9FFF728FF0020FFF773FF0400380000F0A2F900E0054C2000F8BDC046F02A0010000026401CFF000041070000B2
:401800000300420070B584B005000E00042803D929492A4800F0EEF8731EDBB2012B07D9042E05D0082E03D02549244800F0E2F8042E01D0012E1DD1224B5C68002013E0F3
:4018400023799D420FD1A368002B01D01E420AD1E36801A85A6842609B688360067023689847184B9C606469002C23D0164B9842E6D11FE0134B9C68022E02D1002C00D010
:401880002469002011E023799D420DD1A368002B01D01E4208D1E36801A85A6842609B6883600670236898472469002C02D0064B9842E8D104B070BD95080000F02A0010BC
:4018C0009608000040060008FF00420070B50500012804D984218900384800F08BF8384B1B68002B05D001210120FFF78BFF040000E00024002C59D100F013F90600304BC6
:401900001B68002B03D004210120FFF77BFFE0232C4AD358DB0603D529480C30FFF71CFEB0235B055B78002B04D0B0235B055B78DBB200E02123212B03D1280000F0E4F985
:401940001FE02149214BCB581F221340E822D200B0204005825CD31A5A1E9341DBB20A68120207D4012B05D1194BC158194B164AD15003E00021174B134AD150280000F085
:40198000CBF9E0230F4AD358DB0603D50C480C30FFF70CFE300000F0C8F8094B1B68002B09D008210120FFF72DFF04E002210120FFF728FF084C200070BDC046F02A001056
:4019C0004006000800000140000026401CFF000010180000307F0000FF00420010B5034B1B78584300F094F810BDC046D400000801BEFEE770B50D00044C182201002000D2
:401A000000F061F9A5610020FFF7F2FF38040008054B802212069A649B6C002B01DB002000E002487047C0460000274003004600054B8022120198585B68FF221A4202D037
:401A40008023DB021843704700002640FEE7C04610B50A4B0268DA6142681A6282685A62C2689A620269DA6242691A6382695A63C2699A63FFF7EAFF10BDC046380400083D
:401A8000F0B5002801D0192200E064228A42924152421C4BE8256D005C590327BC433A4014435C515C59184E34405C51D03D5C59BC4322435A515A5916405E51002805D0B5
:401AC00010290DD921290DD8012014E01D290BD93A290BD957290BD978290BD803200AE0002008E0022006E0002004E0012002E0022000E00420054A13680F218B430343D2
:401B00001360F0BD00002140FFFCFFFF000025400230800803D001300238FCD1C046C0467047EFF3108072B6704780F310887047042805D1094A116804230B4313600CE089
:401B40000006C0239B04184090239B00044AD050024A136804218B431360704710E000E00000214010B504000F2803D9E4210548FFF740FFA402044B9C46644423680F2018
:401B8000184010BD302B001000402440002243088B4274D303098B425FD3030A8B4244D3030B8B4228D3030C8B420DD3FF22090212BA030C8B4202D31212090265D0030BC7
:401BC0008B4219D300E0090AC30B8B4201D3CB03C01A5241830B8B4201D38B03C01A5241430B8B4201D34B03C01A5241030B8B4201D30B03C01A5241C30A8B4201D3CB0256
:401C0000C01A5241830A8B4201D38B02C01A5241430A8B4201D34B02C01A5241030A8B4201D30B02C01A5241CDD2C3098B4201D3CB01C01A524183098B4201D38B01C01A67
:401C4000524143098B4201D34B01C01A524103098B4201D30B01C01A5241C3088B4201D3CB00C01A524183088B4201D38B00C01A524143088B4201D34B00C01A5241411A3E
:401C800000D20146524110467047FFE701B5002000F006F802BDC0460029F7D076E770477047C046002310B59A4203D0CC5CC4540133F9E710BD03008218934202D01970B6
:401CC0000133FAE77047030030B5002A0DD00C7801335D1E013A2C700131002CF5D19A189A4202D01C700133FAE730BDF8B5C046F8BC08BC9E467047F8B5C046F8BC08BC1C
:401D00009E4670470000000001B40248844601BC604700BF6502000801B40248844601BC604700BF390300080300000001000000010000000000000005036000040000000C
:401D4000010000000000000001000000060460000800000000060008A9040010F4010000140004010A0009050800000063010000002034407400802034407400002234406C
:401D80007400802234407400002434407400802434407400002634407400802634407400002834407400802834407400002A34407400802A3440740000213440341F0010B5
:401DC0009000000000233440C41F00109000000000253440542000109000000000273440E420001090000000002934407421001090000000002B3440042200109000000016
:401E000000603440942200107C00000080603440102300107C000000006134408C2300107C00000080613440082400107C00000000623440842400107C00000080623440FC
:401E4000002500107C000000006334407C2500107C00000080633440F82500107C00000000643440742600107C00000080643440F02600107C000000006534406C27001039
:401E80007C00000080653440E82700107C0000005F046301DF04E301DF04E30104283440022A344002000000000000000000000060060000000000000000000000000000B5
:401EC0000000000000000000000000000000000000000000000000BA0000000000000000000000000000000000001D1DF000000000000000000000000000A6AA00000000AE
:401F0000000000000000000000000000080000000700000000000000000000008666000000000000000000000000000014141400000000000000000000000000000000006A
:401F4000FFFFFFFFFFFFFFFFFFFFFFFFFFFFFFFFFFFFFFFFFF000000FFFFFFFFFFFFFFFFFFFFFFFFFFFFFFFFFFFFFFFFFF000000000000000000000000000000000000008B
:401F80000000000000000000FFFFFFFFFFFFFFFFFFFFFFFF111111111111111111111111111111111111111111111111111111111111111111111111111111111111111141
:401FC00011111111000000000000000000000000FFFFFFFFFFFFFFFFFFFFFFFFFFFFFFFFFFFFFFFFFF000000FFFFFFFFFFFFFFFFFFFFFFFFFFFFFFFFFFFFFFFFFF000000C7
:40200000000000000000000000000000000000000000000000000000FFFFFFFFFFFFFFFFFFFFFFFF11111111111111111111111111111111111111111111111111111111D0
:402040001111111111111111111111111111111111111111000000000000000000000000FFFFFFFFFFFFFFFFFFFFFFFFFFFFFFFFFFFFFFFFFF000000FFFFFFFFFFFFFFFF29
:40208000FFFFFFFFFFFFFFFFFFFFFFFFFF000000000000000000000000000000000000000000000000000000FFFFFFFFFFFFFFFFFFFFFFFF1111111111111111111111116D
:4020C000111111111111111111111111111111111111111111111111111111111111111111111111000000000000000000000000FFFFFFFFFFFFFFFFFFFFFFFFFFFFFFFF8C
:40210000FFFFFFFFFF000000FFFFFFFFFFFFFFFFFFFFFFFFFFFFFFFFFFFFFFFFFF000000000000000000000000000000000000000000000000000000FFFFFFFFFFFFFFFFC1
:40214000FFFFFFFF111111111111111111111111111111111111111111111111111111111111111111111111111111111111111111111111C0000000000000000000000073
:40218000FFFFFFFFFFFFFFFFFFFFFFFFFFFFFFF0FFFFFFFFFF000000FFFFFFFFFFFFFFFFFFFFFFFFFFFFFFF0FFFFFFFFFF0000000000000000000000000000000000000067
:4021C000000000FF00000000FFFFFFFFFFFFFFFFFFFFFFFF111111111111111111DD1111111111111111111111111111111111111111111111111111111111111111111134
:4022000011111111800000000000000000000000FFFFFFFFFFFFFFFFFFFFFFFFFFFFFFF2FFFFFFFFFF000000FFFFFFFFFFFFFFFFFFFFFFFFFFFFFFFFFFFFFFFFFF00000011
:4022400000000000000000000000000000000000000000F000000000FFFFFFFFFFFFFFFFFFFFFFFF111111111111111111111111111111111111111111D1111111111111DE
:40228000111111111111111111111111111111111111111100000000000000001F1F1F1F1F1F1F1F1F1F1F1F1F1F1F1F1F1F1F1F1F1F1F1F1F1F1F1F1F1F1F1F00000000EA
:4022C0000000000000000000000000000000000000000000FFFFFFFFFFFFFFFFFFFFFFFF1111111111111111111111111111111111111111111111111111111111111111CA
:402300001111111111111111111111111111111100000000000000001F1F1F1F1F1F1F1F1F1F1F1F1F1F1F1F1F1F1F1F1F1F1F1F1F1F1F1F1F1F1F1F0000000000000000AD
:4023400000000000000000000000000000000000FFFFFFFFFFFFFFFFFFFFFFFF11111111111111111111111111111111111111111111111111111111111111111111111105
:4023800011111111111111111111111100000000000000001F1F1F1F1F1F1F1F1F1F1F1F1F1F1F1F1F1F1F1F1F1F1F1F1F1F1F1F1F1F1F1F00000000000000000000000071
:4023C000000000000000000000000000FFFFFFFFFFFFFFFFFFFFFFFF1111111111111111111111111111111111111111111111111111111111111111111111111111111141
:40240000111111111111111100000000000000001F1F1F1F1F1F1F1F1F1F1F1F1F1F1F1F1F1F1F1F1F1F1F1F1F1F1F1F1F1F1F1F0000000000000000000000000000000034
:402440000000000000000000FFFFFFFFFFFFFFFFFFFFFFFF11111111111111111111111111111111111111111111111111111111111111111111111111111111111111117C
:402480001111111100000000000000001F1F1F1F1F1F1F1F1F1F1F1F1F1F1F1F1F1F1F1F1F1F1F1F1F1F1F1F1F1F1F1F0000000000000000000000000000000000000000F8
:4024C00000000000FFFFFFFFFFFFFFFFFFFFFFFF111111111111111111111111111111111111111111111111111111111111111111111111111111111111111111111111B8
:4025000000000000000000001F1F1F1F1F1F1F1F1F1F1F1F1F1F1F1F1F1F1F1F1F1F1F1F1F1F1F1F1F1F1F1F000000000000000000000000000000000000000000000000BB
:40254000FFFFFFFFFFFFFFFFFFFFFFFF1111111111111111111111111111111111111111111111111111111111111111111111111111111111111111111111110000000037
:40258000000000001F1F1F1F1F1F1F1F1F1F1F1F1F1F1F1F1F1F1F1F1F1F1F1F1F1F1F1F1F1F1F1F000000000000000000000000000000000000000000000000FFFFFFFF3F
:4025C000FFFFFFFFFFFFFFFF1111111111111111111111111111111111111111111111111111111111111111111111111111111111111111111111110000000000000000B3
:402600001F1F1F1F1F1F1F1F1F1F1F1F1F1F1F1F1F1F1F1F1F1F1F1F1F1F1F1F1F1F1F1F000000000000000000000000000000000000000000000000FFFFFFFFFFFFFFFFC2
:40264000FFFFFFFF11111111111111111111111111111111111111111111111111111111111111111111111111111111111111111111111100000000000000001F1F1F1FB2
:402680001F1F1F1F1F1F1F1F1F1F1F1F1F1F1F1F1F1F1F1F1F1F1F1F1F1F1F1F000000000000000000000000000000000000000000000000FFFFFFFFFFFFFFFFFFFFFFFFC2
:4026C00011111111111111111111111111111111111111111111111111111111111111111111111111111111111111111111111100000000000000001F1F1F1F1F1F1F1FB2
:402700001F1F1F1F1F1F1F1F1F1F1F1F1F1F1F1F1F1F1F1F1F1F1F1F000000000000000000000000000000000000000000000000FFFFFFFFFFFFFFFFFFFFFFFF1111111179
:40274000111111111111111111111111111111111111111111111111111111111111111111111111111111111111111100000000000000001F1F1F1F1F1F1F1F1F1F1F1FF9
:402780001F1F1F1F1F1F1F1F1F1F1F1F1F1F1F1F1F1F1F1F000000000000000000000000000000000000005100000000FFFFFFFFFFFFFFFFFFFFFFFF1111111111111111E0
:4027C0001121111111111111111111111111111111111111111111111111111111111111111111111111111100000000000000001F1F1F1F1F1F1F1F1F1F1F1F1F1F1F1F31
:402800001F1F1F1F1F1F1F1F1F1F1F1F1F1F1F1F000000000000000000000000000000000000001000000000FFFFFFFFFFFFFFFFFFFFFFFF111111111111111111F11111F8
:402840001111111111111111111111111111111111111111111111111111111111111111111111110809001014090010200900102C09001038090010440900105009001011
:402880005C09001088090010920900109C090010A6090010B0090010BA090010C4090010CE09001047656E6572617465645F536F757263655C50536F43365C70646C5C64E1
:4028C0007269766572735C7065726970686572616C5C737973696E745C63795F737973696E742E630000000047656E6572617465645F536F757263655C50536F43365C70CB
:40290000646C5C647269766572735C7065726970686572616C5C6970635C63795F6970635F6472762E68000047656E6572617465645F536F757263655C50536F43365C7026
:40294000646C5C647269766572735C7065726970686572616C5C6970635C63795F6970635F6472762E63000047656E6572617465645F536F757263655C50536F43365C70EB
:40298000646C5C647269766572732F7065726970686572616C2F6970632F63795F6970635F6472762E68000047656E6572617465645F536F757263655C50536F43365C702D
:4029C000646C5C647269766572735C7065726970686572616C5C6970635C63795F6970635F706970652E630047656E6572617465645F536F757263655C50536F43365C7009
:402A0000646C5C647269766572735C7065726970686572616C5C737973636C6B5C63795F737973636C6B2E630000000047656E6572617465645F536F757263655C50536F60
:402A400043365C70646C5C647269766572735C7065726970686572616C5C737973636C6B5C63795F737973636C6B2E680000000047656E6572617465645F536F7572636544
:402A80005C50536F43365C70646C5C647269766572735C7065726970686572616C5C6770696F5C63795F6770696F2E630000000047656E6572617465645F536F757263656F
:402AC0005C50536F43365C70646C5C647269766572735C7065726970686572616C5C6770696F5C63795F6770696F2E680000000047656E6572617465645F536F757263652A
:402B00005C50536F43365C70646C5C647269766572735C7065726970686572616C5C737973706D5C63795F737973706D2E63000047656E6572617465645F536F75726365D4
:402B40005C50536F43365C70646C5C647269766572735C7065726970686572616C5C70726F745C63795F70726F742E6300000000000000000000001000000008C000000009
:402B8000942B0010C00000087803000074040008F80100000048E80100127A0000093D0000093D0000093D0004000000A00F00000000D00702FF0000E9000010C1000010A6
:402BC000000000000004400B19D00D4B1B68002BFBDA3E220B4B1A600B4A0C4B1A600C4B0621A322D20099500A4A98509B580022034B5A60074B064AD358002BFADA704792
:402C0000E0002340040126401E1F000008012640000026401C05000010B54378FF2B0DD100F04CF9064BDB685A68116801230B4313601368DB07FCD400F048F910BDC04611
:402C400080002340F0B583B005000F0000F02EF90600032824D12E4B1B69002B22DB002000F044F92B4B98421ED000232A4A0021012000F00BF9002803D0284C17E0013430
:402C800000E00024002000F031F9224B984202D0234B9C42F3D9224B9C4207D91F4C06E0002404E01D4C02E01C4C00E00024002C2BD100F003F901901A4B1B4AD358002BA5
:402CC00013DA1A4A01211A4800F018F900280ED13800FFF777FF002D0BD0154B1B69002BFBDB00F0FBF8040004E00C4C02E00B4C00E0104C032E05D10121002000F0CEF8CF
:402D00000028F9D1019800F0E1F8200003B0F0BDC000234001018800E000000805005200EF4902001C0500000000264030060008000023400100500070B5304B1B68002BD2
:402D4000FBDA2E4BD96802220A43DA60DB68DB071FD52A4EF2681204150C294B1A69120A1204FF2424042240110090241A59120A12060A432A43F2601969224A11409025B5
:402D80002D012943196119590A402A431A511A691B591A4B00225A605B681B4A116904230B431361012801D030BF00E020BF134B1B68002BFBDA114BDB68DB0715D510485C
:402DC0000269104B1A4014000C4DEA68120C1202FF2109020A4022430261902142581340EA68120E120213434350044BDA6802218A43DA6000225A6070BDC046E00023406B
:402E000000002140FF00FFFF00ED00E0164A116904230B431361012801D030BF00E020BF124B1B68002BFBDA86235B00104AD358002B14D10F4A104B1A6006220F4B1A6059
:402E400038320F4B1A6006320E4B1A600D4B1B68002BFBDA0C4986235B00054AD1500022024B5A607047C04600ED00E0E0002340000025401E1F00000801264018052640DB
:402E8000040126401C052640AAAAAAAA01B40248844601BC604700BFC90E001001B40248844601BC604700BF510C001001B40248844601BC604700BF1904001001B4024834
:402EC000844601BC604700BF231B001001B40248844601BC604700BF2B1B001001B40248844601BC604700BF4514001001B40248844601BC604700BFDD0C001001B402481C
:402F0000844601BC604700BF2D0B0010000000000000000000000000000000000000000000000000000000000000000000000000000000000000000000000000000000005C
:402F40000000000000000000000000000000000000000000000000000000000000000000000000000000000000000000000000000000000000000000000000000000000051
:402F80000000000000000000000000000000000000000000000000000000000000000000000000000000000000000000000000000000000000000000000000000000000011
:402FC00000000000000000000000000000000000000000000000000000000000000000000000000000000000000000000000000000000000000000000000000000000000D1
:020000041008E2
:4000000000780408F90208100D00000061030810610308106103081061030810000000000000000000000000000000005D0308105D030810000000005D0308105D0308104C
:400040005D0308105D0308105D0308105D0308105D0308105D0308105D0308105D0308105D0308105D0308105D0308105D0308105D0308105D0308105D0308105D03081000
:400080005D0308105D0308105D0308105D0308105D0308105D0308105D0308105D0308105D0308105D0308105D0308105D0308105D0308105D0308105D0308105D030810C0
:4000C0005D0308105D0308105D0308105D0308105D0308105D0308105D0308105D0308105D0308105D0308105D0308105D0308105D0308105D0308105D0308105D03081080
:400100005D0308105D0308105D0308105D0308105D0308105D0308105D0308105D0308105D0308105D0308105D0308105D0308105D0308105D0308105D0308105D0308103F
:400140005D0308105D0308105D0308105D0308105D0308105D0308105D0308105D0308105D0308105D0308105D0308105D0308105D0308105D0308105D0308105D030810FF
:400180005D0308105D0308105D0308105D0308105D0308105D0308105D0308105D0308105D0308105D0308105D0308105D0308105D0308105D0308105D0308105D030810BF
:4001C0005D0308105D0308105D0308105D0308105D0308105D0308105D0308105D0308105D0308105D0308105D0308105D0308105D0308105D0308105D0308105D0308107F
:400200005D0308105D0308105D0308105D0308105D0308105D0308105D0308105D0308105D0308105D0308105D0308105D0308105D0308105D0308105D0308105D0308103E
:400240005D0308105D0308105D0308105D0308105D0308105D0308105D0308105D0308105D0308105D0308105D0308105D0308105D0308105D0308105D0308105D030810FE
:400280005D0308105D0308105D03081010B5054C237833B9044B13B10448AFF300800123237010BD14540208000000007CE80810084B10B51BB108490848AFF3008008484F
:4002C000036803B910BD074B002BFBD0BDE81040184700BF00000000185402087CE80810E44C0208000000007047EFF3108072B6704780F310887047FFF7F6FF72B6114C49
:40030000114DAC4209DA21686268A368043BA2BFC858D050FAE70C34F3E70C490C4A00209142BCBF41F8040BFAE70A480A490860BFF34F8F01F0A8FA01F0F4F801F0AAF873
:40034000FEE7000080E8081098E8081014540208D4D402080040020808ED00E0FEE7FEE700B504207146084202D0EFF3098001E0EFF30880043004F017FDFEE780B483B089
:4003800000AF0346FB80B7F90630002B0BDB0949B7F906305B09FA8802F01F02012000FA02F241F8232000BF0C37BD465DF8047B704700BF00E100E080B483B000AF0346A8
:4003C000FB80B7F90630002B0CDB0949B7F906305B09FA8802F01F02012000FA02F2603341F8232000BF0C37BD465DF8047B704700E100E080B483B000AF786039607B6880
:400400003A689A6000BF0C37BD465DF8047B704780B483B000AF786039607B683A681A6100BF0C37BD465DF8047B704780B485B000AFF860B9607A60FA68BB689B0113449E
:4004400003F598737A681A60FA68BB689B01134403F598731B6800BF1437BD465DF8047B704700BF80B485B000AFF860B9607A60FA68BB689B01134403F58A737A681A609C
:4004800000BF1437BD465DF8047B704780B485B000AFF860B9607A60FA68BB689B01134403F586737A681A6000BF1437BD465DF8047B704780B483B000AF78607B68D3F848
:4004C000403318460C37BD465DF8047B704700BF80B483B000AF78607B68D3F8043343F480327B68C3F804237B68D3F8043323F480327B68C3F804237B68D3F8043300BF03
:400500000C37BD465DF8047B704700BF80B483B000AF78607B68D3F8043243F480327B68C3F804227B68D3F8043223F480327B68C3F804227B68D3F8043200BF0C37BD4652
:400540005DF8047B704700BF80B483B000AF78607B681B6843F000427B681A6000BF0C37BD465DF8047B704780B483B000AF78607B685B6A03F00103002B14BF01230023A9
:40058000DBB218460C37BD465DF8047B704700BF80B582B000AF78607868FFF799FF00BF0837BD4680BD00BF80B582B000AF78607868FFF7ABFF00BF0837BD4680BD00BFFC
:4005C00080B582B000AF78607868FFF773FF034618460837BD4680BD80B582B000AF786039603968786803F0A1FE034618460837BD4680BD80B584B000AFF860B9607A607C
:40060000BB68072B04D940F2E7210E4804F0B8FB7B68012B04D94FF43A710A4804F0B0FB7B68002B05D10122BB689A40FB685A6004E00122BB689A40FB689A6000BF1037FE
:40064000BD4680BDE8C40810B0B58EB000AF0C4B3C1D1D460FCD0FC40FCD0FC40FCD0FC42B6823603B1D00221946064803F072FF0448FFF769FF00BF3837BD46B0BD00BF5C
:4006800028C508100000674080B582B000AF224A3B4612881A80002202212048FFF7AAFF1F48FFF775FF1E48FFF77EFF3B7819461B48FFF791FF00BF1948FFF755FF0346B3
:4006C000002BF9D11648FFF77BFF0346DBB23B717B7819461248FFF77FFF00BF1048FFF743FF0346002BF9D10D48FFF769FF0346DBB27B71012202210848FFF77BFF3B79D9
:400700001B021AB27B791BB213431BB2FB80FB8818460837BD4680BD5CC50810800032400000674090B583B000AFFFF7ADFF0346FB80FB8803F00403002B01D00D4B14E0ED
:40074000FB88DB08FB80FB8818460AF015FF4FF00002094B0AF076FF03460C46184621460BF082F903463B603B6818460C37BD4690BD00BF000080BF0000D03F80B584B0E1
:4007800000AF03460A46FB711346BB7102F084FCF860BB79FA79F968074802F0E7F8064AFB681046194641F2B0631A460BF0ACF900BF1037BD4680BD3054020880B500AFA8
:4007C000002005F00FFA6FF07F4005F007FA05F0B7FA01210120FFF7D1FF00BF80BD00BF80B582B000AF03237B60314B1B681A4607213048FFF74AFE00BF04F0BFFC034652
:40080000002B23D004F0A2FC0346002B1ED004F0A9FC0346002BF0D118E0254B1B681A4607212448FFF732FE214B1B685A1C224B83FB02135911D317CB1A642101FB03F3BE
:40084000D31A1B4A1360142004F072FA04F096FC0346002BE1D004F079FC0346002B03D1164B01221A6020E004F07CFC0346002B03D1124B03221A6017E0104B1B68012B14
:4008800003D00E4B1B68032B03D10C4B00221A600BE00B4B1B680133094A1360084B1B68032B02D1054B02221A600837BD4680BD8C420208000038401F85EB51E46A02080A
:4008C000E06A0208F0B5A3B000AFFFF777FF624B1C4607F1500604F1300E35462346186859689A68DB680FC5103410367445F4D15A4B07F138041D4628686968AA68EB68B9
:400900000FC42869696903C4554B07F118041D460FCD0FC495E80F0084E80F00514B3C461D460FCD0FC495E8030084E803009623FE2214210A2005F0D5F9C8231E22142173
:400940001E2005F017FE9623FA2296211E2005F011FE0023C7F884302EE0D7F884309B0007F18802134453F8700CD7F884309B0007F18802134453F8702C9B23962105F0B7
:40098000F9FD07F15001D7F8842013465B0013445B00C818D7F884309B0007F18802134453F8703C0A3B9B22194605F0B3FBD7F884300133C7F88430D7F88430072BCCDDC5
:4009C0000023C7F8803030E0D7F880309B0007F18802134453F8883CC3F1AA01D7F880309B0007F18802134453F8883CC3F1AA031E22192005F0BEFD07F13802D7F88030B7
:400A00009B00D018D7F880309B0007F18802134453F8883CC3F1A4031A46052105F07AFBD7F880300133C7F88030D7F88030052BCADD0D4B1B68013B0C4A52F833300C4AFE
:400A4000136001210020FFF799FE0A4B01221A7000BF8C37BD46F0BDA4C50810D4C50810ECC508100CC6081090420208B8860208EC6A0208E86A0208F0B5A5B000AFFFF79C
:400A80009DFE002005F0AEF86FF07F4005F0A6F8002005F0D9F8002005F0E0F87B4B1C4607F1540604F1300E35462346186859689A68DB680FC5103410367445F4D1744BAA
:400AC00007F13C041D4628686968AA68EB680FC42869696903C46F4B07F11C041D460FCD0FC495E80F0084E80F006B4B3C1D1D460FCD0FC495E8030084E803009623FE22C4
:400B000014210A2005F0EEF8AA231E2214211E2005F030FD9623FA2296211E2005F02AFD0023C7F88C302EE0D7F88C309B0007F19002134453F8740CD7F88C309B0007F157
:400B40009002134453F8742C9B23962105F012FD07F15401D7F88C2013465B0013445B00C818D7F88C309B0007F19002134453F8743C0A3B9B22194605F0CCFAD7F88C3071
:400B80000133C7F88C30D7F88C30072BCCDD0023C7F8883030E0D7F888309B0007F19002134453F88C3CC3F1AA01D7F888309B0007F19002134453F88C3CC3F1AA031E224A
:400BC000192005F0D7FC07F13C02D7F888309B00D018D7F888309B0007F19002134453F88C3CC3F1A4031A46052105F093FAD7F888300133C7F88830D7F88830052BCADDAB
:400C00000123C7F8843033E0D7F88430013B234A52F83330DA0F13445B1003F11E00D7F88430013B1D4ADB0013445B68DA0F13445B10C3F19601194AD7F8843052F83330D0
:400C4000DA0F13445B1003F11E04144AD7F88430DB0013445B68DA0F13445B10C3F19603224605F087FCD7F884300133C7F884300B4B1B68D7F884209A42C5DB01210020D1
:400C8000FFF77CFD00BF9437BD46F0BDA4C50810D4C50810ECC508100CC60810B88602089042020880B588B000AFFFF787FD002004F098FF6FF07F4004F090FF002004F08C
:400CC000C3FF002004F0CAFF05F03AF80023FB6120E0464B1B684649652202FB03F2FB691344DB000B445A684249FB69DB000B445A603E4B1B683E49652202FB03F2FB69A9
:400D0000134451F833203B49FB6941F83320FB690133FB61384B1B68FA699A42D9DB374804F064FF022004F085FF304B1B68304A4FF44A7101FB03F3134403F549731B68F9
:400D400005228421184605F0E5F90023BB613FE0BB69002B0AD11E221421294805F0DAF91E226421274805F0D5F92EE0214ABB6952F8332007F10C03234918460AF02CFF19
:400D80001C4ABB69DB0013445A683B461E4918460AF022FFBB695A1E13469B0013449B0003F1320207F10C031421184605F0B2F9BB695A1E13469B0013449B0003F13202C6
:400DC0003B466421184605F0A5F9BB690133BB61094B1B68BA699A42BADB01210020FFF7CDFC00BF2037BD4680BD00BFE06A020894420208B886020890420208C4CC081007
:400E000024C6081030C6081044C6081080B598B000AFFFF7D3FC002004F0E4FE6FF07F4004F0DCFE002004F00FFF002004F016FF04F086FF9B4804F0D9FE022004F0FAFE2D
:400E400005228421984805F065F91923FB650023BB6501237B65954AFB6D5360934ABB6D136007F12403FA6D914918460AF0B4FE07F124031E220A21184605F04BF9012171
:400E80000020FFF77BFC8EE0002387F84730002387F8533000BF04F071F90346002B34D004F054F90346002B2FD004F05BF90346002BF0D129E004F061F90346002B03D194
:400EC000FB6D0133FB6502E0FB6D0A33FB65FB6DB3F5967F01DB1923FB653223C8221E210A2004F0FFFE07F12403FA6D704918460AF072FE07F124031E220A21184605F0F5
:400F000009F901210020FFF739FC04F037F90346002BD0D004F01AF90346002BCBD002E0012387F8533004F01DF90346002BF7D097F85330002B36D05C4A7B6DDB001344A4
:400F4000FA6D5A6007F12400FB6D7A6D59490AF043FE7A6D13469B0013449B0003F1320207F124030A21184605F0D4F87B6D01337B651923FB653223C8221E210A2004F076
:400F8000B1FE07F12403FA6D494918460AF024FE07F124031E220A21184605F0BBF801210020FFF7EBFB7B6D052B7FF76DAFFFF705FC002004F016FE6FF07F4004F00EFE5B
:400FC000002004F041FE002004F048FE04F0B8FE344804F00BFE022004F02CFE05228421354805F097F83B1DBA6D344918460AF0F3FD3B1D1E220A21184605F08BF8012115
:401000000020FFF7BBFB01237B65BB6DFB6495E0002387F84630002387F84B3000BF04F0ADF80346002B32D004F090F80346002B2DD004F097F80346002BF0D127E004F041
:401040009DF80346002B03D1BB6D0133BB6502E0BB6D0A33BB65BB6DB3F5C87F01DBFB6CBB653223C8221E210A2004F03BFE3B1DBA6D124918460AF0AFFD3B1D1E220A21C0
:40108000184605F047F801210020FFF777FB04F075F80346002BD2D004F058F80346002BCDD010E0C4CC081048C60810B886020860C608107CC6081090C60810A0C608109E
:4010C000012387F84B3004F04DF80346002BF7D097F84B30002B31D059497B6DBA6D41F83320BB6DFB64381DBB6D7A6D55490AF073FD7A6D13469B0013449B0003F1320203
:401100003B1D0A21184605F005F87B6D01337B653223C8221E210A2004F0E4FD3B1DBA6D494918460AF058FD3B1D1E220A21184604F0F0FF01210020FFF720FB7B6D052B36
:401140007FF766AFFFF73AFB002004F04BFD6FF07F4004F043FD002004F076FD002004F07DFD04F0EDFD394804F040FD022004F061FD05226E21364804F0CCFF19220A2199
:40118000344804F0C7FF01210020FFF7F7FA00BF03F0F4FF0346002B09D003F0D7FF0346002B04D003F0DEFF0346002BF0D1002387F84A30002387F84930002387F8483077
:4011C00002E0012387F84A3003F0D8FF0346002BF7D002E0012387F8493003F0B7FF0346002BF7D002E0012387F8483003F0BAFF0346002BF7D097F84A30002B06D0164BBA
:4012000000221A60154B00221A6014E097F84930002B06D0104B01221A60104B00221A6009E097F84830002B05D00B4B03221A600A4B00221A6000BF6037BD4680BD00BFFF
:40124000B8860208B4C60810A0C60810C4CC0810C8C60810F0C60810E46A0208E06A020880B582B000AFFFF7A9FA002004F0BAFC6FF07F4004F0B2FC002004F0E5FC002000
:4012800004F0ECFC04F05CFD204804F0AFFC022004F0D0FC052284211D4804F03BFF01210020FFF76BFA00BF03F068FF0346002B04D003F04BFF0346002BF5D10023FB71B9
:4012C0000023BB7101E00123FB7103F057FF0346002BF8D001E00123BB7103F037FF0346002BF8D0FB79002B02D0FFF78FFD08E0BB79002B05D0074B00221A60064B0022A3
:401300001A6000BF0837BD4680BD00BFC4CC08100CC70810E46A0208E06A020890B585B000AF012201213A48FFF780F8394B1B78002B68D00023FB604FF49673BB600A230D
:401340007B600AF00FFC0246B968FB68CB1A013392FBF3F103FB01F3D21AFB6813442E4A1360FFF7DFF902462C4B1A602C4B1A687B68D31ADA0F13445B1003F11E00294BB3
:401380001B68DA0F13445B10C3F19601244B1B68DA0F13445B1003F11E041F4B1B68DA0F13445B10C3F19603224605F0E3F801210020FFF7E3F94FF4FA7003F0B9FC164B1A
:4013C0001B68184A1360164B1A687B681344144A136003F0D3FE0346002B05D0104B1A68114B1B689A420EDB0A4B00221A700C4A7B6813600B4B00221A60074B00221A608C
:401400000A4B00221A6000BF1437BD4690BD00BF00003840E86A0208F06A0208F46A02080C4C0208F86A0208EC6A0208E06A020880B500AF1249134801F0C6FE114BB3F929
:4014400000301846FEF7B8FF0E4BB3F900301846FEF794FF62B60C4A01210C4802F028FD02210A48FEF7C6FF094A01210748FEF7F9FF02210548FEF7CBFF00BF80BD00BF52
:401480001D13081084C8081078CC0810000038403F420F0080B582B002AFFFF7C9FF03F037FE04F07DFC142001F02AFA012001F037FAFFF7C9F80023009301230E22022141
:4014C000154803F0D9FB154B1B7883F00103DBB2002BF8D0124B1B68002B04D1FFF7E2FBFFF77EF9EFE70E4B1B68012B04D1FFF7E9F9FFF775F9E6E7094B1B68022B02D12B
:40150000FFF7AEFEDFE7064B1B68032BDBD1FFF7B3FAFFF765F9D6E780003240E86A0208E46A020880B500AF124A124BD3F8803123F0404343F08043C2F880310D4A0D4B7C
:40154000D3F8803143F00043C2F88031094A094BD3F8803123F00103C2F8803100F00CF800F012F801F0A2FD01F0AAFD03F05CFA00BF80BD0000264080B400AF00BFBD4603
:401580005DF8047B704700BF80B491B000AFB04BD3F8803303F00F037B63AD4A7B6BD03352F8233003F007033B633B6B042B3AD801A252F823F000BFCD150810D3150810A9
:4015C000D9150810DF150810E7150810A14BFB632CE0A14BFB6329E09F4BFB6326E09F4B1B68FB6322E09A4A7B6BC03352F8233003F01F03FB62FB6A112B07D0132B09D0A6
:40160000102B0BD14FF4FA43FB630BE04FF40043FB6307E04FF40043FB6303E04FF4FA43FB6300BF02E08C4BFB6300BF7B6B002B60D1874BD3F8903503F00103002B14BF2C
:401640000123002387F82B30814BD3F8883503F040531B0F032B0CBF0123002387F82A307B4BD3F8883503F040531B0F002B07D0774BD3F8883503F040531B0F012B01D134
:40168000012300E0002387F8293097F8293003F0010387F8293097F82930002B03D097F82B30002B03D197F82A30002B1FD0684BD3F88035C3F311037B62654BD3F8843594
:4016C000C3F30C033B62624BD3F8803503F080731B0E0133FB61FA6B3B6AB2FBF3F37A6A02FB03F2FB69B2FBF3F3BB6360E0FB6BBB635DE07B6B012B58D1554BD3F8403617
:4017000003F00103002B14BF01230023FB76504BD3F8003603F040531B0F032B0CBF01230023BB764A4BD3F8003603F040531B0F002B07D0464BD3F8003603F040531B0FB5
:40174000012B01D1012300E000237B767B7E03F001037B767B7E002B02D0FB7E002B02D1BB7E002B1FD03A4BD3F8003603F07F037B61374BD3F8003603F4F8531B0A3B6155
:40178000334BD3F8003603F4F8131B0CFB60FB6B7A6902FB03F23B69B2FBF3F2FB68B2FBF3F3BB6304E0FB6BBB6301E0FB6BBB63274BD3F8803303F030031B09BA6B22FA59
:4017C00003F3BB63264ABB6B1360264BD3F8903003F47F431B0A0133BB60224B1B6903F07F431B0E01337B60BA6B7B68B2FBF3F31D4A1360BA6BBB68B2FBF3F3BB631B4AF2
:40180000BB6B1360194B1B68194A1360184B1B6803F5742303F23F23164AA2FB03239B0CDAB2154B1A70124B1B6803F2E733134AA2FB03239B09124A1360114B1B68DB0307
:40184000104A136000BF4437BD465DF8047B70470000264000127A0000366E011C4C0208144C020800002140184C0208104C0208204C020883DE1B43284C0208D34D6210E6
:40188000244C02082C4C020880B582B000AFFEF72CFD7860094A094BD3F8883043F47003C2F88830BFF34F8FBFF36F8F7868FEF720FD00BF0837BD4680BD00BF00ED00E0DE
:4018C00080B584B000AFF860B9607A60BB68072B04D940F2E7210E4803F052FA7B68012B04D94FF43A710A4803F04AFA7B68002B05D10122BB689A40FB685A6004E00122F9
:40190000BB689A40FB689A6000BF1037BD4680BD30C7081080B582B000AF03463960FB711346BB80002203211248FFF7C9FF702001F088FAFB79184601F084FA0122032117
:401940000C48FFF7BDFF002203210A48FFF7B8FF722001F077FABB881946386801F0C0FA012203210348FFF7ABFF00BF0837BD4680BD00BF0006324080B582B000AF034635
:401980000A46FB711346BB71B91DFB7901221846FFF7C0FF00BF0837BD4680BD80B584B000AF03460A46FB711346BB71002203211348FFF785FF702001F044FAFB791846DA
:4019C00001F040FA012203210D48FFF779FF002203210B48FFF774FF732001F033FABB79184601F053FA0346FB73012203210448FFF766FFFB7B18461037BD4680BD00BF70
:401A00000006324080B500AF002202211048FFF757FF002206210F48FFF752FF002204210C48FFF74DFF01F0D7F9002203210A48FFF746FF002202210648FFF741FF00221E
:401A400005210448FFF73CFF01F0AAF900BF80BD00003240800232400006324080B582B000AF0023FB806F22002146480AF072F8454B464A1A60464B464A1A60464B474AA6
:401A80001A6001F08DF906E001F094F90346032B01D9012371E001F04BFA0346002BF3D101F094F900217220FFF778FF034603F00F03022B01D002235FE040210220FFF7D6
:401AC0005BFF00210F20FFF769FF03465BB2002B01DB032351E002210B20FFF74DFF08222F490120FFF716FFD1210720FFF744FF02210820FFF740FFC2210920FFF73CFFBD
:401B000003210420FFF738FF01210320FFF734FF00210320FFF730FF0A2003F009F901210520FFF729FF642003F002F903210520FFF722FF322003F0FBF80F210520FFF780
:401B40001BFF322003F0F4F800210F20FFF726FF034603F04003002B04D040210220FFF70BFF04E0FB885A1CFA80042BD7D1FB88032B01D9052300E0002318460837BD462A
:401B800080BD00BF006B0208746B0208016B0208786B02084E6B02087C6B0208226B020874C7081080B485B000AF0346FB7197F9073013F1090F03DA4FF49663FB812FE076
:401BC00097F9073013F1040F03DA4FF46173FB8126E097F90730052B03DC4FF41673FB811EE097F907300A2B03DC4FF4A573FB8116E097F907300F2B02DCDC23FB810FE084
:401C000097F90730142B02DCB423FB8108E097F90730282B02DC5A23FB8101E03C23FB81054AFB891380054AFB89138000BF1437BD465DF8047B7047706B0208726B0208A8
:401C400090B587B000AF78600B46FB700023FB817B681B787B747B68002B04D101233B74FF237B740AE07B68A64A934204D101233B7400237B7401E000233B7401F090F862
:401C80000023BB8211E3BA8A1346DB009B1A1B019B1A9D4A13446F220021184609F05AFFBA8A1346DB009B1A1B019B1A964A13440133964A1360BA8A1346DB009B1A1B012D
:401CC0009B1A4833904A13440633914A1360BA8A1346DB009B1A1B019B1A20338A4A134402338C4A136021237B827B8A013B7B820023FB82B1E23B7C83F00103DBB2002B6A
:401D000004D07B685A1C7A601B787B74FB78032B00F2A08201A252F823F000BF2D1D0810711E0810C71F081009210810784B1A68FB8A13447A7C02F04002002A01D0C02235
:401D400000E080221A70724B1A68FB8A1344704A1168FA8A0A44127851B27A7C02F01002002A01D0302200E020220A4352B2D2B21A70674B1A68FB8A1344654A1168FA8A26
:401D80000A44127851B27A7C02F00402002A01D00C2200E008220A4352B2D2B21A705C4B1A68FB8A13445A4A1168FA8A0A44127851B27A7C02F00102002A01D0032200E05C
:401DC00002220A4352B2D2B21A70504B1A687B8A134497F91120002A01DA032200E002221A704A4B1A687B8A1344484A11687A8A0A44127851B27A7C02F02002002A01D00C
:401E00000C2200E008220A4352B2D2B21A703F4B1A687B8A13443D4A11687A8A0A44127851B27A7C02F00802002A01D0302200E020220A4352B2D2B21A70344B1A687B8AFE
:401E4000591E798219460A44304909680B441B7859B27B7C03F00203002B02D06FF03F0301E06FF07F030B435BB2DBB21370F1E1274B1A68FB8A13447A7C02F04002002ABC
:401E800001D0802200E040221A70214B1A68FB8A13441F4A1168FA8A0A44127851B27A7C02F01002002A01D0202200E010220A4352B2D2B21A70164B1A68FB8A1344144A13
:401EC0001168FA8A0A44127851B27A7C02F00402002A01D0082200E004220A4352B2D2B21A700B4B1A68FB8A1344094A1168FA8A0A44127851B27A7C02F00102002A0BD0C3
:401F000002220AE0FFFF0F10E8860208746B0208786B02087C6B020801220A4352B2D2B21A709E4B1A687B8A134497F91120002A01DA022200E001221A70984B1A687B8A0D
:401F40001344964A11687A8A0A44127851B27A7C02F02002002A01D0082200E004220A4352B2D2B21A708D4B1A687B8A13448B4A11687A8A0A44127851B27A7C02F0080269
:401F8000002A01D0202200E010220A4352B2D2B21A70824B1A687B8A591E798219460A447E4909680B441B7859B27B7C03F00203002B02D06FF07F0300E040230B435BB270
:401FC000DBB2137046E1764B1A68FB8A13447A7C02F04002002A01D0C02200E040221A706F4B1A68FB8A13446D4A1168FA8A0A44127851B27A7C02F01002002A01D03022CA
:4020000000E010220A4352B2D2B21A70644B1A68FB8A1344624A1168FA8A0A44127851B27A7C02F00402002A01D00C2200E004220A4352B2D2B21A70594B1A68FB8A134420
:40204000574A1168FA8A0A44127851B27A7C02F00102002A01D0032200E001220A4352B2D2B21A704D4B1A687B8A134497F91120002A01DA032200E001221A70474B1A6878
:402080007B8A1344454A11687A8A0A44127851B27A7C02F02002002A01D00C2200E004220A4352B2D2B21A703C4B1A687B8A13443A4A11687A8A0A44127851B27A7C02F01C
:4020C0000802002A01D0302200E010220A4352B2D2B21A70314B1A687B8A591E798219460A442E4909680B441B7859B27B7C03F00203002B02D06FF03F0300E040230B4303
:402100005BB2DBB21370A5E0254B1A68FB8A13447A7C02F04002002A01D0802200E0C0221A701F4B1A68FB8A13441D4A1168FA8A0A44127851B27A7C02F01002002A01D020
:40214000202200E030220A4352B2D2B21A70144B1A68FB8A1344124A1168FA8A0A44127851B27A7C02F00402002A01D0082200E00C220A4352B2D2B21A70094B1A68FB8AC0
:402180001344074A1168FA8A0A44127851B27A7C02F00102002A05D0022204E0746B0208786B020803220A4352B2D2B21A70554B1A687B8A134497F91120002A01DA0222EB
:4021C00000E003221A704F4B1A687B8A13444D4A11687A8A0A44127851B27A7C02F02002002A01D0082200E00C220A4352B2D2B21A70444B1A687B8A1344424A11687A8AD7
:402200000A44127851B27A7C02F00802002A01D0202200E030220A4352B2D2B21A70394B1A687B8A591E798219460A44354909680B441B7859B27B7C03F00203002B02D011
:402240006FF07F0301E06FF03F030B435BB2DBB2137000BFFB8A0133FB82FB8A202B7FF64AADBB8AC3F1B0039BB2FB81B7F90E309BB2013B9BB2FB81234B1B68B7F90E20DB
:40228000921012B21A44B7F90E10204B0B40002B03DA013B63F0030301331BB219461C4B5B5C1370BB8A0133BB82BB8AAF2B7FF6EAAC0023BB8213E0BA8A1346DB009B1AD8
:4022C0001B019B1A134A13446F2219460A20FFF721FB07210220FFF74FFBBB8A0133BB82BB8AAF2BE8D90C4B1B881C4600F062FD03469C42DDD800F069FD00BF1C37BD461B
:4023000090BD00BF746B02087C6B02080300008070C70810E8860208706B020890B587B000AF7860396000233B8200F039FDD2210920FFF721FB0023BB825CE1BA8A13467E
:40234000DB009B1A1B019B1AAE4A13446F220021184609F0FFFBBA8A1346DB009B1A1B019B1AA84A13440133A74A1360BA8A1346DB009B1A1B019B1A4833A24A13440633D6
:40238000A24A1360BA8A1346DB009B1A1B019B1A20339C4A134402339D4A136021237B827B8A013B7B820023FB82FCE07B685A1C7A601B78FB733B685A1C3A601B78BB73FE
:4023C000924B1A68FB8A1A44F97BBB7B4B40DBB203F04003002B08D0BB7B03F04003002B01D0802302E0C02300E040231370874B1A68FB8A1A44854B1968FB8A0B441B781B
:4024000059B2F87BBB7B4340DBB203F01003002B08D0BB7B03F01003002B01D0202302E0302300E010230B435BB2DBB21370774B1A68FB8A1A44754B1968FB8A0B441B78D2
:4024400059B2F87BBB7B4340DBB203F00403002B08D0BB7B03F00403002B01D0082302E00C2300E004230B435BB2DBB21370674B1A68FB8A1A44654B1968FB8A0B441B7812
:4024800059B2F87BBB7B4340DBB203F00103002B08D0BB7B03F00103002B01D0022302E0032300E001230B435BB2DBB21370564B1A687B8A1A44F97BBB7B4B40DBB25BB244
:4024C000002B07DA97F90E30002B01DA022302E0032300E0012313704B4B1A687B8A1A44494B19687B8A0B441B7859B2F87BBB7B4340DBB203F02003002B08D0BB7B03F0CB
:402500002003002B01D0082302E00C2300E004230B435BB2DBB213703B4B1A687B8A1A44394B19687B8A0B441B7859B2F87BBB7B4340DBB203F00803002B08D0BB7B03F089
:402540000803002B01D0202302E0302300E010230B435BB2DBB213702B4B1A687B8A591E798219460A44284909680B441B7859B2F87BBB7B4340DBB203F00203002B0AD0BD
:40258000BB7B03F00203002B02D06FF07F0303E06FF03F0300E040230B435BB2DBB21370FB8A0133FB82FB8A202B7FF6FFAEBB8AC3F1B0039BB23B82B7F910309BB2013B86
:4025C0009BB23B82124B1B68B7F91020921012B21A44B7F910100F4B0B40002B03DA013B63F0030301331BB219460B4B5B5C1370BB8A0133BB82BB8AAF2B7FF69FAE002391
:40260000BB824CE0E8860208746B0208786B02087C6B02080300008070C70810BA8A1346DB009B1A1B019B1A274A13446F2219460A20FFF76FF907210220FFF79DF9BB8AC7
:40264000C3F1B0039BB23B82B7F910309BB2013B9BB23B82BA8AB7F910309B101BB2184619491346DB009B1A1B019B1A0B440344223300221A70BA8A1346DB009B1A1B0160
:402680009B1A114A13446F2219460A20FFF742F907210220FFF770F9BB8A0133BB82BB8AAF2BBBD9094B1B881C4600F083FB03469C42A4D800F08AFBC2210920FFF75CF920
:4026C00000BF1C37BD4690BDE8860208726B020880B582B000AF0023FB800EE01D4B1A68FB88134455221A701B4B1A68FB88134455221A70FB880133FB80FB88202BEDD929
:402700000023FB801FE0154B1B68FA88920892B21344FA8802F0030211498A5C1A706F2210490A20FFF7F6F807210220FFF724F90A4B1B68FA88920892B2134400221A708F
:40274000FB880133FB80FB88AF2BDCD900BF0837BD4680BD746B0208786B02087C6B020870C70810006B020880B582B000AF0023FB7106E0FB790D4A0021D154FB79013308
:40278000FB71FB79152BF5D900210420FFF7F4F86F2206490A20FFF7BDF807210220FFF7EBF800BF0837BD4680BD00BF006B020880B500AF012204211748FFF781F814208C
:4027C00002F0B6FA00F022FB012203211348FFF777F8012206211048FFF772F8012202210D48FFF76DF80A2002F0A2FA002202210948FFF765F80A2002F09AFA0122022194
:402800000548FFF75DF80A2002F092FAFFF726F90346184680BD00BF800232400006324080B500AFFFF754FFFFF79EFF1E2002F07FFA002206213048FFF742F8322002F096
:4028400077FA012206212C48FFF73AF800210F20FFF7A4F8034603F04003002B01D1042348E000210B20FFF787F801210320FFF783F803210520FFF77FF801210520FFF7EA
:402880007BF8322002F054FA80210420FFF774F800210520FFF770F801210720FFF76CF81E2002F045FA00F0C1FA002204211248FFF706F8002206210F48FFF701F8142033
:4028C00002F036FA002203210C48FEF7F9FF002202210948FEF7F4FF012205210648FEF7EFFF1E2002F024FA002205210248FEF7E7FF0023184680BD800232400006324052
:4029000080B582B000AF0346FB71FFF77BF897F907301846FFF746F900BF0837BD4680BD80B584B000AF0346FB710023FB73FB79002B04D0FFF73CFF0346FB7303E0FFF739
:402940006FFF0346FB73FB7B002B02D10123FB7301E00023FB73FB7B002B14BF01230023DBB218461037BD4680BD00BF80B584B000AFF860B96011461A460B46FB71134678
:40298000BB71BB79002B02D00120FFF7C9FFFB79002B04D1B968F868FFF7C0FC18E0FB79012B02D0FB79022B12D10021F868FFF747F9FB79012B07D10121F868FFF740F966
:4029C0000221B868FFF73CF90321B868FFF738F9BB79002B02D00020FFF7A2FF00BF1037BD4680BD80B483B000AF786039607B683A685A6000BF0C37BD465DF8047B70477A
:402A000080B485B000AFF860B9607A60FA68BB689B01134403F584737A681A6000BF1437BD465DF8047B704780B483B000AF786039607A683B689B01134403F584731B6867
:402A400018460C37BD465DF8047B704780B483B000AF78607B68D3F8403318460C37BD465DF8047B704700BF80B483B000AF78607B68D3F8043343F480327B68C3F80423A9
:402A80007B68D3F8043323F480327B68C3F804237B68D3F8043300BF0C37BD465DF8047B704700BF80B483B000AF78607B68D3F80832C3F3080318460C37BD465DF8047B60
:402AC000704700BF80B483B000AF78607B68D3F8083203F40043DB0B18460C37BD465DF8047B704790B583B000AF78607868FFF7D9FF04467868FFF7E5FF03462344002BAF
:402B00000CBF01230023DBB218460C37BD4690BD80B483B000AF78607B68D3F8043243F480327B68C3F804227B68D3F8043223F480327B68C3F804227B68D3F8043200BF72
:402B40000C37BD465DF8047B704700BF80B483B000AF78607B68D3F8C02F40F66D33134018460C37BD465DF8047B704780B582B000AF786039603B6823F4366323F00D03E5
:402B8000002B04D040F2C331064802F0F9F87B683A68C3F8C02F7B68D3F8C03F00BF0837BD4680BD7CC7081080B483B000AF78607B681B6843F000427B681A6000BF0C3722
:402BC000BD465DF8047B704780B582B000AF78607868FFF7BBFF034603F06D0318460837BD4680BD80B582B000AF786039603B6823F06D03002B04D040F21E41054802F0C4
:402C0000BFF839687868FFF7B1FF00BF0837BD4680BD00BFC0C7081080B582B000AF78607868FFF721FF00BF0837BD4680BD00BF80B582B000AF78607868FFF753FF0346DA
:402C400018460837BD4680BD80B582B000AF78607868FFF75DFF00BF0837BD4680BD00BF80B582B000AF78607868FFF7EFFE034618460837BD4680BD80B582B000AF786095
:402C800039603968786801F051FB034618460837BD4680BD80B584B000AFF860B9607A60BB68002B02D07B68002B04D140F2AB51054802F065F87A68B968F86801F0ACFB6C
:402CC00000BF1037BD4680BDC0C7081080B582B000AF786039603B68082B04D940F2C621064802F04DF87B681A693B6822FA03F303F0010318460837BD4680BD00C8081048
:402D000080B584B000AFF860B9607A60BB68072B04D940F2E7210E4802F032F87B68012B04D94FF43A710A4802F02AF87B68002B05D10122BB689A40FB685A6004E00122EA
:402D4000BB689A40FB689A6000BF1037BD4680BD00C8081080B500AF01210248FFF742FE00BF80BD0000384080B582B000AF78607A6800210348FFF743FE00BF0837BD4665
:402D800080BD00BF0000384080B500AF00210348FFF74AFE0346184680BD00BF0000384080B500AF0020FFF7DFFF00F0C5F900BF80BD00BF80B582B000AFFFF7E5FF7860ED
:402DC0007B6818460837BD4680BD00BF80B500AFFFF7C0FF00BF80BD80B500AF074A0849084801F0B7FB0748FFF7DEFE012203210548FFF785FF00BF80BD00BF3CD3020843
:402E0000CCC80810000067400006324080B500AF012203210348FFF773FF0348FFF7C4FE00BF80BD000632400000674080B500AF0249034801F042FD00BF80BD3CD302080C
:402E40000000674080B582B000AF0346FB71FB7919460D48FFF710FF00BF0B48FFF7B4FE034603F00403002BF7D00748FFF7ECFE0548FFF7D1FE04210348FFF7B3FE00BFAD
:402E80000837BD4680BD00BF0000674080B584B000AF0346FB71FB7919461048FFF7ECFE00BF0E48FFF790FE034603F00403002BF7D00A48FFF7D4FE0346FB730748FFF771
:402EC000C3FE0648FFF7A8FE04210448FFF78AFEFB7B18461037BD4680BD00BF0000674080B582B000AF78600B467B807B881A4679680E48FFF7CEFE00BF0C48FFF798FE42
:402F0000034683F00103DBB2002BF6D10748FFF79BFE0648FFF780FE04210448FFF762FE7B8818460837BD4680BD00BF0000674080B500AF03210548FFF7C8FE0346002B20
:402F400001D0012300E00023184680BD8002324080B500AF4FF48071034802F029FA034802F0BAFE00BF80BD806B020848DE081080B500AF00F010F800BF80BD80B400AF73
:402F8000044B1B680133034A136000BFBD465DF8047B704738D3020880B582B000AF2021002001F0E1FF00237B600DE0786802F059F80346002B04D10B49786802F034F8F8
:402FC00005E07B6801337B607B68042BEED97B68042B03D9A421054801F0D2FE01F0F0FF00BF0837BD4680BD7D2F081040C8081080B582B000AF01233B60002300221849E3
:40300000184802F0E9FF78603B461946786804F09EFB04F0FDFF0346002B0CD04FF48472B021002005F0D9F84FF48472B021002005F0FFF80BE0B0224FF48471002005F0E1
:40304000CCF8B0224FF48471002005F0F2F80649002005F0D9F800BF0837BD4680BD00BFD0E5081004E60810304C020880B487B000AFF860B9607A60BB68012B01D1002353
:4030800003E04FF0FF337B617B6918461C37BD465DF8047B704700BF80B400AF024B1846BD465DF8047B7047806C020880B500AF00220021042000F027FA00BF80BD00BFD5
:4030C00080B582B000AF084800F06EFC01F009FF7860064800F07CFC786801F006FF00BF0837BD4680BD00BF3083020848C8081080B500AF012000F00BFE00BF80BD00BF18
:4031000080B483B000AF786039607B683A689A6000BF0C37BD465DF8047B704780B483B000AF786039607B683A689A6100BF0C37BD465DF8047B704780B500AF0A4B1B7896
:40314000002B07D1094A0021094800F0B1FE064B01221A7001210648FFF7D2FF01210448FFF7DCFF00BF80BDB084020800C908100000384080B483B000AF03463960FB806E
:40318000B7F90630002B0ADB0D49B7F906303A68D2B25201D2B20B4483F800230AE00949FB8803F00F03043B3A68D2B25201D2B20B441A7600BF0C37BD465DF8047B704784
:4031C00000E100E000ED00E080B584B000AF786039600023FB607B68002B24D07B685B68072B03D93621134801F0CAFD7B68B3F900207B685B6819461046FFF7BBFF0E4B07
:403200009B680E4A934210D13B68002B03D14521084801F0B5FD7B68B3F900303968184600F010F801E0064BFB60FB6818461037BD4680BD4CC9081000ED00E000400208B3
:403240000100560080B584B000AF03463960FB80134B9B68134A934215D13B68002B03D1FC21114801F08CFDB7F9063010330D4A52F82330FB60B7F90630103309493A68E2
:4032800041F8232006E0B7F906301033074A52F82330FB60FB6818461037BD4680BD00BF00ED00E0004002084CC908100000081080B582B000AF786039603B681B0C1B0467
:4032C000002B04D040F29A21054801F059FD3B689AB27B689A6000BF0837BD4680BD00BF90C9081080B582B000AF786039603B681B0C1B04002B04D040F2B321054801F061
:403300003FFD3B689AB27B685A6000BF0837BD4680BD00BF90C9081080B483B000AF786039607B683A68DA6000BF0C37BD465DF8047B704780B483B000AF78607B68DB686D
:4033400018460C37BD465DF8047B704780B483B000AF78607B681B6903F00043DB0FDBB218460C37BD465DF8047B704780B483B000AF78607B681B6803F00043002B01DA5D
:40338000002300E0034B18460C37BD465DF8047B704700BF01008A0080B584B000AF786039607868FFF7D2FF0346002B06D039687868FFF797FF0023FB6001E0034BFB60B4
:4033C000FB6818461037BD4680BD00BF01008A0080B586B000AFF860B9607A60F868FFF7C5FF0346002B0AD17968F868FFF794FFB968F868FFF75CFF00237B6101E0034BA3
:403400007B617B6918461837BD4680BD01008A0080B584B000AF786039603B68002B03D199210C4801F0ACFC7868FFF78FFF0346002B08D07868FFF77DFF02463B681A601B
:403440000023FB6001E0044BFB60FB6818461037BD4680BDD0C9081001008A0080B582B000AF78607B680F2B04D940F2A911064801F086FC7B685B0103F1804303F50C131D
:4034800018460837BD4680BD10CA081080B483B000AF78607B68DB6818460C37BD465DF8047B704780B584B000AFF860B9607A607B68002B04D140F26A31074801F060FC4B
:4034C0007B681A46B968F868FFF782FF034618461037BD4680BD00BF10CA081080B483B000AF78607B681B6803F00043002B01DA002300E0034B18460C37BD465DF8047B59
:40350000704700BF01008A0080B586B000AFF860B9607A60304B7B61FB680F2B02D92E4B7B6154E07B68002B0BD1BB68002B08D1F868FFF793FF0246284B1A6000237B61A0
:4035400045E07B68002B40D0BB68002B3DD0BB6803F01F03002B35D1F868FFF77FFF02461E4B1A601E4ABB6813601D4A7B6853601B4B5868BB68DB081A46002108F0EAFAC1
:40358000164B1B6800211846FFF706FF134B1B68134A00211846FFF785FF0346002B0ED10E4B1B6800211846FFF7F6FE0346002B02D100237B610AE00A4B7B6107E0094B42
:4035C0007B6104E0044B7B6101E0034B7B617B6918461837BD4680BD03018A00B4840208B884020801018A0080B588B000AF78600B46FB700023FB612F4BBB612F4B1B68A0
:403600001846FFF743FF03467B617B691A687B689A4249D97B685B093B613B695B017A68D31A012202FA03F3FB60FB7883F00103DBB2002B02D001F054FCF8611F4B1B686B
:403640001846FFF74BFF0346002B23D17B695A683B699B0013441A68FB681340002B11D07B695A683B699B0013447A6951683A6992000A441168FA68D2430A401A60002392
:40368000BB6101E00E4BBB610C4B1B6800211846FFF782FEFB7883F00103DBB2002B05D0F86901F022FC01E0064BBB61BB6918462037BD4680BD00BF03018800B4840208EE
:4036C0000201880004018A0080B586B000AF7860164B1B681846FFF7D9FE03463B613B691A687B689A421AD97B685B09FB60FB685B017A68D31A012202FA03F3BB603B69EE
:403700005A68FB689B0013441A68BB681340002B02D0074B7B6104E0064B7B6101E0064B7B617B6918461837BD4680BDB4840208010188000001880004018A0080B483B014
:4037400000AF0346FB80B7F90630002B0BDB0949B7F906305B09FA8802F01F02012000FA02F241F8232000BF0C37BD465DF8047B704700BF00E100E080B582B000AF786025
:403780007B680F2B04D940F2A911064801F0F8FA7B685B0103F1804303F50C1318460837BD4680BD50CA081080B582B000AF78607B680F2B04D94FF4E271054801F0E0FA40
:4037C0007B685A01034B134418460837BD4680BD50CA08100010234080B584B000AFF860B9607A607B681B0C1B04002B04D04FF4F1710C4801F0C4FABB681B0C1B04002B9D
:4038000004D040F2E311074801F0BAFA7B681A04BB689BB21A43FB689A6000BF1037BD4680BD00BF50CA081080B483B000AF78607B68DB6818460C37BD465DF8047B7047F5
:4038400080B483B000AF78607B681B6818460C37BD465DF8047B704780B584B000AFF860B9607A607B681B0C1B04002B04D04FF41E710D4801F084FABB681B0C1B04002B10
:4038800004D040F27921084801F07AFA7B681A04BB689BB21A43FB681A60FB681B6800BF1037BD4680BD00BF50CA081080B582B000AF786039603B681B0C1B04002B04D07C
:4038C00040F29A21054801F05BFA3B689AB27B689A6000BF0837BD4680BD00BF50CA081080B483B000AF786039607B683A68DA6000BF0C37BD465DF8047B704780B483B010
:4039000000AF78607B681B6903F00043DB0FDBB218460C37BD465DF8047B704780B483B000AF78607B681B0C18460C37BD465DF8047B704780B483B000AF78607B689BB278
:4039400018460C37BD465DF8047B704780B582B000AF786039603B68002B04D14FF46371054801F00DFA39687868FFF751FD034618460837BD4680BD50CA081080B483B00E
:4039800000AF78607B681B6803F00043002B01DA002300E0034B18460C37BD465DF8047B704700BF01008A0080B483B000AF7860064B1B68002B02D1044A7B68136000BFF1
:4039C0000C37BD465DF8047B704700BFC0840208B0B590B002AF78607B68002B03D15021344801F0CDF97B689B69072B03D95421304801F0C5F97B68DB6A002B03D1562106
:403A00002C4801F0BDF97B68DB68072B03D95721284801F0B5F97B681B6A072B03D95821244801F0ADF97B681B6B002B03D15921204801F0A5F97B6807F11C0403F11405DD
:403A40000FCD0FC42B6823607B6807F108041D460FCD0FC42B682360FB699BB219339BB21BB23B863B6A7B63B86A7B68D96A7B689A6AFC6A07F130030093234600F01CF857
:403A80007869BA690023009313460022002100F013F87B681A6B07F1300311461846FFF793FBB7F930301846FFF748FE00BF3837BD46B0BD90CA081080B586B000AFF860BD
:403AC000B9607A603B60294B1B68002B03D1B421274801F055F9FB68072B03D9B521244801F04EF9214B1A68FB682C2101FB03F313447B613B68DAB27B691A603B681B0ABC
:403B0000DAB27B695A603B681A0C7B699A607B691B681846FFF730FE02467B691A617B695B681846FFF740FE02467B695A617B6958697B6999687B699B681A46FFF74CFEF3
:403B40007B697A68DA617B69BA681A627B6900229A613B6A002B04D03B6AB3F900207B699A8100BF1837BD4680BD00BFC084020890CA081080B58AB000AFF860B9607A6077
:403B80003B607B68002B03D1FD213B4801F0F8F83A4B1B68002B03D1FE21374801F0F0F8FB68072B03D9FF21334801F0E9F8BB68072B04D94FF480712F4801F0E1F82F4B89
:403BC0001A68FB682C2101FB03F313443B622B4B1A68BB682C2101FB03F31344FB61FB695B68012202FA03F3BB61BB691B04BB613B6A5B68012202FA03F37B613B6A1B6967
:403C0000002B32D0FB699B69002B2BD13B6A1B691846FFF7B3FE0346002B20D17B681B689AB27B681A607B681A68BB691A437B681A603B6A1B697A6811461846FFF750FEDF
:403C4000FB6901229A61FB693A685A623B6A1B6979691846FFF72AFE00237B6207E0084B7B6204E0064B7B6201E0064B7B627B6A18462837BD4680BD90CA0810C08402089F
:403C800007028A0004028A0080B586B000AFF860B9607A601B4B1B68002B04D140F26111194801F06DF8FB68072B04D94FF4B171154801F065F8134B1A68FB682C2101FB2A
:403CC00003F313443B613B691B6A002B04D14FF4B3710D4801F054F83B69DA697B689A4209D93B691A6A7B689B001344BA681A6000237B6101E0054B7B617B6918461837FB
:403D0000BD4680BDC084020890CA08100A028A0080B584B000AF78600F4B1B68002B04D14FF4DA710D4801F02BF87B68072B04D940F2B511094801F023F8074B1A687B682B
:403D40002C2101FB03F31344FB60F86800F008F800BF1037BD4680BDC084020890CA081090B589B000AF78600023FB600023FB617B68002B04D14FF4EA714C4801F000F8FC
:403D80007B681B69002B04D140F2D511474800F0F7FF7B685B69002B04D14FF4EB71434800F0EEFF7B681B6A002B04D140F2D7113E4800F0E5FF7B685B691846FFF734FD59
:403DC000B861B869FFF7AAFD0346002B3ED07B685C69B869FFF7A2FD03461A4600212046FFF73AFD7B681B691846FFF787FD0346002B2BD07B681B6907F10C0211461846DF
:403E0000FFF7A4FD0346002B1AD1FB681B681B0CFB61FB681B68DBB27B617B68DA697B699A420DD97B681A6A7B699B0013441B683B613B69002B03D0FA683B6910469847CF
:403E40007B681B69F9691846FFF7A6FAB869FFF771FD0346002B1FD07B685C69B869FFF769FD0346002219462046FFF7F5FC7B685B6A002B06D07B685B6A98477B6800222C
:403E80005A6206E07B689B6A002B02D07B689B6A98477B6800229A617B685B691846FFF7CFFC00BF2437BD4690BD00BF90CA081080B487B000AFF860B9607A60644B7B6163
:403EC000FB68002B00F0BD807B68002B00F0B9807B685B681B029AB27B689B689B0403F480231A437B68DB681B0403F440331A437B681B691B0603F0E0631A437B681B7FA1
:403F0000002B01D0012300E000231A43F968BB6804339B010B441A607B68DB68002B08D1FA68BB689B01134403F5847300221A6015E07B68DB68012B09D17B681A68F968CD
:403F4000BB689B010B4403F584731A6007E0FA68BB689B01134403F5847301221A607B681B69002B11D17B685A69F968BB689B010B4403F586731A607B689A69F968BB6881
:403F80009B010B4403F588731A607B681A68F968BB689B010B4403F58A731A607B689B6CB3F1FF3F20D07B689B6A03F00F027B681B6B1B0203F470631A437B689B6B1B0409
:403FC00003F470231A437B681B6C1B039BB21A437B689B6C1B01DBB21A43F968BB689B010B4403F590731A607B685B6A03F003027B68DB6A1B0103F030031A437B685B6BC4
:404000001B0203F440731A437B68DB6B9B01DBB21A437B685B6C9B0003F00C031A43F968BB689B010B4403F592731A607B681A6AF968BB689B010B4403F59C731A600023A9
:404040007B617B6918461C37BD465DF8047B70470100B60080B487B000AFF860B9607A608D4B7B61FB68002B00F00F817B68002B00F00B817B6893F82830002B01D00122F4
:4040800000E000227B681B7F002B01D0022300E000231A437B681B699B0403F480231A437B689B681B0403F440331A437B681B681B0603F0E0631A437B68196B7B685B6B0D
:4040C0005B000B431B0503F440131A437B689B6B9B001A437B681B68052B04D17B68DB681B029BB203E07B685B681B029BB21A43F968BB6804339B010B441A607B681B689E
:40410000062B10D1FA68BB689B01134403F5847301221A60FA68BB689B01134403F594733F221A603AE07B689B68002B10D1FA68BB689B01134403F5847300221A60FA68A6
:40414000BB689B01134403F5947331221A6025E07B689B68012B11D17B685A69F968BB689B010B4403F584731A60FA68BB689B01134403F594731C221A600FE0FA68BB6843
:404180009B01134403F5847301221A60FA68BB689B01134403F5947312221A607B681A6AF968BB689B010B4403F586731A607B685A6AF968BB689B010B4403F588731A6097
:4041C0007B685A69F968BB689B010B4403F58A731A607B689A69F968BB689B010B4403F58C731A607B681B6EB3F1FF3F20D07B681B6C03F00F027B689B6C1B0203F47063F8
