:020000041000EA
:4000000000400208310100100D000000950100100000000000000000000000000000000000000000000000000000000091010010000000000000000091010010910100109B
:400040009101001091010010910100109101001091010010910100109101001091010010910100109101001091010010910100109101001091010010910100109101001060
:400080009101001091010010910100109101001091010010910100109101001091010010910100109101001091010010910100109101001091010010910100109101001020
:4000C00010B5064C2378002B07D1054B002B02D0044800E000BF0123237010BD7404000800000000702B0010084B10B5002B03D00749084800E000BF07480368002B00D159
:4001000010BD064B002BFBD09847F9E70000000078040008702B0010EC000008000000007047EFF3108072B6704780F310887047FFF7F6FF72B6104C104DAC4209DA2168D9
:400140006268A368043B02DBC858D050FAE70C34F3E70B490B4A0020521A02DD043A8850FCDC094809490860BFF34F8F00F002F900F01EF8FEE70000742B00108C2B00106A
:40018000740400086C0600080000000808ED00E0FEE7FEE700B504207146084202D0EFF3098001E0EFF30880043001F051FCFEE710B5034800F052F9002001F087FBFBE725
:4001C0000000081070B56249E0239B00CB580F2213401A00D0329200525807210A40032A05D0042A06D0002A12D15A4814E05A4A106811E01A00C0329200554952581F212C
:400200000A40112A06D0132A04D0FA20C00103E0524801E080200002002B36D14C4BB222D2009A5801211140B125ED005A59120F032422405B591B0F1C4207D0444C635924
:400240001B0F03242340012B02D102E0012300E00023002B01D0002901D1032A4BD13C4BB022D2009D58AD03AD0B3D495958C904C90C9C58240E01231C40013401F086FCD3
:400280006843210001F082FC35E0012B33D1304BC822D2009A5801251540C024E4001A59120F03210A401B591B0F194207D028490B591B0F03210B40012B02D102E001230D
:4002C00000E00023002B01D0002D01D1032A12D11F4DC022D200AB587F210B40A958090A1F263140AC58240C3440584301F04EFC210001F04BFCE0239B00154AD3581B09F5
:4003000003221340D840144C6060164B1D692D0AFC32154001351969090E013101F036FCA060290001F032FC0500E06020610E4BC0180E4901F02AFC20750D4BE818FA2193
:40034000890001F023FCA061C003E06170BDC0460000264000127A00C000000800366E0184050000000021403F420F0040420F00E703000010B5234BB021C9005A58520087
:4003800052085A50E02080001A583024A2431A50802252045A501C491C4A9950A021890104329950FF211A4A995081315A58920092088020C00502435A505A58802000063B
:4003C00002435A505A58012082435A5000F0C6F9FFF7F8FE00F06EF800F076F801F058F8B0235B055B78002B04D0B0235B055B78DBB200E02123212B03D1064B0022DA60B3
:400400005A6010BD0000264001000200840500008C050000E00023408023024AD3580320184070470000214010B5FFF77AFE084980228C58074B2340074C23438B508823C4
:40044000034AD358DB06FAD5FFF76FFE10BDC04600002140FCFF00000100FA0570B50500FFF75FFE0400FFF7D7FF032801D1FFF7DBFF0A4AB0239B00D55080215058084B25
:4004800003400848034353508823044AD358DB06FAD52000FFF749FE70BDC04600002140FCFF00000300FA0510B5002000F008FE10BDC04610B5034A8021042000F06CFB22
:4004C00010BDC0469004000810B50748103000F023FC01F026FB0400044800F08FFC200001F023FB10BDC04690040008281D0010FEE7C046F0B50025002711E0BB00C658B4
:40050000F3B2FF22964308E06A008A181478A419527822700135013BDBB2002BF4D10137012FEBD9F0BDC04670B586B06A4BA021C9005A58032082435A50684A9024105908
:4005400067490840105110690002000A1061106901408020400001431161E02292009958F138814399509958213081439950995880200006014399500021012000F0BEFDE1
:400580000021022000F0BAFD0021032000F0B6FD0021042000F0B2FD0021002000F0AEFD01A8504903000A0032CA32C312CA12C300F0CCFD002802D00420FFF799FF4649C5
:4005C000494A8B588020000603438B50474800F075FE002802D00420FFF78AFF3E4C444BE158444A0A40E250E158434A0A40E250E25880252D062A43E250043BE1583F4ADF
:400600000A40E250E1583E4A0A40802189010A43E250E258802109020A43E250394A1168394B0B40802149000B431360002001F07FFA364AA3581D43A550A3580125AB4345
:400640002B43A3506421002001F01AFA304B0021304A9950802000011A5821490A401A508022D2002C489850985840242B481C50902424011E592A4830402A4E30431851B6
:40068000294898509858C52000011D50274D58590840C624E40120435851254898509858022524481D5024481D58294021431950224999509958B02000011958FF242140EF
:4006C0001F4C214319501958F824A14319501D4999509B5806B070BD0000264000002140FF00FFFF5C1D0010087F0000400D030004050000FEFCFFFFFFFF00FFFFF0FFFFB4
:40070000FF8FFFFF00002740FFFCFFFF0C05000000000140180C000000FF00804C0C0000FF0000FF004FC30040FF00800408000001FF0080680C00000808000002FF008020
:40074000003F420FC0FF008010B50A00002101F0B2FA10BD10B501F0A5FA10BD70B58AB09621002001F08CF901F062F9002801D101F04EF9012000F0E1FF4B4A516C4B4B2B
:400780000B40E82189010B435364536C1B0AFF2213403A2B07D1444A516C454B0B40E82189010B435364FFF7BFFE424A424B1A6000240CE0620012195300404AD318198BB4
:4007C0009A8AD88A00041043FFF7BEFF01340B2CF0D900240AE0620012199300374AD3185A6E196ED86DFFF7B5FF0134112CF2D9334D2900343128004030FFF77BFE314A8F
:400800001368832149000B43136001AC24220021200001F050FAC023DB00E36021002A4800F040FE22002B00483343CB43C243CB43C243CB43C22100244800F033FE242269
:400840000021200001F037FA214BE3602100214800F028FE22002B006C3323CB23C223CB23C223CB23C221001B4800F01BFE1B4D22002B00103343CB43C243CB43C243CBA8
:4008800043C22100164800F00DFE22002B00343323CB23C223CB23C223CB23C22100114800F000FE0AB070BD00002740FF00FFFFFFC5FFDF0300FA05F00121405C1D00105A
:4008C0005C1E0010007934400000324080003240008666068002324000033240DC1E0010800432400006324010B583089A00801AC000FF228240D44381400A40072B32D8C5
:400900009B001949CB589F46184B196A0C4022431A6228E0154B596A0C4022435A6222E0124B996A0C4022439A621CE00F4BD96A0C402243DA6216E00C4B196B0C402243F0
:400940001A6310E0094B596B0C4022435A630AE0064B996B0C4022439A6304E0034BD96B0C402243DA6310BD642800100000214083089A00801AC100FF228A40072B2BD8C9
:400980009B001748C3589F46164B186A1040C84023E0144B586A1040C8401EE0114B986A1040C84019E00F4BD86A1040C84014E00C4B186B1040C8400FE00A4B586B104068
:4009C000C8400AE0074B986B1040C84005E0054BD86B1040C84000E00020C0B27047C046842800100000214070B504000D000B4B9A680B4B9A420BD1002903D1FC21094835
:400A000000F0F8FF1034064BA400E058E55003E01034A400044BE05870BDC04600ED00E000000008A428001000000010F0B583B0041E019150D04368032B03D936212948BA
:400A400000F0D8FF0023E05E002802DBA178FFF74BFF0023E25E6368002A12DB9008224EC0308000875903210A40D200FF25290091408F4399012B000B4093403B438351EE
:400A800017E092B20F21114008398908063189001648844661444E6803200240D200FF2738009040864398013B000340934033434B600E4B9A680E4B9A420FD1019B002BF5
:400AC00003D14521074800F095FF0023E05E0199FFF78AFF002002E0064800E0002003B0F0BDC046A428001000E100E000ED00E0000000080100560070B504000D0003694E
:400B0000002B0ADA0B0C03D00549064800F072FF2D042D0C6560002000E0034870BDC046B3020000E828001001008A0070B505000C000368002B01DA002300E0084B002B8A
:400B40000BD1EA60230C03D00649074800F052FF2404240CAC60002000E0014870BDC04601008A009A020000E828001070B505000C1E03D19921064800F03CFF2B69002B2D
:400B800003DAEB682360002000E0024870BDC0462829001001008A00F8B504000E0015000F283FD8002A10D100290ED10F2804D9AA21FF31214800F01DFF6401204B9C46AE
:400BC0006444204B1C60002037E0002D2CD0002E2CD0F3062CD10F2C04D9AA21FF31174800F008FF6401164B9C466444154F3C607E60BD60F2080021280001F05CF8002189
:400C00002000FFF779FF3A0001CA0021FFF78EFF00280FD10B4B18680021FFF76DFF00280AD10AE0084808E0074806E0064804E0054802E0054800E00448F8BD6829001092
:400C4000000023402006000803018A0001018A00F0B583B00D001C4B1B68DC68236883422DD947097B01C01A012383401E00002903D100F056FF019001E000230193124BED
:400C800018680368002B01DA002300E00F4B002B0ED16368BF00DF193B68334203D0B3433B60002400E00A4C0021FFF725FF00E0084C002D04D1019800F037FF00E0064C22
:400CC000200003B0F0BDC0462006000801008A00020188000301880004018A000A4B1B68DA68136883420BD943095901401A0121814052689B009B580B4203D0034802E059
:400D0000034800E003487047200600080101880004018A0000018800034B1B68002B01D1014B18607047C0462C060008F0B5474680B404000F0090461E002B4B1B68002B9C
:400D400003D1B421294800F055FE072C03D9B521264800F04FFE244B1B682C2060431C18FF22150035402560330A13406360330CA3600F2D04D9AA21FF311D4800F03AFE0B
:400D80006B011C4A94466344236165680F2D04D9E2214900164800F02DFE6D01164B9C4665446561A668330C04D0F1214900104800F020FE330C04D0E421FF310C4800F023
:400DC00019FE3604330C1E43AE604346E36127620023A361069B002B02D000229B5EA38104BC9046F0BDC0462C060008A8290010682900100000234000102340F0B58FB0DB
:400E0000041E03D150212E4800F0F4FD6368032B03D952212A4800F0EDFDE36A002B03D15621274800F0E6FDE368072B03D95721234800F0DFFD236A072B03D958212048D7
:400E400000F0D8FD236B002B03D159211C4800F0D1FD07AA1300210061C961C321C921C302AD290023001433C1CBC1C141CB41C10821535E0CAE3380079B1933B370089B2A
:400E80000D930B9B0A980096A26AE16AFFF74EFF2B69E868002200920021FFF747FF216B3000FFF7C3FD0023F25E002A05DB1F231A401E3B9340034A13600FB0F0BDC0463C
:400EC000A829001000E100E0F8B504000F0016001D00002A03D1FD21284800F08BFD284B1B68002B03D1FE21244800F083FD072C03D9FF21214800F07DFD072F04D98021B3
:400F000049001E4800F076FD1D4B1B682C2120004843181879435918012213004C68A3401B044468A24014000269002A20D08F69002F1FD11268002A01DA002200E0114A59
:400F4000002A19D132681204120C134333600369DE6001238B614D620569230C03D00A490A4800F047FD2204120CAA60002004E0074802E0074800E00648F8BDA82900105E
:400F80002C06000801008A009A0200006829001004028A0007028A0070B504000D001600134B1B68002B04D16221FF31114800F021FD072C04D9B12149000E4800F01AFD3D
:400FC0000B4B1B682C2060431C18236A002B04D1B3214900074800F00DFDE369B34204D9236AB6009D51002000E0034870BDC0462C060008A82900100A028A0070B582B02D
:40100000040000230193002804D1EA2149002B4800F0F0FC2369002B04D1D621FF31274800F0E8FC6369002B04D1EB214900234800F0E0FC236A002B04D1D821FF311F48EA
:4010400000F0D8FC6269D5682B0C1FD01B041360136820690369002B18DA01A9FFF786FD00280ED1019803681E0CFF221340E269934207D29B00226AD358002B02D098476C
:4010800000E0002631002069FFF736FD2D042D0C0FD063691D601B68636A002B03D098470023636203E0A36A002B00D098470023A36163691B6802B070BDC046A82900109A
:4010C00010B504000B4B1B68002B04D1DA214900094800F08FFC072C04D9B621FF31064800F088FC034B1B682C2060431818FFF785FF10BD2C060008A829001004281DD8F2
:40110000042904D94B1EFF3B9BB2132B18D8FF290CD91F2319400B4A0300C0339B009950D03080000423835000200AE007231940D0308000034BC150002002E0024800E0FE
:40114000014870470000264001004A0070B5041E04D1E221FF314C4800F04CFCB023DB004A4AD358002B01DB002500E0484D002D00D086E0474B22689A4204D9F8214900FB
:40118000414800F037FC23689B03990BE3791B068022520413400B43B022D2003B498B50A2883D4B9A4204D9F821FF31364800F021FC2289394B9A4204D9FC214900324896
:4011C00000F018FCA388DB04D90C23891B04344A13400B43334A2D498B50A37A0F2B04D9FF214900284800F005FCE37A0F2B03D92A49254800F0FEFBA289274B9A4204D9B4
:4012000080218900204800F0F5FBA37A0F211940E27A1201FF2313400B43A289120222490A401343A27B1207C02189050A401343B122D20015498B50A379072B04D9822129
:401240008900114800F0D6FB228A144B9A4203D916490D4800F0CEFB0C4815494658154B1E40A3791B02E022D2001340334343504658114B1E40238A1B04094A13403343E4
:401280004350280070BDC046E82900100000264003004A00FFFF0300FF1F0000FF0100000000FF018405000000FF1F00090200008C050000FFF8FFFFFFFF00FE70B50500EF
:4012C0002D492E4A8B588020000603438B502C0003E0012000F082FB013CB223DB00264AD3585B0701D4002CF3D12349B122D2008858234B03408020800503438B50002DF5
:4013000002D00ED0002C0CD01B49B022D2008B588020000603438B5003E0012000F05EFB013CB223DB00144AD358DB0701D4002CF3D1002D0ED0002C0CD10F4AB021C900D2
:4013400053585B005B0853500C4953585B005B0853500BE0084B0221B222D2009950B121C9005A58C020800502435A50002C01D1044800E0002070BD000026408C05000001
:40138000FFFFFFCF02004A00214B984230D00ED8402831D004D800281FD010282AD031E080282BD080235B00984229D02AE0194B984229D007D8A0231B0698420DD0164BBA
:4013C000984212D01EE0154B98420AD0144B984209D0144B984215D101E0002016E0124814E0124812E0124810E0A020C0030DE007480BE00F4809E00F4807E00F4805E0AF
:40140000034803E00E4801E0A420C0037047C04606005200010000F0090000A0040000F0050000F0030000F00100520002005200030052000100500002005000050052003F
:40144000FF00520010B50C4B1B69002B11DB0B4B1868FFF799FF0121094B0A4AD150084B084AD358002BFAD1074BD358002BF6D100E0064810BDC04600002340300600083E
:401480000C040000000025408C0400000200500010B5022202490020FFF77EFD10BDC0464501000870B505000C00002848D0002948D0FF230A689A4303D08D21224800F0EC
:4014C00099FAFF2322699A4303D08E211E4800F091FAA3685B0D03D08F211B4800F08AFA63685B0A03D09021174800F083FAE3695B0F03D09121144800F07CFA236A5B0F2B
:4015000003D09221104800F075FA104BEB18DB090F4A944663441B0122682A60E268AA622269EA6262692A63A2686A626268AA61A2696A63E2691A60226A5A60002002E00D
:40154000044800E0034870BD702A00100000CEBF0010030401005A000D4BF222D2019A580260F022D2019A5842600A4A9A588260094A9A58C260094A9A580261084A9A5897
:401580004261084A9A588261074A9B58C36170470000344004780000087800000C7800001078000014780000187800000D4BF022D201416899500C4A816899500B4AC16835
:4015C00099500B4A016999500A4A416999500A4A81699950094AC16999500168E83299507047C0460000344004780000087800000C78000010780000147800001878000025
:4016000010B5074A074813580F24A34302210B43135004381358A3431943115010BDC0460000214004F0000010B5074A074813580F24A34303210B43135004381358A34330
:401640001943115010BDC0460000214004F000000449054A8858054B0340C020C00103438B5070470000214004F00000FF8FFFFF0449054A8858054B03408020C001034366
:401680008B5070470000214004F00000FF8FFFFF10B5002000F066FAB0235B055B78002B04D0B0235B055B78DBB200E02123222B03D8002803D1013002E0012000E000206E
:4016C00010BDC04610B50400002000F04BFA00280AD114498A69144B1A40240680235B041C4014438C611BE0002C01D00F4A00E00F4A01210F48FFF719FA00280DD10D4BB7
:401700001B69002BFBDB0B4BDB681B0E1B06A0221206934203D0084802E0074800E0002010BDC04600F02540FFFFFFFE01010030010000300000234004004200F8B505005D
:40174000012804D9EA21C900294800F053F9FFF79FFF002848D000F0E4F90700002D17D1E823DB00B0225205D65CF6B20120FFF7A9FF041E1FD1FFF743FF1E481E494358CB
:401780001F229343143A13434350FFF761FF12E01A4BB0225205D65CF6B21648164943581F229343143A13434350092000F016F9FFF75EFF0024002C12D10E490E4A8B5845
:4017C0001F20834306401E438E50012D08D1163800F004F9FFF728FF0020FFF773FF0400380000F0A2F900E0054C2000F8BDC046F02A0010000026401CFF000041070000B2
:401800000300420070B584B005000E00042803D929492A4800F0EEF8731EDBB2012B07D9042E05D0082E03D02549244800F0E2F8042E01D0012E1DD1224B5C68002013E0F3
:4018400023799D420FD1A368002B01D01E420AD1E36801A85A6842609B688360067023689847184B9C606469002C23D0164B9842E6D11FE0134B9C68022E02D1002C00D010
:401880002469002011E023799D420DD1A368002B01D01E4208D1E36801A85A6842609B6883600670236898472469002C02D0064B9842E8D104B070BD95080000F02A0010BC
:4018C0009608000040060008FF00420070B50500012804D984218900384800F08BF8384B1B68002B05D001210120FFF78BFF040000E00024002C59D100F013F90600304BC6
:401900001B68002B03D004210120FFF77BFFE0232C4AD358DB0603D529480C30FFF71CFEB0235B055B78002B04D0B0235B055B78DBB200E02123212B03D1280000F0ECF97D
:401940001FE02149214BCB581F221340E822D200B0204005825CD31A5A1E9341DBB20A68120207D4012B05D1194BC158194B164AD15003E00021174B134AD150280000F085
:40198000C3F9E0230F4AD358DB0603D50C480C30FFF70CFE300000F0C8F8094B1B68002B09D008210120FFF72DFF04E002210120FFF728FF084C200070BDC046F02A00105E
:4019C0004006000800000140000026401CFF000010180000307F0000FF00420010B5034B1B78584300F094F810BDC046D400000801BEFEE770B50D00044C182201002000D2
:401A000000F061F9A5610020FFF7F2FF38040008054B802212069A649B6C002B01DB002000E002487047C0460000274003004600054B8022120198585B68FF221A4202D037
:401A40008023DB021843704700002640FEE7C04610B50A4B0268DA6142681A6282685A62C2689A620269DA6242691A6382695A63C2699A63FFF7EAFF10BDC046380400083D
:401A8000F0B5002801D0192200E064228A42924152421C4BE8256D005C590327BC433A4014435C515C59184E34405C51D03D5C59BC4322435A515A5916405E51002805D0B5
:401AC00010290DD921290DD8012014E01D290BD93A290BD957290BD978290BD803200AE0002008E0022006E0002004E0012002E0022000E00420054A13680F218B430343D2
:401B00001360F0BD00002140FFFCFFFF000025400230800803D001300238FCD1C046C0467047EFF3108072B6704780F310887047042805D1094A116804230B4313600CE089
:401B40000006C0239B04184090239B00044AD050024A136804218B431360704710E000E00000214010B504000F2803D9E4210548FFF740FFA402044B9C46644423680F2018
:401B8000184010BD302B001000402440002243088B4274D303098B425FD3030A8B4244D3030B8B4228D3030C8B420DD3FF22090212BA030C8B4202D31212090265D0030BC7
:401BC0008B4219D300E0090AC30B8B4201D3CB03C01A5241830B8B4201D38B03C01A5241430B8B4201D34B03C01A5241030B8B4201D30B03C01A5241C30A8B4201D3CB0256
:401C0000C01A5241830A8B4201D38B02C01A5241430A8B4201D34B02C01A5241030A8B4201D30B02C01A5241CDD2C3098B4201D3CB01C01A524183098B4201D38B01C01A67
:401C4000524143098B4201D34B01C01A524103098B4201D30B01C01A5241C3088B4201D3CB00C01A524183088B4201D38B00C01A524143088B4201D34B00C01A5241411A3E
:401C800000D20146524110467047FFE701B5002000F006F802BDC0460029F7D076E770477047C046002310B59A4203D0CC5CC4540133F9E710BD03008218934202D01970B6
:401CC0000133FAE77047030030B5002A0DD00C7801335D1E013A2C700131002CF5D19A189A4202D01C700133FAE730BDF8B5C046F8BC08BC9E467047F8B5C046F8BC08BC1C
:401D00009E4670470000000001B40248844601BC604700BF3903000801B40248844601BC604700BF650200080300000001000000010000000000000005036000040000000C
:401D4000010000000000000001000000060460000800000000060008A9040010F4010000140004010A0009050800000063010000002034407400802034407400002234406C
:401D80007400802234407400002434407400802434407400002634407400802634407400002834407400802834407400002A34407400802A3440740000213440341F0010B5
:401DC0009000000000233440C41F00109000000000253440542000109000000000273440E420001090000000002934407421001090000000002B3440042200109000000016
:401E000000603440942200107C00000080603440102300107C000000006134408C2300107C00000080613440082400107C00000000623440842400107C00000080623440FC
:401E4000002500107C000000006334407C2500107C00000080633440F82500107C00000000643440742600107C00000080643440F02600107C000000006534406C27001039
:401E80007C00000080653440E82700107C0000005F046301DF04E301DF04E30104283440022A344002000000000000000000000060000000000000000000000000000000BB
:401EC0000000000000000000000000000000000000000000000000BA0000000000000000000000000000000000001D1DF000000000000000000000000000A6AA00000000AE
:401F0000000000000000000000000000080000000700000000000000000000008666000000000000000000000000000014141400000000000000000000000000000000006A
:401F4000FFFFFFFFFFFFFFFFFFFFFFFFFFFFFFFFFFFFFFFFFF000000FFFFFFFFFFFFFFFFFFFFFFFFFFFFFFFFFFFFFFFFFF000000000000000000000000000000000000008B
:401F80000000000000000000FFFFFFFFFFFFFFFFFFFFFFFF111111111111111111111111111111111111111111111111111111111111111111111111111111111111111141
:401FC00011111111000000000000000000000000FFFFFFFFFFFFFFFFFFFFFFFFFFFFFFFFFFFFFFFFFF000000FFFFFFFFFFFFFFFFFFFFFFFFFFFFFFFFFFFFFFFFFF000000C7
:40200000000000000000000000000000000000000000000000000000FFFFFFFFFFFFFFFFFFFFFFFF11111111111111111111111111111111111111111111111111111111D0
:402040001111111111111111111111111111111111111111000000000000000000000000FFFFFFFFFFFFFFFFFFFFFFFFFFFFFFFFFFFFFFFFFF000000FFFFFFFFFFFFFFFF29
:40208000FFFFFFFFFFFFFFFFFFFFFFFFFF000000000000000000000000000000000000000000000000000000FFFFFFFFFFFFFFFFFFFFFFFF1111111111111111111111116D
:4020C000111111111111111111111111111111111111111111111111111111111111111111111111000000000000000000000000FFFFFFFFFFFFFFFFFFFFFFFFFFFFFFFF8C
:40210000FFFFFFFFFF000000FFFFFFFFFFFFFFFFFFFFFFFFFFFFFFFFFFFFFFFFFF000000000000000000000000000000000000000000000000000000FFFFFFFFFFFFFFFFC1
:40214000FFFFFFFF111111111111111111111111111111111111111111111111111111111111111111111111111111111111111111111111C0000000000000000000000073
:40218000FFFFFFFFFFFFFFFFFFFFFFFFFFFFFFF0FFFFFFFFFF000000FFFFFFFFFFFFFFFFFFFFFFFFFFFFFFF0FFFFFFFFFF0000000000000000000000000000000000000067
:4021C000000000FF00000000FFFFFFFFFFFFFFFFFFFFFFFF111111111111111111DD1111111111111111111111111111111111111111111111111111111111111111111134
:4022000011111111800000000000000000000000FFFFFFFFFFFFFFFFFFFFFFFFFFFFFFF2FFFFFFFFFF000000FFFFFFFFFFFFFFFFFFFFFFFFFFFFFFFFFFFFFFFFFF00000011
:4022400000000000000000000000000000000000000000F000000000FFFFFFFFFFFFFFFFFFFFFFFF111111111111111111111111111111111111111111D1111111111111DE
:40228000111111111111111111111111111111111111111100000000000000001F1F1F1F1F1F1F1F1F1F1F1F1F1F1F1F1F1F1F1F1F1F1F1F1F1F1F1F1F1F1F1F00000000EA
:4022C0000000000000000000000000000000000000000000FFFFFFFFFFFFFFFFFFFFFFFF1111111111111111111111111111111111111111111111111111111111111111CA
:402300001111111111111111111111111111111100000000000000001F1F1F1F1F1F1F1F1F1F1F1F1F1F1F1F1F1F1F1F1F1F1F1F1F1F1F1F1F1F1F1F0000000000000000AD
:4023400000000000000000000000000000000000FFFFFFFFFFFFFFFFFFFFFFFF11111111111111111111111111111111111111111111111111111111111111111111111105
:4023800011111111111111111111111100000000000000001F1F1F1F1F1F1F1F1F1F1F1F1F1F1F1F1F1F1F1F1F1F1F1F1F1F1F1F1F1F1F1F00000000000000000000000071
:4023C000000000000000000000000000FFFFFFFFFFFFFFFFFFFFFFFF1111111111111111111111111111111111111111111111111111111111111111111111111111111141
:40240000111111111111111100000000000000001F1F1F1F1F1F1F1F1F1F1F1F1F1F1F1F1F1F1F1F1F1F1F1F1F1F1F1F1F1F1F1F0000000000000000000000000000000034
:402440000000000000000000FFFFFFFFFFFFFFFFFFFFFFFF11111111111111111111111111111111111111111111111111111111111111111111111111111111111111117C
:402480001111111100000000000000001F1F1F1F1F1F1F1F1F1F1F1F1F1F1F1F1F1F1F1F1F1F1F1F1F1F1F1F1F1F1F1F0000000000000000000000000000000000000000F8
:4024C00000000000FFFFFFFFFFFFFFFFFFFFFFFF111111111111111111111111111111111111111111111111111111111111111111111111111111111111111111111111B8
:4025000000000000000000001F1F1F1F1F1F1F1F1F1F1F1F1F1F1F1F1F1F1F1F1F1F1F1F1F1F1F1F1F1F1F1F000000000000000000000000000000000000000000000000BB
:40254000FFFFFFFFFFFFFFFFFFFFFFFF1111111111111111111111111111111111111111111111111111111111111111111111111111111111111111111111110000000037
:40258000000000001F1F1F1F1F1F1F1F1F1F1F1F1F1F1F1F1F1F1F1F1F1F1F1F1F1F1F1F1F1F1F1F000000000000000000000000000000000000000000000000FFFFFFFF3F
:4025C000FFFFFFFFFFFFFFFF1111111111111111111111111111111111111111111111111111111111111111111111111111111111111111111111110000000000000000B3
:402600001F1F1F1F1F1F1F1F1F1F1F1F1F1F1F1F1F1F1F1F1F1F1F1F1F1F1F1F1F1F1F1F000000000000000000000000000000000000000000000000FFFFFFFFFFFFFFFFC2
:40264000FFFFFFFF11111111111111111111111111111111111111111111111111111111111111111111111111111111111111111111111100000000000000001F1F1F1FB2
:402680001F1F1F1F1F1F1F1F1F1F1F1F1F1F1F1F1F1F1F1F1F1F1F1F1F1F1F1F000000000000000000000000000000000000000000000000FFFFFFFFFFFFFFFFFFFFFFFFC2
:4026C00011111111111111111111111111111111111111111111111111111111111111111111111111111111111111111111111100000000000000001F1F1F1F1F1F1F1FB2
:402700001F1F1F1F1F1F1F1F1F1F1F1F1F1F1F1F1F1F1F1F1F1F1F1F000000000000000000000000000000000000000000000000FFFFFFFFFFFFFFFFFFFFFFFF1111111179
:40274000111111111111111111111111111111111111111111111111111111111111111111111111111111111111111100000000000000001F1F1F1F1F1F1F1F1F1F1F1FF9
:402780001F1F1F1F1F1F1F1F1F1F1F1F1F1F1F1F1F1F1F1F000000000000000000000000000000000000005100000000FFFFFFFFFFFFFFFFFFFFFFFF1111111111111111E0
:4027C0001121111111111111111111111111111111111111111111111111111111111111111111111111111100000000000000001F1F1F1F1F1F1F1F1F1F1F1F1F1F1F1F31
:402800001F1F1F1F1F1F1F1F1F1F1F1F1F1F1F1F000000000000000000000000000000000000001000000000FFFFFFFFFFFFFFFFFFFFFFFF111111111111111111F11111F8
:402840001111111111111111111111111111111111111111111111111111111111111111111111110809001014090010200900102C09001038090010440900105009001011
:402880005C09001088090010920900109C090010A6090010B0090010BA090010C4090010CE09001047656E6572617465645F536F757263655C50536F43365C70646C5C64E1
:4028C0007269766572735C7065726970686572616C5C737973696E745C63795F737973696E742E630000000047656E6572617465645F536F757263655C50536F43365C70CB
:40290000646C5C647269766572735C7065726970686572616C5C6970635C63795F6970635F6472762E68000047656E6572617465645F536F757263655C50536F43365C7026
:40294000646C5C647269766572735C7065726970686572616C5C6970635C63795F6970635F6472762E63000047656E6572617465645F536F757263655C50536F43365C70EB
:40298000646C5C647269766572732F7065726970686572616C2F6970632F63795F6970635F6472762E68000047656E6572617465645F536F757263655C50536F43365C702D
:4029C000646C5C647269766572735C7065726970686572616C5C6970635C63795F6970635F706970652E630047656E6572617465645F536F757263655C50536F43365C7009
:402A0000646C5C647269766572735C7065726970686572616C5C737973636C6B5C63795F737973636C6B2E630000000047656E6572617465645F536F757263655C50536F60
:402A400043365C70646C5C647269766572735C7065726970686572616C5C737973636C6B5C63795F737973636C6B2E680000000047656E6572617465645F536F7572636544
:402A80005C50536F43365C70646C5C647269766572735C7065726970686572616C5C6770696F5C63795F6770696F2E630000000047656E6572617465645F536F757263656F
:402AC0005C50536F43365C70646C5C647269766572735C7065726970686572616C5C6770696F5C63795F6770696F2E680000000047656E6572617465645F536F757263652A
:402B00005C50536F43365C70646C5C647269766572735C7065726970686572616C5C737973706D5C63795F737973706D2E63000047656E6572617465645F536F75726365D4
:402B40005C50536F43365C70646C5C647269766572735C7065726970686572616C5C70726F745C63795F70726F742E6300000000000000000000001000000008C000000009
:402B8000942B0010C00000087803000074040008F80100000048E80100127A0000093D0000093D0000093D0004000000A00F00000000D00702FF0000E9000010C1000010A6
:402BC000000000000004400B19D00D4B1B68002BFBDA3E220B4B1A600B4A0C4B1A600C4B0621A322D20099500A4A98509B580022034B5A60074B064AD358002BFADA704792
:402C0000E0002340040126401E1F000008012640000026401C05000010B54378FF2B0DD100F034F9064BDB685A68116801230B4313601368DB07FCD400F058F910BDC04619
:402C400080002340F0B583B005000F0000F036F90600032824D12E4B1B69002B22DB002000F034F92B4B98421ED000232A4A0021012000F013F9002803D0284C17E0013430
:402C800000E00024002000F021F9224B984202D0234B9C42F3D9224B9C4207D91F4C06E0002404E01D4C02E01C4C00E00024002C2BD100F0EBF801901A4B1B4AD358002BCE
:402CC00013DA1A4A01211A4800F008F900280ED13800FFF777FF002D0BD0154B1B69002BFBDB00F0E3F8040004E00C4C02E00B4C00E0104C032E05D10121002000F0FEF8C7
:402D00000028F9D1019800F0F1F8200003B0F0BDC000234001018800E000000805005200EF4902001C0500000000264030060008000023400100500070B5304B1B68002BC2
:402D4000FBDA2E4BD96802220A43DA60DB68DB071FD52A4EF2681204150C294B1A69120A1204FF2424042240110090241A59120A12060A432A43F2601969224A11409025B5
:402D80002D012943196119590A402A431A511A691B591A4B00225A605B681B4A116904230B431361012801D030BF00E020BF134B1B68002BFBDA114BDB68DB0715D510485C
:402DC0000269104B1A4014000C4DEA68120C1202FF2109020A4022430261902142581340EA68120E120213434350044BDA6802218A43DA6000225A6070BDC046E00023406B
:402E000000002140FF00FFFF00ED00E0164A116904230B431361012801D030BF00E020BF124B1B68002BFBDA86235B00104AD358002B14D10F4A104B1A6006220F4B1A6059
:402E400038320F4B1A6006320E4B1A600D4B1B68002BFBDA0C4986235B00054AD1500022024B5A607047C04600ED00E0E0002340000025401E1F00000801264018052640DB
:402E8000040126401C052640AAAAAAAA01B40248844601BC604700BF231B001001B40248844601BC604700BFC90E001001B40248844601BC604700BF4514001001B4024817
:402EC000844601BC604700BF1904001001B40248844601BC604700BFDD0C001001B40248844601BC604700BF2D0B001001B40248844601BC604700BF2B1B001001B402485E
:402F0000844601BC604700BF510C00100000000000000000000000000000000000000000000000000000000000000000000000000000000000000000000000000000000037
:402F40000000000000000000000000000000000000000000000000000000000000000000000000000000000000000000000000000000000000000000000000000000000051
:402F80000000000000000000000000000000000000000000000000000000000000000000000000000000000000000000000000000000000000000000000000000000000011
:402FC00000000000000000000000000000000000000000000000000000000000000000000000000000000000000000000000000000000000000000000000000000000000D1
:0200000490303A
:0200000008599D
:0200000490501A
:0C0000000005E20721002101E21529594A
:00000001FF